:100000000C942A000C943F000C943F000C943F0089
:100010000C943F000C943F000C943F000C943F0064
:100020000C943F000C943F000C943F000C943F0054
:100030000C943F000C943F000C943F000C943F0044
:100040000C943F000C943F000C943F000C943F0034
:100050000C943F0011241FBECFE5D8E0DEBFCDBF1A
:1000600010E0A0E6B0E0E0E9F5E002C005900D92F6
:10007000A837B107D9F70E94BD020C94C6020C94B0
:100080000000DF93CF9300D0CDB7DEB789836A83BA
:100090008981882F90E0880F991FFC01E859FF4F54
:1000A0000190F081E02D8A8180830F900F90CF9195
:1000B000DF910895DF93CF9300D00F92CDB7DEB7D5
:1000C00089836A834B838B81813029F58981882FCD
:1000D00090E0880F991FFC01E859FF4FA081B18182
:1000E0008981882F90E0880F991FFC01E859FF4F04
:1000F0000190F081E02D8081482F8A81282F30E007
:1001000081E090E0022E02C0880F991F0A94E2F766
:10011000842B8C9325C08981882F90E0880F991FAC
:10012000FC01E859FF4FA081B1818981882F90E0BF
:10013000880F991FFC01E859FF4F0190F081E02DD5
:100140008081482F8A81282F30E081E090E0022EC4
:1001500002C0880F991F0A94E2F7809584238C933C
:100160000F900F900F90CF91DF910895DF93CF9371
:100170000F92CDB7DEB789838981882F90E0880FF1
:10018000991FFC01E859FF4F0190F081E02D10828A
:100190008981882F90E0880F991FFC01E059FF4F5B
:1001A0000190F081E02D8FEF80830F90CF91DF9150
:1001B0000895DF93CF9300D0CDB7DEB789836A83EC
:1001C0008981882F90E0880F991FFC01E859FF4F23
:1001D000A081B1818981882F90E0880F991FFC014F
:1001E000E859FF4F0190F081E02D8081482F8A81EE
:1001F000282F30E081E090E002C0880F991F2A95F7
:10020000E2F7809584238C938981882F90E0880F72
:10021000991FFC01E059FF4FA081B1818981882F8E
:1002200090E0880F991FFC01E059FF4F0190F08189
:10023000E02D8081482F8A81282F30E081E090E0F6
:10024000022E02C0880F991F0A94E2F7842B8C9328
:100250000F900F90CF91DF910895DF93CF930F927E
:10026000CDB7DEB789838981882F90E0880F991FE9
:10027000FC01E059FF4F0190F081E02D8FEF80836A
:100280000F90CF91DF910895DF93CF930F92CDB769
:10029000DEB789838981882F90E0880F991FFC0140
:1002A000E059FF4F0190F081E02D10820F90CF9127
:1002B000DF910895DF93CF9300D0CDB7DEB7898368
:1002C0006A838981882F90E0880F991FFC01E0598B
:1002D000FF4F0190F081E02D8A8180830F900F9075
:1002E000CF91DF910895DF93CF930F92CDB7DEB713
:1002F00089838981882F90E0880F991FFC01E0593C
:10030000FF4FA081B1818981882F90E0880F991FCC
:10031000FC01E059FF4F0190F081E02D8081809534
:100320008C930F90CF91DF910895DF93CF9300D0FE
:10033000CDB7DEB789836A838981882F90E0880FE3
:10034000991FFC01E059FF4FA081B1818981882F5D
:1003500090E0880F991FFC01E059FF4F0190F08158
:10036000E02D8081482F8A81282F30E081E090E0C5
:10037000022E02C0880F991F0A94E2F7842B8C93F7
:100380000F900F90CF91DF910895DF93CF9300D01E
:10039000CDB7DEB789836A838981882F90E0880F83
:1003A000991FFC01E059FF4FA081B1818981882FFD
:1003B00090E0880F991FFC01E059FF4F0190F081F8
:1003C000E02D8081482F8A81282F30E081E090E065
:1003D000022E02C0880F991F0A94E2F780958423A9
:1003E0008C930F900F90CF91DF910895DF93CF936F
:1003F00000D00F92CDB7DEB789836A834B838B81A0
:10040000813029F58981882F90E0880F991FFC01A0
:10041000E059FF4FA081B1818981882F90E0880F3A
:10042000991FFC01E059FF4F0190F081E02D808180
:10043000482F8A81282F30E081E090E0022E02C010
:10044000880F991F0A94E2F7842B8C9325C0898129
:10045000882F90E0880F991FFC01E059FF4FA08181
:10046000B1818981882F90E0880F991FFC01E059A4
:10047000FF4F0190F081E02D8081482F8A81282F45
:1004800030E081E090E0022E02C0880F991F0A94AC
:10049000E2F7809584238C930F900F900F90CF916B
:1004A000DF910895DF93CF9300D0CDB7DEB7898376
:1004B0006A838981882F90E0880F991FFC01E05999
:1004C000FF4FA081B1818981882F90E0880F991F0B
:1004D000FC01E059FF4F0190F081E02D8081482F11
:1004E0008A81282F30E081E090E0022E02C0880F40
:1004F000991F0A94E2F784278C930F900F90CF9165
:10050000DF910895DF93CF930F92CDB7DEB7898344
:100510008981882F90E0880F991FFC01E05AFF4FD6
:100520000190F081E02D80810F90CF91DF910895AF
:10053000DF93CF9300D0CDB7DEB789836A838981FB
:10054000882F90E0880F991FFC01E05AFF4F01901F
:10055000F081E02D8081282F30E08A81882F90E083
:10056000A90102C0559547958A95E2F7CA018170A5
:100570000F900F90CF91DF910895DF93CF93CDB778
:10058000DEB780E090E0CF91DF910895F894FFCF3F
:1005900039003600330030003A00370034003100B3
:0805A0003B0038003500320079
:00000001FF
