:100000000C942A000C9447000C9447000C94470071
:100010000C9447000C9447000C9447000C94470044
:100020000C9447000C9447000C9447000C94470034
:100030000C9447000C9447000C9447000C94470024
:100040000C9447000C9447000C9447000C94320920
:100050000C94470011241FBECFE5D8E0DEBFCDBF12
:1000600010E0A0E6B0E0E6E9F9E102C005900D92EB
:10007000A638B107D9F710E0A6E8B0E001C01D929C
:10008000A739B107E1F70E94D60B0C94C90C0C9468
:100090000000EF92FF920F931F937B018C0120E0F1
:1000A00030E040E05FE40E94490388238CF0C801FF
:1000B000B70120E030E040E05FE40E94C1010E940F
:1000C000A9039B01AC01205030404040504806C07D
:1000D000C801B7010E94A9039B01AC01B901CA0183
:1000E0001F910F91FF90EF900895A0E0B0E0EBE733
:1000F000F0E00C94920CDC012B01FA019C919230FF
:1001000008F439C1EB018881823008F433C194309E
:1001100069F4843009F02FC111969C91119789815F
:10012000981709F428C1A0E6B0E025C1843009F48D
:1001300021C18230A9F4923009F01DC19A01AD01AC
:1001400088E0EA010990AE01E90109929E0181501F
:10015000C1F7E201898111969C918923818308C1AD
:10016000923009F407C112962D903C901397EB0141
:100170008A819B811496AD90BD90CD90DC901797AD
:10018000EC80FD800E811F819101281B390BB90184
:1001900037FF04C066277727621B730B6032710537
:1001A0000CF061C0121613066CF537014801062EDB
:1001B00004C096948794779467940A94D2F721E0C8
:1001C00030E040E050E004C0220F331F441F551FB1
:1001D0006A95D2F721503040404050402E213F21B7
:1001E00040235123211531054105510521F021E01E
:1001F00030E040E050E079018A01E628F72808293C
:1002000019293CC0232BD1F1260E371E350146019A
:10021000062E04C096948794779467940A94D2F734
:1002200021E030E040E050E004C0220F331F441FC3
:10023000551F6A95D2F721503040404050402A2146
:100240003B214C215D21211531054105510521F04E
:1002500021E030E040E050E059016A01A628B728CB
:10026000C828D9280BC0821593052CF01C01AA249C
:10027000BB24650103C0EE24FF24870111969C91E5
:10028000D20111968C91981709F445C0992339F041
:10029000A80197012A193B094C095D0906C0A6016E
:1002A00095012E193F09400B510B57FD08C01182D3
:1002B0003382228224833583468357831DC081E0A5
:1002C00081833382228288279927DC01821B930B4A
:1002D000A40BB50B84839583A683B7830DC0220F2F
:1002E000331F441F551F24833583468357838281E0
:1002F000938101979383828324813581468157813D
:10030000DA01C9010197A109B1098F5F9F4FAF4F72
:10031000BF4328F30BC0918333822282EA0CFB1C7B
:100320000C1D1D1DE482F5820683178383E0808304
:10033000248135814681578157FF1AC0C901AA27F8
:1003400097FDA095BA2F81709070A070B0705695EF
:10035000479537952795822B932BA42BB52B848318
:100360009583A683B7838281938101969383828349
:10037000DF0101C0D201CD01CDB7DEB7E2E10C94BF
:10038000AE0CA0E2B0E0E7ECF1E00C949E0C6983C7
:100390007A838B839C832D833E834F835887E9E048
:1003A000EE2EF12CEC0EFD1ECE010196B7010E943F
:1003B000D2048E010F5E1F4FCE010596B8010E9438
:1003C000D2048A8991E089278A8BC701B801AE01DE
:1003D000475E5F4F0E9475000E94FD03A096E6E015
:1003E0000C94BA0CA0E2B0E0E8EFF1E00C949E0CA3
:1003F00069837A838B839C832D833E834F835887C5
:10040000F9E0EF2EF12CEC0EFD1ECE010196B701A6
:100410000E94D2048E010F5E1F4FCE010596B801D7
:100420000E94D204C701B801AE01475E5F4F0E942F
:1004300075000E94FD03A096E6E00C94BA0CA0E2C1
:10044000B0E0E5E2F2E00C94920C69837A838B834E
:100450009C832D833E834F835887CE010196BE0136
:10046000675F7F4F0E94D204CE010596BE016F5E8A
:100470007F4F0E94D2049985923088F0898982301A
:10048000C8F0943019F4823051F404C0843029F457
:10049000923081F480E690E0C6C0923049F420E0CA
:1004A0009A858A89981321E02A87CE010996BBC0D4
:1004B000823049F420E09A858A89981321E02A8BBA
:1004C000CE014196B0C02D843E844F8458886D88FB
:1004D0007E888F88988CEE24FF248701AA24BB2471
:1004E000650140E050E060E070E0E0E0F0E0C10174
:1004F00081709070892BE9F0E60CF71C081D191D1E
:100500009A01AB012A0D3B1D4C1D5D1D80E090E062
:10051000A0E0B0E0E614F7040805190520F481E036
:1005200090E0A0E0B0E0BA01A901480F591F6A1F8E
:100530007B1FAA0CBB1CCC1CDD1C97FE08C081E0F5
:1005400090E0A0E0B0E0A82AB92ACA2ADB2A3196B6
:10055000E032F10549F0660C771C881C991C569412
:10056000479437942794C3CFFA85EA892B893C892D
:100570008B859C85280F391F2E5F3F4F17C0CA01FE
:1005800081709070892B61F016950795F794E79428
:1005900080E090E0A0E0B0E8E82AF92A0A2B1B2BC3
:1005A00076956795579547952F5F3F4F77FDE7CF36
:1005B0000CC0440F551F661F771F17FD4160EE0CDE
:1005C000FF1C001F111F21503040403090E05907A0
:1005D00090E0690790E4790760F32B8F3C8FDB0193
:1005E000CA018F779070A070B07080349105A1051A
:1005F000B10561F447FD0AC0E114F10401051105DC
:1006000029F0405C5F4F6F4F7F4F40781A8EFE1786
:1006100011F081E08A8F4D8F5E8F6F8F78A383E01A
:10062000898FCE0149960E94FD03A096E2E10C94C9
:10063000AE0CA8E1B0E0EFE1F3E00C949E0C69830E
:100640007A838B839C832D833E834F83588789E0F5
:10065000E82EF12CEC0EFD1ECE010196B7010E9492
:10066000D2048E010F5E1F4FCE010596B8010E9485
:10067000D2048985823040F08989823028F0C70110
:10068000B8010E944A0501C08FEF6896E6E00C941D
:10069000BA0CA8E1B0E0EFE4F3E00C949E0C69839F
:1006A0007A838B839C832D833E834F83588789E095
:1006B000E82EF12CEC0EFD1ECE010196B7010E9432
:1006C000D2048E010F5E1F4FCE010596B8010E9425
:1006D000D2048985823040F08989823028F0C701B0
:1006E000B8010E944A0501C08FEF6896E6E00C94BD
:1006F000BA0CA8E1B0E0EFE7F3E00C949E0C69833C
:100700007A838B839C832D833E834F83588789E034
:10071000E82EF12CEC0EFD1ECE010196B7010E94D1
:10072000D2048E010F5E1F4FCE010596B8010E94C4
:10073000D2048985823040F08989823028F0C7014F
:10074000B8010E944A0501C081E06896E6E00C9479
:10075000BA0CACE0B0E0EFEAF3E00C94A20C6983D1
:100760007A838B839C83CE010196BE016B5F7F4FA2
:100770000E94D2048D81823061F1823050F1843048
:1007800021F48E81882351F12EC02F81388537FDC9
:1007900020C06E812F3131051CF06623F9F023C093
:1007A0008EE190E0821B930B29853A854B855C8511
:1007B00004C056954795379527958A95D2F76623B5
:1007C000B1F050954095309521953F4F4F4F5F4F79
:1007D0000EC020E030E040E050E009C02FEF3FEFD6
:1007E0004FEF5FE704C020E030E040E050E8B9019F
:1007F000CA012C96E2E00C94BE0CDF92EF92FF92BD
:100800000F931F93FC01E480F58006811781D1804E
:100810008081823048F480E090E0A0E1B0E0E82AF6
:10082000F92A0A2B1B2BA5C0843009F49FC0823003
:1008300021F4EE24FF24870105C0E114F104010531
:10084000110519F4E0E0F0E096C0628173819FEF3A
:10085000623879070CF05BC022E83FEF261B370BAC
:100860002A3131052CF020E030E040E050E02AC091
:10087000B801A701022E04C0769567955795479554
:100880000A94D2F781E090E0A0E0B0E004C0880FC5
:10089000991FAA1FBB1F2A95D2F70197A109B10979
:1008A0008E219F21A023B1230097A105B10521F03E
:1008B00081E090E0A0E0B0E09A01AB01282B392B59
:1008C0004A2B5B2BDA01C9018F779070A070B07052
:1008D00080349105A105B10539F427FF09C0205CDA
:1008E0003F4F4F4F5F4F04C0215C3F4F4F4F5F4F13
:1008F000E0E0F0E02030A0E03A07A0E04A07A0E402
:100900005A0710F0E1E0F0E079018A0127C0603871
:10091000710564F5FB01E158FF4FD801C7018F77DE
:100920009070A070B07080349105A105B10539F4C4
:10093000E7FE0DC080E490E0A0E0B0E004C08FE3EB
:1009400090E0A0E0B0E0E80EF91E0A1F1B1F17FFA1
:1009500005C016950795F794E794319687E01695AC
:100960000795F794E7948A95D1F705C0EE24FF2404
:100970008701EFEFF0E06E2F679566276795902F60
:100980009F77D794DD24D7948E2F8695492F462BB9
:10099000582F5D29B701CA011F910F91FF90EF9069
:1009A000DF900895FC01DB01408151812281622F9B
:1009B0006F7770E0221F2227221F9381892F880FD3
:1009C000822B282F30E0991F9927991F11969C930D
:1009D000119721153105A9F54115510561057105DD
:1009E00011F482E037C082E89FEF13969C938E93B8
:1009F00012979A01AB0167E0220F331F441F551F66
:100A00006A95D1F783E08C930DC0220F331F441FEA
:100A1000551F12968D919C911397019713969C9355
:100A20008E931297203080E0380780E0480780E4FA
:100A3000580758F314962D933D934D935C93179755
:100A400008952F3F310579F4411551056105710570
:100A500019F484E08C93089564FF03C081E08C93C3
:100A600012C01C9210C02F57304013963C932E9307
:100A7000129783E08C9387E0440F551F661F771F02
:100A80008A95D1F7706414964D935D936D937C9322
:100A9000179708951F93DC01FB019C91923008F495
:100AA00047C08081823008F443C0943051F41196DD
:100AB0001C91843099F58181682F70E0611B710968
:100AC0003FC0843021F0923031F48230B9F181811D
:100AD000882389F12DC011961C9111978230F1F075
:100AE00081811817D9F412962D913C911397828128
:100AF00093818217930794F028173907BCF0149656
:100B00008D919D910D90BC91A02D248135814681C0
:100B10005781281739074A075B0718F4112341F05A
:100B20000AC082179307A407B50740F4112319F0F0
:100B300061E070E005C06FEF7FEF02C060E070E041
:100B4000CB011F910895DF93CF9300D0CDB7DEB7CF
:100B500089836A838981882F90E0880F991FFC011F
:100B6000E059FF4F0190F081E02D8A8180830F9042
:100B70000F90CF91DF910895DF93CF9300D00F9224
:100B8000CDB7DEB789836A834B838B81813029F5AA
:100B90008981882F90E0880F991FFC01E059FF4F51
:100BA000A081B1818981882F90E0880F991FFC0175
:100BB000E059FF4F0190F081E02D8081482F8A811C
:100BC000282F30E081E090E0022E02C0880F991FAC
:100BD0000A94E2F7842B8C9325C08981882F90E0BA
:100BE000880F991FFC01E059FF4FA081B1818981D5
:100BF000882F90E0880F991FFC01E059FF4F01906A
:100C0000F081E02D8081482F8A81282F30E081E01B
:100C100090E0022E02C0880F991F0A94E2F7809597
:100C200084238C930F900F900F90CF91DF910895B4
:100C3000DF93CF930F92CDB7DEB789838981882F59
:100C400090E0880F991FFC01E059FF4F0190F0815F
:100C5000E02D10828981882F90E0880F991FFC0178
:100C6000E858FF4F0190F081E02D8FEF80830F90C7
:100C7000CF91DF910895DF93CF9300D0CDB7DEB74A
:100C800089836A838981882F90E0880F991FFC01EE
:100C9000E059FF4FA081B1818981882F90E0880FB2
:100CA000991FFC01E059FF4F0190F081E02D8081F8
:100CB000482F8A81282F30E081E090E002C0880F21
:100CC000991F2A95E2F7809584238C938981882F38
:100CD00090E0880F991FFC01E858FF4FA081B18177
:100CE0008981882F90E0880F991FFC01E858FF4FF9
:100CF0000190F081E02D8081482F8A81282F30E0FB
:100D000081E090E0022E02C0880F991F0A94E2F75A
:100D1000842B8C930F900F90CF91DF910895DF93E8
:100D2000CF930F92CDB7DEB789838981882F90E06A
:100D3000880F991FFC01E858FF4F0190F081E02DCA
:100D40008FEF80830F90CF91DF910895DF93CF9342
:100D50000F92CDB7DEB789838981882F90E0880F05
:100D6000991FFC01E858FF4F0190F081E02D10829F
:100D70000F90CF91DF910895DF93CF9300D0CDB73F
:100D8000DEB789836A838981882F90E0880F991F55
:100D9000FC01E858FF4F0190F081E02D8A818083AB
:100DA0000F900F90CF91DF910895DF93CF930F9223
:100DB000CDB7DEB789838981882F90E0880F991F8E
:100DC000FC01E858FF4FA081B1818981882F90E014
:100DD000880F991FFC01E858FF4F0190F081E02D2A
:100DE000808180958C930F90CF91DF910895DF9350
:100DF000CF9300D0CDB7DEB789836A838981882FEE
:100E000090E0880F991FFC01E858FF4FA081B18145
:100E10008981882F90E0880F991FFC01E858FF4FC7
:100E20000190F081E02D8081482F8A81282F30E0C9
:100E300081E090E0022E02C0880F991F0A94E2F729
:100E4000842B8C930F900F90CF91DF910895DF93B7
:100E5000CF9300D0CDB7DEB789836A838981882F8D
:100E600090E0880F991FFC01E858FF4FA081B181E5
:100E70008981882F90E0880F991FFC01E858FF4F67
:100E80000190F081E02D8081482F8A81282F30E069
:100E900081E090E0022E02C0880F991F0A94E2F7C9
:100EA000809584238C930F900F90CF91DF910895BC
:100EB000DF93CF9300D00F92CDB7DEB789836A83DB
:100EC0004B838B81813029F58981882F90E0880FB1
:100ED000991FFC01E858FF4FA081B1818981882FBB
:100EE00090E0880F991FFC01E858FF4F0190F081B6
:100EF000E02D8081482F8A81282F30E081E090E02A
:100F0000022E02C0880F991F0A94E2F7842B8C935B
:100F100025C08981882F90E0880F991FFC01E8582F
:100F2000FF4FA081B1818981882F90E0880F991FA0
:100F3000FC01E858FF4F0190F081E02D8081482F9F
:100F40008A81282F30E081E090E0022E02C0880FD5
:100F5000991F0A94E2F7809584238C930F900F9049
:100F60000F90CF91DF910895DF93CF9300D0CDB74D
:100F7000DEB789836A838981882F90E0880F991F63
:100F8000FC01E858FF4FA081B1818981882F90E052
:100F9000880F991FFC01E858FF4F0190F081E02D68
:100FA0008081482F8A81282F30E081E090E0022E56
:100FB00002C0880F991F0A94E2F784278C930F9040
:100FC0000F90CF91DF910895DF93CF930F92CDB71C
:100FD000DEB789838981882F90E0880F991FFC01F3
:100FE000E859FF4F0190F081E02D80810F90CF9163
:100FF000DF910895DF93CF9300D0CDB7DEB789831B
:101000006A838981882F90E0880F991FFC01E85935
:10101000FF4F0190F081E02D8081282F30E08A8100
:10102000882F90E0A90102C0559547958A95E2F76F
:10103000CA0181700F900F90CF91DF910895DF93D7
:10104000CF93CDB7DEB7E1E2F0E01082E0E2F0E06E
:1010500080E28083A6E5B0E0E6E5F0E0808185608F
:101060008C93CF91DF910895DF93CF930F92CDB7FB
:10107000DEB7E1E2F0E08081887F898389810F908B
:10108000CF91DF910895DF93CF93CDB7DEB7A6E57B
:10109000B0E0E6E5F0E08081846A8C93CF91DF9147
:1010A0000895DF93CF93CDB7DEB7E3E2F0E0809110
:1010B0008F00880F8083CF91DF910895DF93CF93C6
:1010C000CDB7DEB7E3E2F0E080918F00882F90E0AB
:1010D000880F991F81608083CF91DF910895DF93FE
:1010E000CF930F92CDB7DEB78983E3E2F0E0898139
:1010F0008083A6E5B0E0E6E5F0E0808184688C932B
:10110000AFE5B0E0EFE5F0E0808180688C930F9070
:10111000CF91DF910895DF93CF93CDB7DEB7E3E2B0
:10112000F0E08081CF91DF910895DF93CF9300D0DD
:1011300000D0CDB7DEB78A837C836B831982809120
:101140008D008823C1F482E080938D008B819C8187
:10115000909396008093950010928C0010928B00D3
:1011600084E080938E008A8180938F000E941F0804
:101170000E94430802C081E0898389810F900F900B
:101180000F900F90CF91DF910895DF93CF9300D010
:1011900000D000D0CDB7DEB79B838A837D836C837C
:1011A0004E83198280918D008823F1F481E0809331
:1011B0008D008A819B8190939400809393008C8111
:1011C0009D8190938A0080938900109288001092EC
:1011D000870084E080938E008E8180938F000E9430
:1011E0001F080E94430802C081E0898389812696F6
:1011F0000FB6F894DEBF0FBECDBFCF91DF9108953B
:10120000DF93CF9300D000D00F92CDB7DEB78A83A3
:101210007C836B834D83198280918D008823B9F480
:1012200085E080938D008A8180938F008B819C81E3
:1012300090939600809395008D818093920084E036
:1012400080938E000E941F080E94430802C081E024
:10125000898389810F900F900F900F900F90CF91FD
:10126000DF9108951F920F920FB60F921124EF9203
:10127000FF920F931F932F933F934F935F936F931F
:101280007F938F939F93AF93BF93EF93FF93DF93DE
:10129000CF93CDB7DEB72897DEBFCDBF80918D004D
:1012A000282F30E038872F838F81988582309105F1
:1012B00029F1EF81F885E330F1056CF42F81388551
:1012C0002115310509F452C28F819885813091052D
:1012D00009F488C14BC2EF81F885E430F10509F4C7
:1012E00045C22F813885243031050CF43FC28F81EF
:1012F00098858530910509F4B2C038C20E9434083F
:10130000E82FF0E0FE83ED832D813E81203431050E
:10131000E1F18D819E81813491058CF4ED81FE8116
:10132000E031F10541F12D813E812833310509F489
:101330008BC08D819E818830910599F017C2ED8117
:10134000FE81E035F10509F449C02D813E81283543
:10135000310509F46EC08D819E818834910599F123
:1013600005C20E945E08A6E5B0E0E6E5F0E08081F7
:101370008F7D8C93FBC10E945E08A6E5B0E0E6E598
:10138000F0E080818F7D8C93F1C1809195009091E8
:1013900096009C012150304080918B0090918C00F0
:1013A0008217930740F4A6E5B0E0E6E5F0E080811F
:1013B00085688C93DBC1A6E5B0E0E6E5F0E08081CE
:1013C000846C8C93D3C181E080938E00A6E5B0E05D
:1013D000E6E5F0E0808184698C93C8C120918B00A0
:1013E00030918C00809195009091960028173907D4
:1013F00051F410928E00A6E5B0E0E6E5F0E08081C1
:1014000085688C93B3C18091900090919100009178
:101410008B0010918C007C01E00EF11E0E948B0865
:10142000F7018083C801019690938C0080938B0014
:101430009DC181E080938E00A6E5B0E0E6E5F0E096
:10144000808184698C9392C182E080938E00A6E5AE
:10145000B0E0E6E5F0E0808184698C9387C10E946A
:101460003408282F30E03C832B838B819C81883289
:101470009105B1F1EB81FC81E932F10584F42B8116
:101480003C812031310579F18B819C818831910536
:1014900011F1EB81FC81E830F10599F067C12B81F6
:1014A0003C812035310509F445C08B819C8188350C
:1014B000910509F478C0EB81FC81E034F105E9F095
:1014C00055C10E945108A6E5B0E0E6E5F0E0808154
:1014D0008F7D8C934BC1809192000E946F0846C112
:1014E0000E94430843C10E945E08A6E5B0E0E6E51D
:1014F000F0E080818F7D8C9339C180919000909134
:10150000910000918B0010918C007C01E00EF11E87
:101510000E948B08F7018083C801019690938C008C
:1015200080938B00A6E5B0E0E6E5F0E08081846C76
:101530008C931CC1809190009091910000918B0040
:1015400010918C007C01E00EF11E0E948B08F701C7
:101550008083C801019690938C0080938B0020912A
:101560008B0030918C008091950090919600281707
:10157000390789F4A6E5B0E0E6E5F0E0808185680A
:101580008C93A6E5B0E0E6E5F0E0808184698C9379
:1015900010928E00EBC0A6E5B0E0E6E5F0E08081B9
:1015A000846C8C93E3C080919000909191000091A5
:1015B0008B0010918C007C01E00EF11E0E948B08C4
:1015C000F7018083C801019690938C0080938B0073
:1015D00010928E00A6E5B0E0E6E5F0E08081846937
:1015E0008C93C4C00E943408282F30E03A832983AA
:1015F00089819A818032910509F458C0E981FA8184
:10160000E132F10584F429813A8120313105E9F094
:1016100089819A818831910561F1E981FA81E83007
:10162000F105E9F0A3C029813A812033310509F49D
:101630007AC089819A818833910509F48DC0E98146
:10164000FA81E832F105E9F191C00E945E08A6E551
:10165000B0E0E6E5F0E080818F7D8C9387C00E944A
:101660005108A6E5B0E0E6E5F0E080818F7D8C933F
:101670007DC08091930090919400209187003091DB
:101680008800FC01E20FF31F4081C901019690938D
:10169000880080938700842F0E946F08A6E5B0E041
:1016A000E6E5F0E0808185688C9360C081E08093FE
:1016B0008E00A6E5B0E0E6E5F0E0808184698C93D9
:1016C00055C02091870030918800809189009091C9
:1016D0008A002817390751F410928E00A6E5B0E071
:1016E000E6E5F0E0808184698C9340C080919300AE
:1016F000909194002091870030918800FC01E20FC6
:10170000F31F4081C9010196909388008093870060
:10171000842F0E946F08A6E5B0E0E6E5F0E0808146
:1017200085688C9323C02091870030918800809138
:10173000890090918A002817390719F410928E00B9
:1017400003C081E080938E00A6E5B0E0E6E5F0E01E
:10175000808184698C930AC082E080938E00A6E524
:10176000B0E0E6E5F0E0808184698C9380918E00A2
:10177000843011F010928D002896DEBFCDBFCF913E
:10178000DF91FF91EF91BF91AF919F918F917F91E9
:101790006F915F914F913F912F911F910F91FF900A
:1017A000EF900F900FBE0F901F901895DF93CF937F
:1017B000CDB7DEB7A0970FB6F894DEBF0FBECDBF92
:1017C000CE0146969D8F8C8FE0E8F0E0FF8FEE8F84
:1017D000F6E0F8A3EE8DFF8D00808E8D9F8D019633
:1017E0009F8F8E8FEC8DFD8D00828C8D9D8D01964F
:1017F0009D8F8C8F98A1915098A3E8A1EE2351F76B
:1018000086E08F87AFE5B0E0EFE5F0E080818068AB
:101810008C9380E060E041E00E94BC058F85282F1A
:1018200030E0CE014696B90140E50E94C50880E04F
:1018300090E0AAE7B3E48B879C87AD87BE876B8572
:101840007C858D859E8520E030E04AEF54E40E943F
:101850001F02DC01CB018F839887A987BA876F812C
:10186000788589859A8520E030E040E85FE30E9432
:10187000790388232CF481E090E09E838D833FC020
:101880006F81788589859A8520E03FEF4FE757E49F
:101890000E94190318164CF56B857C858D859E85F5
:1018A00020E030E040E251E40E941F02DC01CB0165
:1018B000BC01CD010E944900DC01CB019E838D83D8
:1018C0000FC088EC90E09C838B838B819C81019777
:1018D000F1F79C838B838D819E8101979E838D83FD
:1018E0008D819E81009769F714C06F817885898505
:1018F0009A850E944900DC01CB019E838D838D81F6
:101900009E819A83898389819A810197F1F79A83CD
:1019100089838F85282F30E080E5B90140E00E945F
:101920000009FFCF2F923F924F925F926F927F926A
:101930008F929F92AF92BF92CF92DF92EF92FF92DF
:101940000F931F93CF93DF93CDB7DEB7CA1BDB0B8B
:101950000FB6F894DEBF0FBECDBF09942A88398830
:1019600048885F846E847D848C849B84AA84B98437
:10197000C884DF80EE80FD800C811B81AA81B98143
:10198000CE0FD11D0FB6F894DEBF0FBECDBFED0157
:061990000895F894FFCF5A
:10199600000000000000000039003600330030006F
:1019A6003A003700340031003B0038003500320081
:0619B600006B6172696D17
:00000001FF
