:100000000C942A000C9447000C9447000C94470071
:100010000C9447000C9447000C9447000C94D12A90
:100020000C9447000C9447000C9447000C94470034
:100030000C9447000C9447000C9447000C94470024
:100040000C9447000C9447000C9447000C94470014
:100050000C94470011241FBECFE5D8E0DEBFCDBF12
:1000600011E0A0E6B0E0E8E3FDE702C005900D92E4
:10007000A039B107D9F715E0A0E9B1E001C01D92A0
:10008000A33FB107E1F70E94C0270C949A3E0C945D
:100090000000EF92FF920F931F937B018C0120E0F1
:1000A00030E040E05FE40E94F50388238CF0C80153
:1000B000B70120E030E040E05FE40E94C1010E940F
:1000C000B3049B01AC01205030404040504806C072
:1000D000C801B7010E94B3049B01AC01B901CA0178
:1000E0001F910F91FF90EF900895A0E0B0E0EBE733
:1000F000F0E00C945A3EDC012B01FA019C91923005
:1001000008F439C1EB018881823008F433C194309E
:1001100069F4843009F02FC111969C91119789815F
:10012000981709F428C1AFE6B0E025C1843009F47E
:1001300021C18230A9F4923009F01DC19A01AD01AC
:1001400088E0EA010990AE01E90109929E0181501F
:10015000C1F7E201898111969C918923818308C1AD
:10016000923009F407C112962D903C901397EB0141
:100170008A819B811496AD90BD90CD90DC901797AD
:10018000EC80FD800E811F819101281B390BB90184
:1001900037FF04C066277727621B730B6032710537
:1001A0000CF061C0121613066CF537014801062EDB
:1001B00004C096948794779467940A94D2F721E0C8
:1001C00030E040E050E004C0220F331F441F551FB1
:1001D0006A95D2F721503040404050402E213F21B7
:1001E00040235123211531054105510521F021E01E
:1001F00030E040E050E079018A01E628F72808293C
:1002000019293CC0232BD1F1260E371E350146019A
:10021000062E04C096948794779467940A94D2F734
:1002200021E030E040E050E004C0220F331F441FC3
:10023000551F6A95D2F721503040404050402A2146
:100240003B214C215D21211531054105510521F04E
:1002500021E030E040E050E059016A01A628B728CB
:10026000C828D9280BC0821593052CF01C01AA249C
:10027000BB24650103C0EE24FF24870111969C91E5
:10028000D20111968C91981709F445C0992339F041
:10029000A80197012A193B094C095D0906C0A6016E
:1002A00095012E193F09400B510B57FD08C01182D3
:1002B0003382228224833583468357831DC081E0A5
:1002C00081833382228288279927DC01821B930B4A
:1002D000A40BB50B84839583A683B7830DC0220F2F
:1002E000331F441F551F24833583468357838281E0
:1002F000938101979383828324813581468157813D
:10030000DA01C9010197A109B1098F5F9F4FAF4F72
:10031000BF4328F30BC0918333822282EA0CFB1C7B
:100320000C1D1D1DE482F5820683178383E0808304
:10033000248135814681578157FF1AC0C901AA27F8
:1003400097FDA095BA2F81709070A070B0705695EF
:10035000479537952795822B932BA42BB52B848318
:100360009583A683B7838281938101969383828349
:10037000DF0101C0D201CD01CDB7DEB7E2E10C94BF
:10038000763EA0E2B0E0E7ECF1E00C94663E6983D3
:100390007A838B839C832D833E834F835887E9E048
:1003A000EE2EF12CEC0EFD1ECE010196B7010E943F
:1003B0002B068E010F5E1F4FCE010596B8010E94DD
:1003C0002B068A8991E089278A8BC701B801AE0183
:1003D000475E5F4F0E9475000E945605A096E6E0BA
:1003E0000C94823EA0E2B0E0E8EFF1E00C94663EAF
:1003F00069837A838B839C832D833E834F835887C5
:10040000F9E0EF2EF12CEC0EFD1ECE010196B701A6
:100410000E942B068E010F5E1F4FCE010596B8017C
:100420000E942B06C701B801AE01475E5F4F0E94D4
:1004300075000E945605A096E6E00C94823EA0E26C
:10044000B0E0E5E2F2E00C945A3E69837A838B8354
:100450009C832D833E834F835887CE010196BE0136
:10046000675F7F4F0E942B06CE010596BE016F5E2F
:100470007F4F0E942B069985923088F089898230BF
:10048000C8F0943019F4823051F404C0843029F457
:10049000923081F48FE690E0C6C0923049F420E0BB
:1004A0009A858A89981321E02A87CE010996BBC0D4
:1004B000823049F420E09A858A89981321E02A8BBA
:1004C000CE014196B0C02D843E844F8458886D88FB
:1004D0007E888F88988CEE24FF248701AA24BB2471
:1004E000650140E050E060E070E0E0E0F0E0C10174
:1004F00081709070892BE9F0E60CF71C081D191D1E
:100500009A01AB012A0D3B1D4C1D5D1D80E090E062
:10051000A0E0B0E0E614F7040805190520F481E036
:1005200090E0A0E0B0E0BA01A901480F591F6A1F8E
:100530007B1FAA0CBB1CCC1CDD1C97FE08C081E0F5
:1005400090E0A0E0B0E0A82AB92ACA2ADB2A3196B6
:10055000E032F10549F0660C771C881C991C569412
:10056000479437942794C3CFFA85EA892B893C892D
:100570008B859C85280F391F2E5F3F4F17C0CA01FE
:1005800081709070892B61F016950795F794E79428
:1005900080E090E0A0E0B0E8E82AF92A0A2B1B2BC3
:1005A00076956795579547952F5F3F4F77FDE7CF36
:1005B0000CC0440F551F661F771F17FD4160EE0CDE
:1005C000FF1C001F111F21503040403090E05907A0
:1005D00090E0690790E4790760F32B8F3C8FDB0193
:1005E000CA018F779070A070B07080349105A1051A
:1005F000B10561F447FD0AC0E114F10401051105DC
:1006000029F0405C5F4F6F4F7F4F40781A8EFE1786
:1006100011F081E08A8F4D8F5E8F6F8F78A383E01A
:10062000898FCE0149960E945605A096E2E10C946E
:10063000763EA8E1B0E0EFE1F3E00C94623E69831E
:100640007A838B839C832D833E834F835887B9E0C5
:10065000EB2EF12CEC0EFD1ECE010196B7010E948F
:100660002B068E010F5E1F4FCE010596B8010E942A
:100670002B062985223008F47EC03989323010F4E7
:10068000B8017CC08A859A8989278A87243011F02D
:10069000223031F4231709F06EC06FE670E06EC0AF
:1006A000343039F41D861E861F86188A1C861B86E8
:1006B00004C0323021F484E08987B7015FC02B8504
:1006C0003C858B899C89281B390B3C872B87ED84C3
:1006D000FE840F851889AD88BE88CF88D88CEA142F
:1006E000FB040C051D0540F4EE0CFF1C001F111F40
:1006F000215030403C872B8720E030E040E050E044
:1007000080E090E0A0E0B0E460E070E0EA14FB0478
:100710000C051D0540F0282B392B4A2B5B2BEA18C2
:10072000FB080C091D09B695A79597958795EE0CC2
:10073000FF1C001F111F6F5F7F4F6F31710531F775
:10074000DA01C9018F779070A070B0708034910584
:10075000A105B10561F427FD0AC0E114F10401050A
:10076000110529F0205C3F4F4F4F5F4F20782D87B8
:100770003E874F87588BBE01675F7F4FCB010E943A
:1007800056056896EAE00C947E3EA8E1B0E0EBECFA
:10079000F3E00C94663E69837A838B839C832D837C
:1007A0003E834F83588789E0E82EF12CEC0EFD1E26
:1007B000CE010196B7010E942B068E010F5E1F4FDE
:1007C000CE010596B8010E942B068985823040F043
:1007D0008989823028F0C701B8010E94A30601C0B0
:1007E0008FEF6896E6E00C94823EA8E1B0E0EBEF74
:1007F000F3E00C94663E69837A838B839C832D831C
:100800003E834F83588789E0E82EF12CEC0EFD1EC5
:10081000CE010196B7010E942B068E010F5E1F4F7D
:10082000CE010596B8010E942B068985823040F0E2
:100830008989823028F0C701B8010E94A30601C04F
:100840008FEF6896E6E00C94823EA8E1B0E0EBE220
:10085000F4E00C94663E69837A838B839C832D83BA
:100860003E834F83588789E0E82EF12CEC0EFD1E65
:10087000CE010196B7010E942B068E010F5E1F4F1D
:10088000CE010596B8010E942B068985823040F082
:100890008989823028F0C701B8010E94A30601C0EF
:1008A00081E06896E6E00C94823EA8E0B0E0EBE5DB
:1008B000F4E00C94633E9B01AC0183E08983DA0190
:1008C000C9018827B7FD83959927AA27BB27B82E8A
:1008D000211531054105510519F482E089833AC09B
:1008E0008823A9F0203080E0380780E0480780E8BE
:1008F000580729F460E070E080E09FEC30C0EE24FF
:10090000FF248701E21AF30A040B150B02C07901D8
:100910008A018EE1C82ED12CDC82CB82ED82FE8250
:100920000F831887C801B7010E94070501971816A1
:10093000190684F4082E04C0EE0CFF1C001F111FC2
:100940000A94D2F7ED82FE820F831887C81AD90A5B
:10095000DC82CB82BA82CE0101960E94560528968F
:10096000E9E00C947F3EACE0B0E0E9EBF4E00C94FD
:100970006A3E69837A838B839C83CE010196BE0194
:100980006B5F7F4F0E942B068D81823061F1823038
:1009900050F1843021F48E81882351F12EC02F81B3
:1009A000388537FD20C06E812F3131051CF066235C
:1009B000F9F023C08EE190E0821B930B29853A85E4
:1009C0004B855C8504C056954795379527958A9544
:1009D000D2F76623B1F050954095309521953F4F61
:1009E0004F4F5F4F0EC020E030E040E050E009C0C4
:1009F0002FEF3FEF4FEF5FE704C020E030E040E033
:100A000050E8B901CA012C96E2E00C94863EEF92C0
:100A1000FF920F931F937B018C0180E0E81680E02A
:100A2000F80681E0080780E0180788F48FEFE816E1
:100A3000F1040105110531F028F088E090E0A0E014
:100A4000B0E017C080E090E0A0E0B0E012C080E02D
:100A5000E81680E0F80680E0080781E0180728F033
:100A600088E190E0A0E0B0E004C080E190E0A0E088
:100A7000B0E020E230E040E050E0281B390B4A0BA8
:100A80005B0B04C016950795F794E7948A95D2F707
:100A9000F701E958FF4F8081281B310941095109AD
:100AA000C9011F910F91FF90EF900895DF92EF928F
:100AB000FF920F931F93FC01E480F580068117815C
:100AC000D1808081823048F480E090E0A0E1B0E005
:100AD000E82AF92A0A2B1B2BA5C0843009F49FC0F1
:100AE000823021F4EE24FF24870105C0E114F104D3
:100AF0000105110519F4E0E0F0E096C06281738110
:100B00009FEF623879070CF05BC022E83FEF261BAD
:100B1000370B2A3131052CF020E030E040E050E086
:100B20002AC0B801A701022E04C076956795579593
:100B300047950A94D2F781E090E0A0E0B0E004C0CD
:100B4000880F991FAA1FBB1F2A95D2F70197A109E9
:100B5000B1098E219F21A023B1230097A105B105E2
:100B600021F081E090E0A0E0B0E09A01AB01282BF9
:100B7000392B4A2B5B2BDA01C9018F779070A0705B
:100B8000B07080349105A105B10539F427FF09C083
:100B9000205C3F4F4F4F5F4F04C0215C3F4F4F4F92
:100BA0005F4FE0E0F0E02030A0E03A07A0E04A0725
:100BB000A0E45A0710F0E1E0F0E079018A0127C0D3
:100BC0006038710564F5FB01E158FF4FD801C7019A
:100BD0008F779070A070B07080349105A105B10539
:100BE00039F4E7FE0DC080E490E0A0E0B0E004C07E
:100BF0008FE390E0A0E0B0E0E80EF91E0A1F1B1F93
:100C000017FF05C016950795F794E794319687E08E
:100C100016950795F794E7948A95D1F705C0EE24C9
:100C2000FF248701EFEFF0E06E2F67956627679549
:100C3000902F9F77D794DD24D7948E2F8695492FB8
:100C4000462B582F5D29B701CA011F910F91FF90C4
:100C5000EF90DF900895FC01DB01408151812281FA
:100C6000622F6F7770E0221F2227221F9381892F26
:100C7000880F822B282F30E0991F9927991F1196F2
:100C80009C93119721153105A9F541155105610571
:100C9000710511F482E037C082E89FEF13969C93B0
:100CA0008E9312979A01AB0167E0220F331F441F06
:100CB000551F6A95D1F783E08C930DC0220F331F27
:100CC000441F551F12968D919C911397019713966F
:100CD0009C938E931297203080E0380780E048077D
:100CE00080E4580758F314962D933D934D935C93ED
:100CF000179708952F3F310579F441155105610586
:100D0000710519F484E08C93089564FF03C081E0B9
:100D10008C9312C01C9210C02F57304013963C93F6
:100D20002E93129783E08C9387E0440F551F661F24
:100D3000771F8A95D1F7706414964D935D936D93E8
:100D40007C93179708951F93DC01FB019C919230CF
:100D500008F447C08081823008F443C0943051F4D5
:100D600011961C91843099F58181682F70E0611B88
:100D700071093FC0843021F0923031F48230B9F1F2
:100D80008181882389F12DC011961C9111978230A1
:100D9000F1F081811817D9F412962D913C91139797
:100DA000828193818217930794F028173907BCF04A
:100DB00014968D919D910D90BC91A02D248135812B
:100DC00046815781281739074A075B0718F4112312
:100DD00041F00AC082179307A407B50740F4112316
:100DE00019F061E070E005C06FEF7FEF02C060E0D6
:100DF00070E0CB011F910895DF93CF9300D0CDB762
:100E0000DEB789836A838981882F90E0880F991FD4
:100E1000FC01E158FE4F0190F081E02D8A81808332
:100E20000F900F90CF91DF910895DF93CF9300D073
:100E30000F92CDB7DEB789836A834B838B81813074
:100E400029F58981882F90E0880F991FFC01E158CE
:100E5000FE4FA081B1818981882F90E0880F991F72
:100E6000FC01E158FE4F0190F081E02D8081482F78
:100E70008A81282F30E081E090E0022E02C0880FA6
:100E8000991F0A94E2F7842B8C9325C08981882FBF
:100E900090E0880F991FFC01E158FE4FA081B181BD
:100EA0008981882F90E0880F991FFC01E158FE4F3F
:100EB0000190F081E02D8081482F8A81282F30E039
:100EC00081E090E0022E02C0880F991F0A94E2F799
:100ED000809584238C930F900F900F90CF91DF918A
:100EE0000895DF93CF930F92CDB7DEB789838981C1
:100EF000882F90E0880F991FFC01E158FE4F019068
:100F0000F081E02D10828981882F90E0880F991F51
:100F1000FC01E957FE4F0190F081E02D8FEF8083B7
:100F20000F90CF91DF910895DF93CF9300D0CDB78D
:100F3000DEB789836A838981882F90E0880F991FA3
:100F4000FC01E158FE4FA081B1818981882F90E09A
:100F5000880F991FFC01E158FE4F0190F081E02DB0
:100F60008081482F8A81282F30E081E090E002C004
:100F7000880F991F2A95E2F7809584238C938981A5
:100F8000882F90E0880F991FFC01E957FE4FA08140
:100F9000B1818981882F90E0880F991FFC01E95762
:100FA000FE4F0190F081E02D8081482F8A81282F0B
:100FB00030E081E090E0022E02C0880F991F0A9471
:100FC000E2F7842B8C930F900F90CF91DF910895CF
:100FD000DF93CF930F92CDB7DEB789838981882FB6
:100FE00090E0880F991FFC01E957FE4F0190F081B6
:100FF000E02D8FEF80830F90CF91DF910895DF93E5
:10100000CF930F92CDB7DEB789838981882F90E087
:10101000880F991FFC01E957FE4F0190F081E02DE8
:1010200010820F90CF91DF910895DF93CF9300D07E
:10103000CDB7DEB789836A838981882F90E0880FD6
:10104000991FFC01E957FE4F0190F081E02D8A8144
:1010500080830F900F90CF91DF910895DF93CF930E
:101060000F92CDB7DEB789838981882F90E0880FF2
:10107000991FFC01E957FE4FA081B1818981882F1A
:1010800090E0880F991FFC01E957FE4F0190F08115
:10109000E02D808180958C930F90CF91DF91089502
:1010A000DF93CF9300D0CDB7DEB789836A83898180
:1010B000882F90E0880F991FFC01E957FE4FA0810F
:1010C000B1818981882F90E0880F991FFC01E95731
:1010D000FE4F0190F081E02D8081482F8A81282FDA
:1010E00030E081E090E0022E02C0880F991F0A9440
:1010F000E2F7842B8C930F900F90CF91DF9108959E
:10110000DF93CF9300D0CDB7DEB789836A8389811F
:10111000882F90E0880F991FFC01E957FE4FA081AE
:10112000B1818981882F90E0880F991FFC01E957D0
:10113000FE4F0190F081E02D8081482F8A81282F79
:1011400030E081E090E0022E02C0880F991F0A94DF
:10115000E2F7809584238C930F900F90CF91DF91CD
:101160000895DF93CF9300D00F92CDB7DEB7898378
:101170006A834B838B81813029F58981882F90E0A8
:10118000880F991FFC01E957FE4FA081B181898129
:10119000882F90E0880F991FFC01E957FE4F0190BE
:1011A000F081E02D8081482F8A81282F30E081E076
:1011B00090E0022E02C0880F991F0A94E2F7842B58
:1011C0008C9325C08981882F90E0880F991FFC019E
:1011D000E957FE4FA081B1818981882F90E0880F67
:1011E000991FFC01E957FE4F0190F081E02D8081AD
:1011F000482F8A81282F30E081E090E0022E02C043
:10120000880F991F0A94E2F7809584238C930F909E
:101210000F900F90CF91DF910895DF93CF9300D07F
:10122000CDB7DEB789836A838981882F90E0880FE4
:10123000991FFC01E957FE4FA081B1818981882F58
:1012400090E0880F991FFC01E957FE4F0190F08153
:10125000E02D8081482F8A81282F30E081E090E0C6
:10126000022E02C0880F991F0A94E2F784278C93FC
:101270000F900F90CF91DF910895DF93CF930F924E
:10128000CDB7DEB789838981882F90E0880F991FB9
:10129000FC01E958FE4F0190F081E02D80810F9014
:1012A000CF91DF910895DF93CF9300D0CDB7DEB714
:1012B00089836A838981882F90E0880F991FFC01B8
:1012C000E958FE4F0190F081E02D8081282F30E019
:1012D0008A81882F90E0A90102C0559547958A958B
:1012E000E2F7CA0181700F900F90CF91DF910895BE
:1012F000DF93CF9300D000D000D0CDB7DEB79D8371
:101300008C836E831B828E8181508A832CC08B815B
:10131000282F30E08C819D81FC01E20FF31F80813A
:1013200089838B81282F30E08C819D81DC01A20F85
:10133000B31F8A81282F30E08C819D81FC01E20F50
:10134000F31F80818C938A81282F30E08C819D81CE
:10135000FC01E20FF31F898180838B818F5F8B8378
:101360008A8181508A839B818A81981780F2269690
:101370000FB6F894DEBF0FBECDBFCF91DF910895B9
:10138000DF93CF9300D000D00F92CDB7DEB78D831F
:1013900081E090E0A0E0B0E089839A83AB83BC83D6
:1013A00015C089819A81AB81BC812AE030E040E0A0
:1013B00050E0BC01CD010E94FE3DDC01CB018983E0
:1013C0009A83AB83BC838D8181508D838D818823EB
:1013D00041F789819A81AB81BC81BC01CD010F901D
:1013E0000F900F900F900F90CF91DF910895DF93A2
:1013F000CF93CDB7DEB7E1970FB6F894DEBF0FBE3F
:10140000CDBF89AB83E062E00E94500883E061E0D9
:101410000E94800880E090E0A8E4B2E48DA79EA737
:10142000AFA7B8AB6DA57EA58FA598A92BEA3AEA20
:101430004AE250E40E941F02DC01CB0189A79AA76F
:10144000ABA7BCA769A57AA58BA59CA520E030E039
:1014500040E85FE30E94250488231CF481E088A70C
:1014600091C069A57AA58BA59CA520E030E04FE747
:1014700053E40E94C50318160CF07BC06DA57EA531
:101480008FA598A920E030E04AE754E40E941903B0
:10149000DC01CB018CA39DA3AEA3BFA36CA17DA156
:1014A0008EA19FA120E030E04AEF54E40E941F0289
:1014B000DC01CB0188A399A3AAA3BBA368A179A14E
:1014C0008AA19BA120E030E040E85FE30E94250470
:1014D00088232CF481E090E09F8F8E8F3FC068A11D
:1014E00079A18AA19BA120E03FEF4FE757E40E943A
:1014F000C50318164CF56CA17DA18EA19FA120E01B
:1015000030E040E251E40E941F02DC01CB01BC014B
:10151000CD010E944900DC01CB019F8F8E8F0FC04F
:1015200088EC90E09D8F8C8F8C8D9D8D0197F1F7CD
:101530009D8F8C8F8E8D9F8D01979F8F8E8F8E8D1F
:101540009F8D009769F724C068A179A18AA19BA10A
:101550000E944900DC01CB019F8F8E8F8E8D9F8D65
:101560009B8F8A8F8A8D9B8D0197F1F79B8F8A8F36
:101570000FC069A57AA58BA59CA50E944900DC0136
:10158000CB0188A788A5898F898D8A95F1F7898FE6
:1015900083E060E00E94500880E090E0A8E4B2E4BC
:1015A0008D8B9E8BAF8BB88F6D897E898F89988D3F
:1015B0002BEA3AEA4AE250E40E941F02DC01CB0126
:1015C000898B9A8BAB8BBC8B69897A898B899C8937
:1015D00020E030E040E85FE30E94250488231CF40B
:1015E00081E0888B91C069897A898B899C8920E008
:1015F00030E04FE753E40E94C50318160CF07BC09F
:101600006D897E898F89988D20E030E04AE754E427
:101610000E941903DC01CB018C879D87AE87BF87B1
:101620006C857D858E859F8520E030E04AEF54E40F
:101630000E941F02DC01CB0188879987AA87BB879C
:10164000688579858A859B8520E030E040E85FE306
:101650000E94250488232CF481E090E09F838E83F0
:101660003FC0688579858A859B8520E03FEF4FE7FD
:1016700057E40E94C50318164CF56C857D858E8550
:101680009F8520E030E040E251E40E941F02DC012F
:10169000CB01BC01CD010E944900DC01CB019F833D
:1016A0008E830FC088EC90E09D838C838C819D811C
:1016B0000197F1F79D838C838E819F8101979F8392
:1016C0008E838E819F81009769F724C06885798514
:1016D0008A859B850E944900DC01CB019F838E8314
:1016E0008E819F819B838A838A819B810197F1F7F9
:1016F0009B838A830FC069897A898B899C890E9420
:101700004900DC01CB01888B8889898389818A958E
:10171000F1F7898383E060E00E948008E1960FB6CC
:10172000F894DEBF0FBECDBFCF91DF910895DF9358
:10173000CF93CDB7DEB7E1970FB6F894DEBF0FBEFB
:10174000CDBF89AB83E062E00E94800883E061E066
:101750000E94800880E090E0A0E8BFE38DA79EA7EC
:10176000AFA7B8AB6DA57EA58FA598A92BEA3AEADD
:101770004AE250E40E941F02DC01CB0189A79AA72C
:10178000ABA7BCA769A57AA58BA59CA520E030E0F6
:1017900040E85FE30E94250488231CF481E088A7C9
:1017A00091C069A57AA58BA59CA520E030E04FE704
:1017B00053E40E94C50318160CF07BC06DA57EA5EE
:1017C0008FA598A920E030E04AE754E40E9419036D
:1017D000DC01CB018CA39DA3AEA3BFA36CA17DA113
:1017E0008EA19FA120E030E04AEF54E40E941F0246
:1017F000DC01CB0188A399A3AAA3BBA368A179A10B
:101800008AA19BA120E030E040E85FE30E9425042C
:1018100088232CF481E090E09F8F8E8F3FC068A1D9
:1018200079A18AA19BA120E03FEF4FE757E40E94F6
:10183000C50318164CF56CA17DA18EA19FA120E0D7
:1018400030E040E251E40E941F02DC01CB01BC0108
:10185000CD010E944900DC01CB019F8F8E8F0FC00C
:1018600088EC90E09D8F8C8F8C8D9D8D0197F1F78A
:101870009D8F8C8F8E8D9F8D01979F8F8E8F8E8DDC
:101880009F8D009769F724C068A179A18AA19BA1C7
:101890000E944900DC01CB019F8F8E8F8E8D9F8D22
:1018A0009B8F8A8F8A8D9B8D0197F1F79B8F8A8FF3
:1018B0000FC069A57AA58BA59CA50E944900DC01F3
:1018C000CB0188A788A5898F898D8A95F1F7898FA3
:1018D00083E060E00E94500880E090E0A0E8BFE371
:1018E0008D8B9E8BAF8BB88F6D897E898F89988DFC
:1018F0002BEA3AEA4AE250E40E941F02DC01CB01E3
:10190000898B9A8BAB8BBC8B69897A898B899C89F3
:1019100020E030E040E85FE30E94250488231CF4C7
:1019200081E0888B91C069897A898B899C8920E0C4
:1019300030E04FE753E40E94C50318160CF07BC05B
:101940006D897E898F89988D20E030E04AE754E4E4
:101950000E941903DC01CB018C879D87AE87BF876E
:101960006C857D858E859F8520E030E04AEF54E4CC
:101970000E941F02DC01CB0188879987AA87BB8759
:10198000688579858A859B8520E030E040E85FE3C3
:101990000E94250488232CF481E090E09F838E83AD
:1019A0003FC0688579858A859B8520E03FEF4FE7BA
:1019B00057E40E94C50318164CF56C857D858E850D
:1019C0009F8520E030E040E251E40E941F02DC01EC
:1019D000CB01BC01CD010E944900DC01CB019F83FA
:1019E0008E830FC088EC90E09D838C838C819D81D9
:1019F0000197F1F79D838C838E819F8101979F834F
:101A00008E838E819F81009769F724C068857985D0
:101A10008A859B850E944900DC01CB019F838E83D0
:101A20008E819F819B838A838A819B810197F1F7B5
:101A30009B838A830FC069897A898B899C890E94DC
:101A40004900DC01CB01888B8889898389818A954B
:101A5000F1F7898382E069A90E94150883E060E0BC
:101A60000E948008E1960FB6F894DEBF0FBECDBF8E
:101A7000CF91DF9108950F931F93DF93CF93CDB74D
:101A8000DEB7C356D0400FB6F894DEBF0FBECDBF51
:101A9000FE01ED59FF4F808383E062E00E94500811
:101AA00083E061E00E948008FE01E35AFF4F80E07E
:101AB00090E0A0E8BFE380839183A283B3838E018B
:101AC000075A1F4FFE01E35AFF4F608171818281E7
:101AD00093812BEA3AEA4AE250E40E941F02DC01B9
:101AE000CB01F80180839183A283B383FE01E75A7F
:101AF000FF4F608171818281938120E030E040E876
:101B00005FE30E942504882334F4FE01E85AFF4F66
:101B100081E08083E0C0FE01E75AFF4F6081718160
:101B20008281938120E030E04FE753E40E94C503B7
:101B300018160CF0C0C0FE01E35AFF4F608171819E
:101B40008281938120E030E04AE754E40E94190347
:101B5000DC01CB01FE01EC5AFF4F80839183A2830D
:101B6000B3838E01005B1F4FFE01EC5AFF4F608173
:101B700071818281938120E030E04AEF54E40E9439
:101B80001F02DC01CB01F80180839183A283B38320
:101B9000FE01E05BFF4F608171818281938120E0D3
:101BA00030E040E85FE30E942504882344F4FE010E
:101BB000E25BFF4F81E090E09183808364C0FE018F
:101BC000E05BFF4F608171818281938120E03FEF74
:101BD0004FE757E40E94C50318160CF043C0FE01FE
:101BE000EC5AFF4F608171818281938120E030E067
:101BF00040E251E40E941F02DC01CB018E01025B36
:101C00001F4FBC01CD010E944900DC01CB01F8014E
:101C1000918380831FC0FE01E45BFF4F88EC90E05E
:101C200091838083FE01E45BFF4F80819181019766
:101C3000F1F7FE01E45BFF4F91838083DE01A25B3D
:101C4000BF4FFE01E25BFF4F8081918101971196AA
:101C50009C938E93FE01E25BFF4F80819181009700
:101C6000D1F64BC08E01025B1F4FFE01E05BFF4FC0
:101C700060817181828193810E944900DC01CB01E6
:101C8000F80191838083DE01A65BBF4FFE01E25B1A
:101C9000FF4F8081918111969C938E93FE01E65BAC
:101CA000FF4F808191810197F1F7FE01E65BFF4FC5
:101CB0009183808322C08E01085A1F4FFE01E75A8C
:101CC000FF4F60817181828193810E944900DC0114
:101CD000CB01F8018083DE01A75BBF4FFE01E85A0C
:101CE000FF4F80818C93FE01E75BFF4F80818A95D7
:101CF000F1F7FE01E75BFF4F808383E060E00E9425
:101D00005008FE01EB5BFF4F80E090E0A0E8BFE3EE
:101D100080839183A283B3838E010F5B1F4FFE01EB
:101D2000EB5BFF4F60817181828193812BEA3AEAFC
:101D30004AE250E40E941F02DC01CB01F8018083DB
:101D40009183A283B383FE01EF5BFF4F60817181BA
:101D50008281938120E030E040E85FE30E94250427
:101D6000882334F481E0FE01E05CFF4F80839DC056
:101D7000FE01EF5BFF4F608171818281938120E0E2
:101D800030E04FE753E40E94C50318160CF07EC004
:101D9000FE01EB5BFF4F608171818281938120E0C6
:101DA00030E04AE754E40E941903DC01CB018CAF18
:101DB0009DAFAEAFBFAF6CAD7DAD8EAD9FAD20E042
:101DC00030E04AEF54E40E941F02DC01CB0188AFEF
:101DD00099AFAAAFBBAF68AD79AD8AAD9BAD20E03E
:101DE00030E040E85FE30E94250488232CF481E082
:101DF00090E09FAB8EAB3FC068AD79AD8AAD9BAD37
:101E000020E03FEF4FE757E40E94C50318164CF55A
:101E10006CAD7DAD8EAD9FAD20E030E040E251E491
:101E20000E941F02DC01CB01BC01CD010E944900D0
:101E3000DC01CB019FAB8EAB0FC088EC90E09DAB7B
:101E40008CAB8CA99DA90197F1F79DAB8CAB8EA9AA
:101E50009FA901979FAB8EAB8EA99FA9009769F7A9
:101E60002DC068AD79AD8AAD9BAD0E944900DC0103
:101E7000CB019FAB8EAB8EA99FA99BAB8AAB8AA9E6
:101E80009BA90197F1F79BAB8AAB18C0FE01EF5BF2
:101E9000FF4F60817181828193810E944900DC0142
:101EA000CB01FE01E05CFF4F8083FE01E05CFF4F51
:101EB000808189AB89A98A95F1F789ABFE01EE593A
:101EC000FF4F84E0808326C0FE01ED59FF4F8081E3
:101ED000282F30E0FE01EE59FF4F8081882F90E0DF
:101EE000A90102C0559547958A95E2F7CA01982F36
:101EF0009170FE01EE59FF4F82E06081492F0E94F0
:101F0000B108DE01AE59BF4FFE01EE59FF4F80818F
:101F10008F5F8C93FE01EE59FF4F80818830A0F2D5
:101F200083E060E00E94800880E090E0A0E2B1E4FD
:101F30008DA79EA7AFA7B8AB6DA57EA58FA598A9C5
:101F40002BEA3AEA4AE250E40E941F02DC01CB018C
:101F500089A79AA7ABA7BCA769A57AA58BA59CA5BD
:101F600020E030E040E85FE30E94250488231CF471
:101F700081E088A791C069A57AA58BA59CA520E0E2
:101F800030E04FE753E40E94C50318160CF07BC005
:101F90006DA57EA58FA598A920E030E04AE754E41E
:101FA0000E941903DC01CB018CA39DA3AEA3BFA3A8
:101FB0006CA17DA18EA19FA120E030E04AEF54E406
:101FC0000E941F02DC01CB0188A399A3AAA3BBA393
:101FD00068A179A18AA19BA120E030E040E85FE3FD
:101FE0000E94250488232CF481E090E09F8F8E8F3F
:101FF0003FC068A179A18AA19BA120E03FEF4FE7F4
:1020000057E40E94C50318164CF56CA17DA18EA162
:102010009FA120E030E040E251E40E941F02DC0179
:10202000CB01BC01CD010E944900DC01CB019F8F97
:102030008E8F0FC088EC90E09D8F8C8F8C8D9D8D46
:102040000197F1F79D8F8C8F8E8D9F8D01979F8FBC
:102050008E8F8E8D9F8D009769F724C068A179A11E
:102060008AA19BA10E944900DC01CB019F8F8E8F2A
:102070008E8D9F8D9B8F8A8F8A8D9B8D0197F1F717
:102080009B8F8A8F0FC069A57AA58BA59CA50E94FE
:102090004900DC01CB0188A788A5898F898D8A95A5
:1020A000F1F7898F83E060E00E94500880E090E0C3
:1020B000A0E8BFE38D8B9E8BAF8BB88F6D897E8937
:1020C0008F89988D2BEA3AEA4AE250E40E941F0277
:1020D000DC01CB01898B9A8BAB8BBC8B69897A89AC
:1020E0008B899C8920E030E040E85FE30E94250472
:1020F00088231CF481E0888B91C069897A898B8957
:102100009C8920E030E04FE753E40E94C503181695
:102110000CF07BC06D897E898F89988D20E030E03E
:102120004AE754E40E941903DC01CB018C879D87A8
:10213000AE87BF876C857D858E859F8520E030E0EA
:102140004AEF54E40E941F02DC01CB018887998783
:10215000AA87BB87688579858A859B8520E030E0E2
:1021600040E85FE30E94250488232CF481E090E09E
:102170009F838E833FC0688579858A859B8520E013
:102180003FEF4FE757E40E94C50318164CF56C85E6
:102190007D858E859F8520E030E040E251E40E94FD
:1021A0001F02DC01CB01BC01CD010E944900DC0112
:1021B000CB019F838E830FC088EC90E09D838C833E
:1021C0008C819D810197F1F79D838C838E819F8106
:1021D00001979F838E838E819F81009769F724C02A
:1021E000688579858A859B850E944900DC01CB0141
:1021F0009F838E838E819F819B838A838A819B812B
:102200000197F1F79B838A830FC069897A898B894B
:102210009C890E944900DC01CB01888B88898983D5
:1022200089818A95F1F78983FE01EF59FF4F84E098
:10223000808327C0FE01ED59FF4F8081282F30E0B9
:10224000FE01EF59FF4F8081882F90E00497F9013C
:1022500002C0F595E7958A95E2F7CF01982F917026
:10226000FE01EF59FF4F82E06081492F0E94B108C3
:10227000DE01AF59BF4FFE01EF59FF4F80818F5FE5
:102280008C93FE01EF59FF4F8081883098F283E0F4
:1022900060E00E948008CD59DF4F0FB6F894DEBF92
:1022A0000FBECDBFCF91DF911F910F9108950F9376
:1022B0001F93DF93CF93CDB7DEB7C356D0400FB691
:1022C000F894DEBF0FBECDBFFE01ED59FF4F8083F6
:1022D00083E062E00E94800883E061E00E94800861
:1022E000FE01E35AFF4F80E090E0A0E8BFE3808367
:1022F0009183A283B3838E01075A1F4FFE01E35AD5
:10230000FF4F60817181828193812BEA3AEA4AE230
:1023100050E40E941F02DC01CB01F801808391830D
:10232000A283B383FE01E75AFF4F608171818281EE
:10233000938120E030E040E85FE30E942504882399
:1023400034F4FE01E85AFF4F81E08083E0C0FE01D3
:10235000E75AFF4F608171818281938120E030E0F4
:102360004FE753E40E94C50318160CF0C0C0FE01ED
:10237000E35AFF4F608171818281938120E030E0D8
:102380004AE754E40E941903DC01CB01FE01EC5A38
:10239000FF4F80839183A283B3838E01005B1F4F25
:1023A000FE01EC5AFF4F608171818281938120E0B0
:1023B00030E04AEF54E40E941F02DC01CB01F80137
:1023C00080839183A283B383FE01E05BFF4F608132
:1023D00071818281938120E030E040E85FE30E94D8
:1023E0002504882344F4FE01E25BFF4F81E090E086
:1023F0009183808364C0FE01E05BFF4F6081718147
:102400008281938120E03FEF4FE757E40E94C503AC
:1024100018160CF043C0FE01EC5AFF4F6081718129
:102420008281938120E030E040E251E40E941F026B
:10243000DC01CB018E01025B1F4FBC01CD010E946C
:102440004900DC01CB01F801918380831FC0FE01AC
:10245000E45BFF4F88EC90E091838083FE01E45BB6
:10246000FF4F808191810197F1F7FE01E45BFF4FFF
:1024700091838083DE01A25BBF4FFE01E25BFF4FD1
:1024800080819181019711969C938E93FE01E25B6E
:10249000FF4F808191810097D1F64BC08E01025B86
:1024A0001F4FFE01E05BFF4F60817181828193814C
:1024B0000E944900DC01CB01F80191838083DE0199
:1024C000A65BBF4FFE01E25BFF4F808191811196B9
:1024D0009C938E93FE01E65BFF4F80819181019773
:1024E000F1F7FE01E65BFF4F9183808322C08E01EE
:1024F000085A1F4FFE01E75AFF4F608171818281A8
:1025000093810E944900DC01CB01F8018083DE0148
:10251000A75BBF4FFE01E85AFF4F80818C93FE01FD
:10252000E75BFF4F80818A95F1F7FE01E75BFF4F84
:10253000808383E060E00E945008FE01EB5BFF4F68
:1025400080E090E0A0E8BFE380839183A283B3831F
:102550008E010F5B1F4FFE01EB5BFF4F60817181AE
:10256000828193812BEA3AEA4AE250E40E941F02F8
:10257000DC01CB01F80180839183A283B383FE0148
:10258000EF5BFF4F608171818281938120E030E0B9
:1025900040E85FE30E942504882334F481E0FE01D3
:1025A000E05CFF4F80839DC0FE01EF5BFF4F6081C9
:1025B00071818281938120E030E04FE753E40E94F3
:1025C000C50318160CF07EC0FE01EB5BFF4F608167
:1025D00071818281938120E030E04AE754E40E94D7
:1025E0001903DC01CB018CAF9DAFAEAFBFAF6CADBB
:1025F0007DAD8EAD9FAD20E030E04AEF54E40E9407
:102600001F02DC01CB0188AF99AFAAAFBBAF68ADA9
:1026100079AD8AAD9BAD20E030E040E85FE30E94F9
:10262000250488232CF481E090E09FAB8EAB3FC063
:1026300068AD79AD8AAD9BAD20E03FEF4FE757E441
:102640000E94C50318164CF56CAD7DAD8EAD9FADE7
:1026500020E030E040E251E40E941F02DC01CB01A7
:10266000BC01CD010E944900DC01CB019FAB8EABC8
:102670000FC088EC90E09DAB8CAB8CA99DA9019715
:10268000F1F79DAB8CAB8EA99FA901979FAB8EAB49
:102690008EA99FA9009769F72DC068AD79AD8AAD65
:1026A0009BAD0E944900DC01CB019FAB8EAB8EA994
:1026B0009FA99BAB8AAB8AA99BA90197F1F79BAB1A
:1026C0008AAB18C0FE01EF5BFF4F60817181828190
:1026D00093810E944900DC01CB01FE01E05CFF4FC9
:1026E0008083FE01E05CFF4F808189AB89A98A95D8
:1026F000F1F789ABFE01EE59FF4F84E0808326C0DD
:10270000FE01ED59FF4F8081282F30E0FE01EE5988
:10271000FF4F8081882F90E0A90102C05595479511
:102720008A95E2F7CA01982F9170FE01EE59FF4F8A
:1027300082E06081492F0E94B108DE01AE59BF4F8F
:10274000FE01EE59FF4F80818F5F8C93FE01EE59A1
:10275000FF4F80818830A0F283E060E00E94800813
:1027600080E090E0A0E2B1E48DA79EA7AFA7B8AB50
:102770006DA57EA58FA598A92BEA3AEA4AE250E416
:102780000E941F02DC01CB0189A79AA7ABA7BCA7B7
:1027900069A57AA58BA59CA520E030E040E85FE321
:1027A0000E94250488231CF481E088A791C069A5B4
:1027B0007AA58BA59CA520E030E04FE753E40E946A
:1027C000C50318160CF07BC06DA57EA58FA598A932
:1027D00020E030E04AE754E40E941903DC01CB0119
:1027E0008CA39DA3AEA3BFA36CA17DA18EA19FA12D
:1027F00020E030E04AEF54E40E941F02DC01CB01EC
:1028000088A399A3AAA3BBA368A179A18AA19BA12C
:1028100020E030E040E85FE30E94250488232CF4A8
:1028200081E090E09F8F8E8F3FC068A179A18AA13F
:102830009BA120E03FEF4FE757E40E94C503181625
:102840004CF56CA17DA18EA19FA120E030E040E27B
:1028500051E40E941F02DC01CB01BC01CD010E94AA
:102860004900DC01CB019F8F8E8F0FC088EC90E078
:102870009D8F8C8F8C8D9D8D0197F1F79D8F8C8F07
:102880008E8D9F8D01979F8F8E8F8E8D9F8D009740
:1028900069F724C068A179A18AA19BA10E9449007F
:1028A000DC01CB019F8F8E8F8E8D9F8D9B8F8A8FAA
:1028B0008A8D9B8D0197F1F79B8F8A8F0FC069A539
:1028C0007AA58BA59CA50E944900DC01CB0188A7B5
:1028D00088A5898F898D8A95F1F7898F83E060E0DB
:1028E0000E94500880E090E0A0E8BFE38D8B9E8BB3
:1028F000AF8BB88F6D897E898F89988D2BEA3AEAE4
:102900004AE250E40E941F02DC01CB01898B9A8BC2
:10291000AB8BBC8B69897A898B899C8920E030E0FC
:1029200040E85FE30E94250488231CF481E0888B43
:1029300091C069897A898B899C8920E030E04FE7D2
:1029400053E40E94C50318160CF07BC06D897E8984
:102950008F89988D20E030E04AE754E40E94190303
:10296000DC01CB018C879D87AE87BF876C857D8519
:102970008E859F8520E030E04AEF54E40E941F02DC
:10298000DC01CB0188879987AA87BB876885798511
:102990008A859B8520E030E040E85FE30E942504C3
:1029A00088232CF481E090E09F838E833FC068856C
:1029B00079858A859B8520E03FEF4FE757E40E94A9
:1029C000C50318164CF56C857D858E859F8520E0A6
:1029D00030E040E251E40E941F02DC01CB01BC0167
:1029E000CD010E944900DC01CB019F838E830FC083
:1029F00088EC90E09D838C838C819D810197F1F719
:102A00009D838C838E819F8101979F838E838E818E
:102A10009F81009769F724C0688579858A859B85A1
:102A20000E944900DC01CB019F838E838E819F81B0
:102A30009B838A838A819B810197F1F79B838A8399
:102A40000FC069897A898B899C890E944900DC01C1
:102A5000CB01888B8889898389818A95F1F789835D
:102A6000FE01EF59FF4F84E0808327C0FE01ED593E
:102A7000FF4F8081282F30E0FE01EF59FF4F80810A
:102A8000882F90E00497F90102C0F595E7958A95A3
:102A9000E2F7CF01982F9170FE01EF59FF4F82E0CE
:102AA0006081492F0E94B108DE01AF59BF4FFE017E
:102AB000EF59FF4F80818F5F8C93FE01EF59FF4FDD
:102AC0008081883098F283E060E00E948008CD59D0
:102AD000DF4F0FB6F894DEBF0FBECDBFCF91DF91B1
:102AE0001F910F9108950F931F93DF93CF93CDB74D
:102AF000DEB7CB5AD0400FB6F894DEBF0FBECDBFC5
:102B000083E062E00E94800883E061E00E94800828
:102B1000FE01EB55FF4F80E090E0A0E8BFE380832B
:102B20009183A283B3838E010F551F4FFE01EB5596
:102B3000FF4F60817181828193812BEA3AEA4AE2F8
:102B400050E40E941F02DC01CB01F80180839183D5
:102B5000A283B383FE01EF55FF4F608171818281B3
:102B6000938120E030E040E85FE30E942504882361
:102B700034F4FE01E056FF4F81E08083E0C0FE01A7
:102B8000EF55FF4F608171818281938120E030E0B9
:102B90004FE753E40E94C50318160CF0C0C0FE01B5
:102BA000EB55FF4F608171818281938120E030E09D
:102BB0004AE754E40E941903DC01CB01FE01E4560C
:102BC000FF4F80839183A283B3838E0108561F4FEA
:102BD000FE01E456FF4F608171818281938120E084
:102BE00030E04AEF54E40E941F02DC01CB01F801FF
:102BF00080839183A283B383FE01E856FF4F6081F7
:102C000071818281938120E030E040E85FE30E949F
:102C10002504882344F4FE01EA56FF4F81E090E04A
:102C20009183808364C0FE01E856FF4F608171810B
:102C30008281938120E03FEF4FE757E40E94C50374
:102C400018160CF043C0FE01E456FF4F60817181FD
:102C50008281938120E030E040E251E40E941F0233
:102C6000DC01CB018E010A561F4FBC01CD010E9431
:102C70004900DC01CB01F801918380831FC0FE0174
:102C8000EC56FF4F88EC90E091838083FE01EC5678
:102C9000FF4F808191810197F1F7FE01EC56FF4FC4
:102CA00091838083DE01AA56BF4FFE01EA56FF4F93
:102CB00080819181019711969C938E93FE01EA5633
:102CC000FF4F808191810097D1F64BC08E010A564B
:102CD0001F4FFE01E856FF4F608171818281938111
:102CE0000E944900DC01CB01F80191838083DE0161
:102CF000AE56BF4FFE01EA56FF4F8081918111967B
:102D00009C938E93FE01EE56FF4F80819181019737
:102D1000F1F7FE01EE56FF4F9183808322C08E01B2
:102D200000561F4FFE01EF55FF4F60817181828178
:102D300093810E944900DC01CB01F8018083DE0110
:102D4000AF56BF4FFE01E056FF4F80818C93FE01CE
:102D5000EF56FF4F80818A95F1F7FE01EF56FF4F46
:102D6000808383E060E00E945008FE01E357FF4F3C
:102D700080E090E0A0E8BFE380839183A283B383E7
:102D80008E0107571F4FFE01E357FF4F608171818E
:102D9000828193812BEA3AEA4AE250E40E941F02C0
:102DA000DC01CB01F80180839183A283B383FE0110
:102DB000E757FF4F608171818281938120E030E08D
:102DC00040E85FE30E942504882334F4FE01E857BD
:102DD000FF4F81E08083E0C0FE01E757FF4F608135
:102DE00071818281938120E030E04FE753E40E94BB
:102DF000C50318160CF0C0C0FE01E357FF4F6081F9
:102E000071818281938120E030E04AE754E40E949E
:102E10001903DC01CB01FE01EC57FF4F8083918346
:102E2000A283B3838E0100581F4FFE01EC57FF4F62
:102E3000608171818281938120E030E04AEF54E427
:102E40000E941F02DC01CB01F80180839183A283E1
:102E5000B383FE01E058FF4F6081718182819381CD
:102E600020E030E040E85FE30E942504882344F43A
:102E7000FE01E258FF4F81E090E09183808364C0BF
:102E8000FE01E058FF4F608171818281938120E0D3
:102E90003FEF4FE757E40E94C50318160CF043C0FC
:102EA000FE01EC57FF4F608171818281938120E0A8
:102EB00030E040E251E40E941F02DC01CB018E01B0
:102EC00002581F4FBC01CD010E944900DC01CB011B
:102ED000F801918380831FC0FE01E458FF4F88EC06
:102EE00090E091838083FE01E458FF4F80819181BF
:102EF0000197F1F7FE01E458FF4F91838083DE01D3
:102F0000A258BF4FFE01E258FF4F80819181019787
:102F100011969C938E93FE01E258FF4F8081918120
:102F20000097D1F64BC08E0102581F4FFE01E058AA
:102F3000FF4F60817181828193810E944900DC0191
:102F4000CB01F80191838083DE01A658BF4FFE01BB
:102F5000E258FF4F8081918111969C938E93FE01E0
:102F6000E658FF4F808191810197F1F7FE01E65805
:102F7000FF4F9183808322C08E0108571F4FFE01AF
:102F8000E757FF4F60817181828193810E944900E0
:102F9000DC01CB01F8018083DE01A758BF4FFE01A1
:102FA000E857FF4F80818C93FE01E758FF4F8081E7
:102FB0008A95F1F7FE01E758FF4F8083FE01E55542
:102FC000FF4F108223C0FE01E555FF4F8081482F3F
:102FD0004C5FFE01E555FF4F8081282F30E082E0F5
:102FE00090E002C0959587952A95E2F7982F917009
:102FF00082E0642F492F0E94B108DE01A555BF4F22
:10300000FE01E555FF4F80818F5F8C93FE01E555F2
:10301000FF4F80818430B8F283E060E00E94800836
:10302000FE01EB58FF4F80E090E0A0E2B1E4808326
:103030009183A283B3838E010F581F4FFE01EB587B
:10304000FF4F60817181828193812BEA3AEA4AE2E3
:1030500050E40E941F02DC01CB01F80180839183C0
:10306000A283B383FE01EF58FF4F6081718182819B
:10307000938120E030E040E85FE30E94250488234C
:1030800034F4FE01E059FF4F81E08083E0C0FE018F
:10309000EF58FF4F608171818281938120E030E0A1
:1030A0004FE753E40E94C50318160CF0C0C0FE01A0
:1030B000EB58FF4F608171818281938120E030E085
:1030C0004AE754E40E941903DC01CB01FE01E459F4
:1030D000FF4F80839183A283B3838E0108591F4FD2
:1030E000FE01E459FF4F608171818281938120E06C
:1030F00030E04AEF54E40E941F02DC01CB01F801EA
:1031000080839183A283B383FE01E859FF4F6081DE
:1031100071818281938120E030E040E85FE30E948A
:103120002504882344F4FE01EA59FF4F81E090E032
:103130009183808364C0FE01E859FF4F60817181F3
:103140008281938120E03FEF4FE757E40E94C5035F
:1031500018160CF043C0FE01E459FF4F60817181E5
:103160008281938120E030E040E251E40E941F021E
:10317000DC01CB018E010A591F4FBC01CD010E9419
:103180004900DC01CB01F801918380831FC0FE015F
:10319000EC59FF4F88EC90E091838083FE01EC595D
:1031A000FF4F808191810197F1F7FE01EC59FF4FAC
:1031B00091838083DE01AA59BF4FFE01EA59FF4F78
:1031C00080819181019711969C938E93FE01EA591B
:1031D000FF4F808191810097D1F64BC08E010A5933
:1031E0001F4FFE01E859FF4F6081718182819381F9
:1031F0000E944900DC01CB01F80191838083DE014C
:10320000AE59BF4FFE01EA59FF4F8081918111965F
:103210009C938E93FE01EE59FF4F8081918101971F
:10322000F1F7FE01EE59FF4F9183808322C08E019A
:1032300000591F4FFE01EF58FF4F6081718182815D
:1032400093810E944900DC01CB01F8018083DE01FB
:10325000AF59BF4FFE01E059FF4F80818C93FE01B3
:10326000EF59FF4F80818A95F1F7FE01EF59FF4F2B
:10327000808383E060E00E945008FE01E35AFF4F24
:1032800080E090E0A0E8BFE380839183A283B383D2
:103290008E01075A1F4FFE01E35AFF4F6081718173
:1032A000828193812BEA3AEA4AE250E40E941F02AB
:1032B000DC01CB01F80180839183A283B383FE01FB
:1032C000E75AFF4F608171818281938120E030E075
:1032D00040E85FE30E942504882334F4FE01E85AA5
:1032E000FF4F81E08083E0C0FE01E75AFF4F60811D
:1032F00071818281938120E030E04FE753E40E94A6
:10330000C50318160CF0C0C0FE01E35AFF4F6081E0
:1033100071818281938120E030E04AE754E40E9489
:103320001903DC01CB01FE01EC5AFF4F808391832E
:10333000A283B3838E01005B1F4FFE01EC5AFF4F47
:10334000608171818281938120E030E04AEF54E412
:103350000E941F02DC01CB01F80180839183A283CC
:10336000B383FE01E05BFF4F6081718182819381B5
:1033700020E030E040E85FE30E942504882344F425
:10338000FE01E25BFF4F81E090E09183808364C0A7
:10339000FE01E05BFF4F608171818281938120E0BB
:1033A0003FEF4FE757E40E94C50318160CF043C0E7
:1033B000FE01EC5AFF4F608171818281938120E090
:1033C00030E040E251E40E941F02DC01CB018E019B
:1033D000025B1F4FBC01CD010E944900DC01CB0103
:1033E000F801918380831FC0FE01E45BFF4F88ECEE
:1033F00090E091838083FE01E45BFF4F80819181A7
:103400000197F1F7FE01E45BFF4F91838083DE01BA
:10341000A25BBF4FFE01E25BFF4F8081918101976C
:1034200011969C938E93FE01E25BFF4F8081918108
:103430000097D1F64BC08E01025B1F4FFE01E05B8F
:10344000FF4F60817181828193810E944900DC017C
:10345000CB01F80191838083DE01A65BBF4FFE01A3
:10346000E25BFF4F8081918111969C938E93FE01C8
:10347000E65BFF4F808191810197F1F7FE01E65BEA
:10348000FF4F9183808322C08E01085A1F4FFE0197
:10349000E75AFF4F60817181828193810E944900C8
:1034A000DC01CB01F8018083DE01A75BBF4FFE0189
:1034B000E85AFF4F80818C93FE01E75BFF4F8081CC
:1034C0008A95F1F7FE01E75BFF4F8083FE01E65529
:1034D000FF4F108223C0FE01E655FF4F8081482F29
:1034E0004C5FFE01E655FF4F8081282F30E082E0DF
:1034F00090E002C0959587952A95E2F7982F9170F4
:1035000082E0642F492F0E94B108DE01A655BF4F0B
:10351000FE01E655FF4F80818F5F8C93FE01E655DB
:10352000FF4F80818430B8F283E060E00E94800821
:10353000FE01EB5BFF4F80E090E0A0E2B1E480830E
:103540009183A283B3838E010F5B1F4FFE01EB5B60
:10355000FF4F60817181828193812BEA3AEA4AE2CE
:1035600050E40E941F02DC01CB01F80180839183AB
:10357000A283B383FE01EF5BFF4F60817181828183
:10358000938120E030E040E85FE30E942504882337
:1035900034F481E0FE01E05CFF4F80839DC0FE01BA
:1035A000EF5BFF4F608171818281938120E030E089
:1035B0004FE753E40E94C50318160CF07EC0FE01CD
:1035C000EB5BFF4F608171818281938120E030E06D
:1035D0004AE754E40E941903DC01CB018CAF9DAF94
:1035E000AEAFBFAF6CAD7DAD8EAD9FAD20E030E036
:1035F0004AEF54E40E941F02DC01CB0188AF99AF6F
:10360000AAAFBBAF68AD79AD8AAD9BAD20E030E02D
:1036100040E85FE30E94250488232CF481E090E0D9
:103620009FAB8EAB3FC068AD79AD8AAD9BAD20E05E
:103630003FEF4FE757E40E94C50318164CF56CADF9
:103640007DAD8EAD9FAD20E030E040E251E40E94C0
:103650001F02DC01CB01BC01CD010E944900DC014D
:10366000CB019FAB8EAB0FC088EC90E09DAB8CABD9
:103670008CA99DA90197F1F79DAB8CAB8EA99FA951
:1036800001979FAB8EAB8EA99FA9009769F72DC0BC
:1036900068AD79AD8AAD9BAD0E944900DC01CB01DC
:1036A0009FAB8EAB8EA99FA99BAB8AAB8AA99BA926
:1036B0000197F1F79BAB8AAB18C0FE01EF5BFF4FA0
:1036C00060817181828193810E944900DC01CB017C
:1036D000FE01E05CFF4F8083FE01E05CFF4F8081D4
:1036E00089AB89A98A95F1F789AB83E060E00E94F4
:1036F000500880E090E0A0E8BFE38DA79EA7AFA7A9
:10370000B8AB6DA57EA58FA598A92BEA3AEA4AE247
:1037100050E40E941F02DC01CB0189A79AA7ABA746
:10372000BCA769A57AA58BA59CA520E030E040E860
:103730005FE30E94250488231CF481E088A791C0E0
:1037400069A57AA58BA59CA520E030E04FE753E45E
:103750000E94C50318160CF07BC06DA57EA58FA531
:1037600098A920E030E04AE754E40E941903DC0104
:10377000CB018CA39DA3AEA3BFA36CA17DA18EA101
:103780009FA120E030E04AEF54E40E941F02DC01D8
:10379000CB0188A399A3AAA3BBA368A179A18AA1FD
:1037A0009BA120E030E040E85FE30E9425048823ED
:1037B0002CF481E090E09F8F8E8F3FC068A179A1AB
:1037C0008AA19BA120E03FEF4FE757E40E94C50389
:1037D00018164CF56CA17DA18EA19FA120E030E0D0
:1037E00040E251E40E941F02DC01CB01BC01CD018B
:1037F0000E944900DC01CB019F8F8E8F0FC088ECA7
:1038000090E09D8F8C8F8C8D9D8D0197F1F79D8F12
:103810008C8F8E8D9F8D01979F8F8E8F8E8D9F8D1C
:10382000009769F724C068A179A18AA19BA10E9491
:103830004900DC01CB019F8F8E8F8E8D9F8D9B8FDA
:103840008A8F8A8D9B8D0197F1F79B8F8A8F0FC08E
:1038500069A57AA58BA59CA50E944900DC01CB0136
:1038600088A788A5898F898D8A95F1F7898FFE01B0
:10387000E755FF4F108223C0FE01E755FF4F8081BF
:10388000482F4C5FFE01E755FF4F8081282F30E025
:1038900088E090E002C0959587952A95E2F7982FE9
:1038A000917082E0642F492F0E94B108DE01A75574
:1038B000BF4FFE01E755FF4F80818F5F8C93FE0164
:1038C000E755FF4F80818430B8F283E060E00E94CA
:1038D000800880E090E0A0E2B1E48D8B9E8BAF8BFE
:1038E000B88F6D897E898F89988D2BEA3AEA4AE2F2
:1038F00050E40E941F02DC01CB01898B9A8BAB8BB9
:10390000BC8B69897A898B899C8920E030E040E80A
:103910005FE30E94250488231CF481E0888B91C01A
:1039200069897A898B899C8920E030E04FE753E4EC
:103930000E94C50318160CF07BC06D897E898F89A3
:10394000988D20E030E04AE754E40E941903DC013E
:10395000CB018C879D87AE87BF876C857D858E85E3
:103960009F8520E030E04AEF54E40E941F02DC0112
:10397000CB0188879987AA87BB87688579858A85DF
:103980009B8520E030E040E85FE30E942504882327
:103990002CF481E090E09F838E833FC06885798519
:1039A0008A859B8520E03FEF4FE757E40E94C503DF
:1039B00018164CF56C857D858E859F8520E030E05E
:1039C00040E251E40E941F02DC01CB01BC01CD01A9
:1039D0000E944900DC01CB019F838E830FC088ECDD
:1039E00090E09D838C838C819D810197F1F79D836D
:1039F0008C838E819F8101979F838E838E819F818F
:103A0000009769F724C0688579858A859B850E941F
:103A10004900DC01CB019F838E838E819F819B8334
:103A20008A838A819B810197F1F79B838A830FC0E8
:103A300069897A898B899C890E944900DC01CB01C4
:103A4000888B8889898389818A95F1F78983C5550F
:103A5000DF4F0FB6F894DEBF0FBECDBFCF91DF9121
:103A60001F910F9108950F931F93DF93CF93CDB7BD
:103A7000DEB7CC54D0400FB6F894DEBF0FBECDBF3A
:103A800082E067E041E00E94150782E066E041E0E5
:103A90000E94150782E065E041E00E94150782E080
:103AA00064E041E00E94150783E062E041E00E948B
:103AB000150783E061E041E00E94150783E060E0C4
:103AC00041E00E941507FE01E75BFF4F80E090E0B8
:103AD000A8E4B2E480839183A283B3838E010B5B5D
:103AE0001F4FFE01E75BFF4F6081718182819381EF
:103AF00020E030E04AEF54E40E941F02DC01CB01D9
:103B0000F80180839183A283B383FE01EB5BFF4FB7
:103B1000608171818281938120E030E040E85FE341
:103B20000E942504882344F4FE01ED5BFF4F81E0F1
:103B300090E09183808364C0FE01EB5BFF4F608166
:103B400071818281938120E03FEF4FE757E40E942B
:103B5000C50318160CF043C0FE01E75BFF4F608100
:103B600071818281938120E030E040E251E40E9443
:103B70001F02DC01CB018E010D5B1F4FBC01CD018B
:103B80000E944900DC01CB01F801918380831FC0B2
:103B9000FE01EF5BFF4F88EC90E091838083FE0194
:103BA000EF5BFF4F808191810197F1F7FE01EF5BA1
:103BB000FF4F91838083DE01AD5BBF4FFE01ED5B64
:103BC000FF4F80819181019711969C938E93FE0106
:103BD000ED5BFF4F808191810097D1F624C08E016B
:103BE0000D5B1F4FFE01EB5BFF4F60817181828196
:103BF00093810E944900DC01CB01F801918380830D
:103C0000FE01ED5BFF4F80819181FE01FF96918364
:103C10008083FE01FF96808191810197F1F7FE017B
:103C2000FF96918380830E94731580E090E0A8E462
:103C3000B2E48BAF9CAFADAFBEAF6BAD7CAD8DAD25
:103C40009EAD2BEA3AEA4AE250E40E941F02DC01F0
:103C5000CB018FAB98AFA9AFBAAF6FA978AD89ADE3
:103C60009AAD20E030E040E85FE30E94250488231D
:103C70001CF481E08EAB91C06FA978AD89AD9AAD8F
:103C800020E030E04FE753E40E94C50318160CF023
:103C90007BC06BAD7CAD8DAD9EAD20E030E04AE7E2
:103CA00054E40E941903DC01CB018AAB9BABACABA3
:103CB000BDAB6AA97BA98CA99DA920E030E04AEFA1
:103CC00054E40E941F02DC01CB018EA79FA7A8AB82
:103CD000B9AB6EA57FA588A999A920E030E040E89E
:103CE0005FE30E94250488232CF481E090E09DA7E7
:103CF0008CA73FC06EA57FA588A999A920E03FEFBA
:103D00004FE757E40E94C50318164CF56AA97BA932
:103D10008CA99DA920E030E040E251E40E941F02FE
:103D2000DC01CB01BC01CD010E944900DC01CB01CB
:103D30009DA78CA70FC088EC90E09BA78AA78AA5B7
:103D40009BA50197F1F79BA78AA78CA59DA5019735
:103D50009DA78CA78CA59DA5009769F724C06EA58B
:103D60007FA588A999A90E944900DC01CB019DA7E4
:103D70008CA78CA59DA599A788A788A599A501972B
:103D8000F1F799A788A70FC06FA978AD89AD9AAD53
:103D90000E944900DC01CB018EAB8EA98FA38FA1BD
:103DA0008A95F1F78FA38CE00E94571180E090E094
:103DB000A8E4B2E48BA39CA3ADA3BEA36BA17CA19A
:103DC0008DA19EA12BEA3AEA4AE250E40E941F022A
:103DD000DC01CB018F8F98A3A9A3BAA36F8D78A123
:103DE00089A19AA120E030E040E85FE30E94250429
:103DF00088231CF481E08E8F91C06F8D78A189A1FA
:103E00009AA120E030E04FE753E40E94C503181662
:103E10000CF07BC06BA17CA18DA19EA120E030E0C5
:103E20004AE754E40E941903DC01CB018A8F9B8F7F
:103E3000AC8FBD8F6A8D7B8D8C8D9D8D20E030E0A9
:103E40004AEF54E40E941F02DC01CB018E8B9F8B52
:103E5000A88FB98F6E897F89888D998D20E030E099
:103E600040E85FE30E94250488232CF481E090E081
:103E70009D8B8C8B3FC06E897F89888D998D20E0CA
:103E80003FEF4FE757E40E94C50318164CF56A8DC3
:103E90007B8D8C8D9D8D20E030E040E251E40E94CE
:103EA0001F02DC01CB01BC01CD010E944900DC01F5
:103EB000CB019D8B8C8B0FC088EC90E09B8B8A8B09
:103EC0008A899B890197F1F79B8B8A8B8C899D89C5
:103ED00001979D8B8C8B8C899D89009769F724C0F5
:103EE0006E897F89888D998D0E944900DC01CB0104
:103EF0009D8B8C8B8C899D89998B888B88899989DE
:103F00000197F1F7998B888B0FC06F8D78A189A1EC
:103F10009AA10E944900DC01CB018E8F8E8D8F8784
:103F20008F858A95F1F78F8781E00E94571180E095
:103F300090E0A0E0B0E48B879C87AD87BE876B855F
:103F40007C858D859E8520E030E04AEF54E40E9418
:103F50001F02DC01CB018F839887A987BA876F8105
:103F6000788589859A8520E030E040E85FE30E940B
:103F7000250488232CF481E090E09E838D833FC04C
:103F80006F81788589859A8520E03FEF4FE757E478
:103F90000E94C50318164CF56B857C858D859E8522
:103FA00020E030E040E251E40E941F02DC01CB013E
:103FB000BC01CD010E944900DC01CB019E838D83B1
:103FC0000FC088EC90E09C838B838B819C81019750
:103FD000F1F79C838B838D819E8101979E838D83D6
:103FE0008D819E81009769F714C06F8178858985DE
:103FF0009A850E944900DC01CB019E838D838D81CF
:104000009E819A83898389819A810197F1F79A83A6
:104010008983C45BDF4F0FB6F894DEBF0FBECDBF00
:10402000CF91DF911F910F910895DF93CF93CDB77B
:10403000DEB76B970FB6F894DEBF0FBECDBF8A8F89
:104040006B8F8A8D882F90E0029600249695879535
:104050000794969587950794982F802D982F8B8D90
:10406000890F898F898D0E94571180E090E0A8E424
:10407000B2E48D8B9E8BAF8BB88F6D897E898F89D3
:10408000988D2BEA3AEA4AE250E40E941F02DC01D2
:10409000CB01898B9A8BAB8BBC8B69897A898B8995
:1040A0009C8920E030E040E85FE30E9425048823FB
:1040B0001CF481E0888B91C069897A898B899C89FD
:1040C00020E030E04FE753E40E94C50318160CF0DF
:1040D0007BC06D897E898F89988D20E030E04AE72A
:1040E00054E40E941903DC01CB018C879D87AE87C5
:1040F000BF876C857D858E859F8520E030E04AEF07
:1041000054E40E941F02DC01CB0188879987AA87AB
:10411000BB87688579858A859B8520E030E040E80B
:104120005FE30E94250488232CF481E090E09F83C4
:104130008E833FC0688579858A859B8520E03FEF27
:104140004FE757E40E94C50318164CF56C857D8532
:104150008E859F8520E030E040E251E40E941F02FE
:10416000DC01CB01BC01CD010E944900DC01CB0187
:104170009F838E830FC088EC90E09D838C838C811D
:104180009D810197F1F79D838C838E819F8101979B
:104190009F838E838E819F81009769F724C06885F5
:1041A00079858A859B850E944900DC01CB019F832C
:1041B0008E838E819F819B838A838A819B810197D5
:1041C000F1F79B838A830FC069897A898B899C89DF
:1041D0000E944900DC01CB01888B88898983898111
:1041E0008A95F1F789836B960FB6F894DEBF0FBE00
:1041F000CDBFCF91DF910895DF93CF93CDB7DEB7D9
:1042000068970FB6F894DEBF0FBECDBF8CE00E945A
:10421000571180E090E0A8E4B2E48D8B9E8BAF8BC9
:10422000B88F6D897E898F89988D2BEA3AEA4AE2A8
:1042300050E40E941F02DC01CB01898B9A8BAB8B6F
:10424000BC8B69897A898B899C8920E030E040E8C1
:104250005FE30E94250488231CF481E0888B91C0D1
:1042600069897A898B899C8920E030E04FE753E4A3
:104270000E94C50318160CF07BC06D897E898F895A
:10428000988D20E030E04AE754E40E941903DC01F5
:10429000CB018C879D87AE87BF876C857D858E859A
:1042A0009F8520E030E04AEF54E40E941F02DC01C9
:1042B000CB0188879987AA87BB87688579858A8596
:1042C0009B8520E030E040E85FE30E9425048823DE
:1042D0002CF481E090E09F838E833FC068857985D0
:1042E0008A859B8520E03FEF4FE757E40E94C50396
:1042F00018164CF56C857D858E859F8520E030E015
:1043000040E251E40E941F02DC01CB01BC01CD015F
:104310000E944900DC01CB019F838E830FC088EC93
:1043200090E09D838C838C819D810197F1F79D8323
:104330008C838E819F8101979F838E838E819F8145
:10434000009769F724C0688579858A859B850E94D6
:104350004900DC01CB019F838E838E819F819B83EB
:104360008A838A819B810197F1F79B838A830FC09F
:1043700069897A898B899C890E944900DC01CB017B
:10438000888B8889898389818A95F1F789836896E2
:104390000FB6F894DEBF0FBECDBFCF91DF91089569
:1043A000DF93CF93CDB7DEB768970FB6F894DEBF33
:1043B0000FBECDBF88E00E94571180E090E0A8E4D6
:1043C000B2E48D8B9E8BAF8BB88F6D897E898F8980
:1043D000988D2BEA3AEA4AE250E40E941F02DC017F
:1043E000CB01898B9A8BAB8BBC8B69897A898B8942
:1043F0009C8920E030E040E85FE30E9425048823A8
:104400001CF481E0888B91C069897A898B899C89A9
:1044100020E030E04FE753E40E94C50318160CF08B
:104420007BC06D897E898F89988D20E030E04AE7D6
:1044300054E40E941903DC01CB018C879D87AE8771
:10444000BF876C857D858E859F8520E030E04AEFB3
:1044500054E40E941F02DC01CB0188879987AA8758
:10446000BB87688579858A859B8520E030E040E8B8
:104470005FE30E94250488232CF481E090E09F8371
:104480008E833FC0688579858A859B8520E03FEFD4
:104490004FE757E40E94C50318164CF56C857D85DF
:1044A0008E859F8520E030E040E251E40E941F02AB
:1044B000DC01CB01BC01CD010E944900DC01CB0134
:1044C0009F838E830FC088EC90E09D838C838C81CA
:1044D0009D810197F1F79D838C838E819F81019748
:1044E0009F838E838E819F81009769F724C06885A2
:1044F00079858A859B850E944900DC01CB019F83D9
:104500008E838E819F819B838A838A819B81019781
:10451000F1F79B838A830FC069897A898B899C898B
:104520000E944900DC01CB01888B888989838981BD
:104530008A95F1F7898368960FB6F894DEBF0FBEAF
:10454000CDBFCF91DF910895DF93CF93CDB7DEB785
:104550006C970FB6F894DEBF0FBECDBF81E00E940E
:10456000571180E090E0A0E0B0E4898F9A8FAB8F84
:10457000BC8F698D7A8D8B8D9C8D20E030E04AEF69
:1045800054E40E941F02DC01CB018D8B9E8BAF8B0C
:10459000B88F6D897E898F89988D20E030E040E862
:1045A0005FE30E94250488232CF481E090E09C8B3B
:1045B0008B8B3FC06D897E898F89988D20E03FEF7E
:1045C0004FE757E40E94C50318164CF5698D7A8DA4
:1045D0008B8D9C8D20E030E040E251E40E941F0270
:1045E000DC01CB01BC01CD010E944900DC01CB0103
:1045F0009C8B8B8B0FC088EC90E09A8B898B898980
:104600009A890197F1F79A8B898B8B899C890197FD
:104610009C8B8B8B8B899C89009769F714C06D8963
:104620007E898F89988D0E944900DC01CB019C8B8B
:104630008B8B8B899C89988B8F878F859889019725
:10464000F1F7988B8F8782E00E94571180E090E00D
:10465000A0E0B0E48B879C87AD87BE876B857C85A7
:104660008D859E8520E030E04AEF54E40E941F02D1
:10467000DC01CB018F839887A987BA876F81788502
:1046800089859A8520E030E040E85FE30E942504B8
:1046900088232CF481E090E09E838D833FC06F815E
:1046A000788589859A8520E03FEF4FE757E40E949F
:1046B000C50318164CF56B857C858D859E8520E09D
:1046C00030E040E251E40E941F02DC01CB01BC015A
:1046D000CD010E944900DC01CB019E838D830FC078
:1046E00088EC90E09C838B838B819C810197F1F710
:1046F0009C838B838D819E8101979E838D838D8189
:104700009E81009769F714C06F81788589859A85A5
:104710000E944900DC01CB019E838D838D819E81A7
:104720009A83898389819A810197F1F79A83898392
:104730006C960FB6F894DEBF0FBECDBFCF91DF9160
:104740000895DF93CF93CDB7DEB769970FB6F8948E
:10475000DEBF0FBECDBF898F898D0E943B0D80E0EB
:1047600090E0A8E4B2E48D8B9E8BAF8BB88F6D89FF
:104770007E898F89988D2BEA3AEA4AE250E40E94BA
:104780001F02DC01CB01898B9A8BAB8BBC8B6989B7
:104790007A898B899C8920E030E040E85FE30E94C1
:1047A000250488231CF481E0888B91C069897A896B
:1047B0008B899C8920E030E04FE753E40E94C503D9
:1047C00018160CF07BC06D897E898F89988D20E04A
:1047D00030E04AE754E40E941903DC01CB018C87E6
:1047E0009D87AE87BF876C857D858E859F8520E000
:1047F00030E04AEF54E40E941F02DC01CB018887BD
:104800009987AA87BB87688579858A859B8520E0FB
:1048100030E040E85FE30E94250488232CF481E027
:1048200090E09F838E833FC0688579858A859B85CC
:1048300020E03FEF4FE757E40E94C50318164CF500
:104840006C857D858E859F8520E030E040E251E4D7
:104850000E941F02DC01CB01BC01CD010E94490076
:10486000DC01CB019F838E830FC088EC90E09D8399
:104870008C838C819D810197F1F79D838C838E8140
:104880009F8101979F838E838E819F81009769F717
:1048900024C0688579858A859B850E944900DC0152
:1048A000CB019F838E838E819F819B838A838A81A4
:1048B0009B810197F1F79B838A830FC069897A896D
:1048C0008B899C890E944900DC01CB01888B8889F7
:1048D000898389818A95F1F7898369960FB6F8945F
:1048E000DEBF0FBECDBFCF91DF910895DF93CF9391
:1048F00000D00F92CDB7DEB79B838A8319820EC09A
:104900008981282F30E08A819B81FC01E20FF31F0F
:1049100080810E94A12389818F5F89838981282FCB
:1049200030E08A819B81FC01E20FF31F80818823A4
:1049300039F70F900F900F90CF91DF9108950F935B
:104940001F93DF93CF93CDB7DEB760970FB6F89480
:10495000DEBF0FBECDBF6D877E878F87988B8D851D
:104960009E85AF85B8890097A105B10521F480E344
:104970000E94A12318C08D859E85AF85B889BB2371
:1049800094F48DE20E94A1238D859E85AF85B88920
:10499000B095A095909581959F4FAF4FBF4F8D8754
:1049A0009E87AF87B88B8D859E85AF85B889181691
:1049B00019061A061B060CF051C01A822DC08A81F6
:1049C000082F10E08D859E85AF85B8892AE030E0FC
:1049D00040E050E0BC01CD010E941D3EDC01CB0156
:1049E000282FCE010396FC01E00FF11F20838D8557
:1049F0009E85AF85B8892AE030E040E050E0BC01F8
:104A0000CD010E941D3EDA01C9018D879E87AF87C7
:104A1000B88B8A818F5F8A838D859E85AF85B889A3
:104A20000097A105B10559F6CE0103966A810E944F
:104A3000780919820FC08981282F30E0CE010396B2
:104A4000FC01E20FF31F8081805D0E94A123898118
:104A50008F5F898399818A81981768F360960FB672
:104A6000F894DEBF0FBECDBFCF91DF911F910F91A4
:104A70000895EF92FF920F931F93DF93CF93CDB7DB
:104A8000DEB72D970FB6F894DEBF0FBECDBF698796
:104A90007A878B879C874D8769857A858B859C85EE
:104AA0000E94B304DC01CB018D839E83AF83B88762
:104AB0006D817E818F8198850E9455049B01AC0198
:104AC00069857A858B859C850E94C101DC01CB01BB
:104AD0007C018D018D850E94C009DC01CB01BC01E8
:104AE000CD010E9455049B01AC01C801B7010E9491
:104AF0001F02DC01CB01BC01CD010E94B304DC012B
:104B0000CB0189839A83AB83BC838D819E81AF81E6
:104B1000B885BC01CD010E949F248EE20E94A12392
:104B200089819A81AB81BC81181619061A061B0669
:104B30004CF489819A81AB81BC81BC01CD010E947A
:104B40009F240FC089819A81AB81BC81B095A095CB
:104B5000909581959F4FAF4FBF4FBC01CD010E94F3
:104B60009F242D960FB6F894DEBF0FBECDBFCF9118
:104B7000DF911F910F91FF90EF900895DF93CF93F6
:104B800000D000D0CDB7DEB79C838B831A82198208
:104B90000E9406358091920190919301009731F423
:104BA00085E991E090939301809392018091900127
:104BB000909191012B813C81820F931F23E08F3FC5
:104BC000920738F520919001309191018B819C8161
:104BD000280F391F809190019091910182179307BE
:104BE000C0F42091920130919301809190019091B5
:104BF0009101820F931F9A838983209190013091B4
:104C000091018B819C81820F931F909391018093DE
:104C100090010E94123589819A810F900F900F9018
:104C20000F90CF91DF910895DF93CF9300D0CDB750
:104C3000DEB79A8389830F900F90CF91DF9108950B
:104C4000DF93CF93CDB7DEB7109291011092900110
:104C5000CF91DF910895DF93CF93CDB7DEB7209149
:104C60009001309191018FEF93E0821B930BCF91D4
:104C7000DF910895DF93CF9300D0CDB7DEB79A834D
:104C8000898389819A810396E981FA81928381835C
:104C9000E981FA818FEF9FEF9483838389819A81E1
:104CA0000396E981FA819683858389819A810396A7
:104CB000E981FA8190878783E981FA8110820F90D8
:104CC0000F90CF91DF910895DF93CF9300D0CDB7B0
:104CD000DEB79A838983E981FA81118610860F9065
:104CE0000F90CF91DF910895DF93CF9300D000D044
:104CF00000D0CDB7DEB79C838B837E836D83EB8141
:104D0000FC81818192819A838983ED81FE818981F1
:104D10009A8193838283E981FA8184819581ED81EF
:104D2000FE8195838483E981FA810480F581E02DF9
:104D30008D819E8193838283E981FA818D819E8119
:104D400095838483ED81FE818B819C81918780870F
:104D5000EB81FC8180818F5FEB81FC8180832696D3
:104D60000FB6F894DEBF0FBECDBFCF91DF9108958F
:104D7000DF93CF93CDB7DEB728970FB6F894DEBF99
:104D80000FBECDBF9E838D8378876F83EF81F885BB
:104D9000808191819A83898389819A812FEF8F3FC6
:104DA000920739F4ED81FE81878190859C838B8306
:104DB00018C08D819E8103969C838B8306C0EB81F6
:104DC000FC81828193819C838B83EB81FC810280B7
:104DD000F381E02D2081318189819A8182179307A7
:104DE00070F7EB81FC8182819381EF81F885938359
:104DF0008283EF81F8850280F381E02D8F81988591
:104E000095838483EF81F8858B819C81958384834E
:104E1000EB81FC818F81988593838283EF81F88574
:104E20008D819E8191878087ED81FE8180818F5F5A
:104E3000ED81FE81808328960FB6F894DEBF0FBE09
:104E4000CDBFCF91DF910895DF93CF9300D000D0F5
:104E5000CDB7DEB79C838B83EB81FC818085918508
:104E60009A838983EB81FC81A281B381EB81FC81F0
:104E70008481958115969C938E931497EB81FC8188
:104E8000A481B581EB81FC818281938113969C93EF
:104E90008E931297E981FA81218132818B819C81E5
:104EA0002817390741F4EB81FC8184819581E981E0
:104EB000FA8192838183EB81FC8111861086E981DE
:104EC000FA8180818150E981FA818083E981FA81C8
:104ED00080810F900F900F900F90CF91DF910895E8
:104EE000DF93CF9300D00F92CDB7DEB79B838A8339
:104EF0008091F1059091F2056AE070E00E94062E23
:104F000089838981813079F480E690E00E9476245B
:104F10008091F1059091F20560E070E040E050E092
:104F200020E00E94062C80ED97E00E94A634E0CF9E
:104F3000DF93CF9300D00F92CDB7DEB79B838A83E8
:104F40008091F1059091F2056AE070E00E94062ED2
:104F500089838981813079F485E690E00E94762406
:104F60008091F1059091F20560E070E040E050E042
:104F700020E00E94062C80ED97E00E94A634E0CF4E
:104F8000EF92FF920F93DF93CF93CDB7DEB70E94DE
:104F9000331D81E060E043E00E945A2B9093F205BC
:104FA0008093F1058091F1059091F205009759F0F9
:104FB0008091F1059091F20560E070E040E050E0F2
:104FC00020E00E94062C80E797E260E070E04AEF64
:104FD00050E020E030E001E0EE24FF240E94163291
:104FE00088E997E260E070E04AEF50E020E030E0CE
:104FF00001E0EE24FF240E9416320E94C834FFCF45
:10500000DF93CF93CDB7DEB728970FB6F894DEBF06
:105010000FBECDBF9C838B837E836D8358874F8368
:10502000EB81FC8181E180838B819C8101979C8352
:105030008B83EB81FC8182E280838B819C81019751
:105040009C838B83EB81FC8183E380838B819C81B8
:1050500001979C838B838D819E819A83898389812B
:10506000EB81FC8180838B819C8101979C838B8366
:1050700089819A81892F99279A8389838981EB81F4
:10508000FC8180838B819C8101979C838B83EB8146
:10509000FC8110828B819C8101979C838B83EB81A7
:1050A000FC8180E880838B819C8101979C838B832A
:1050B000EB81FC8110828B819C8101979C838B8387
:1050C000EB81FC8182E080838B819C8101979C83B2
:1050D0008B83EB81FC8183E080838B819C810197B2
:1050E0009C838B83EB81FC8184E080838B819C811A
:1050F00001979C838B83EB81FC8185E080838B818E
:105100009C8101979C838B83EB81FC8186E080836B
:105110008B819C8101979C838B83EB81FC8187E051
:1051200080838B819C8101979C838B83EB81FC81A5
:1051300088E080838B819C8101979C838B83EB81AA
:10514000FC8189E080838B819C8101979C838B8388
:10515000EB81FC8180E180838B819C8101979C8322
:105160008B83EB81FC8181E180838B819C81019722
:105170009C838B83EB81FC8182E180838B819C818A
:1051800001979C838B83EB81FC8183E180838B81FE
:105190009C8101979C838B83EB81FC8184E18083DC
:1051A0008B819C8101979C838B83EB81FC8185E1C2
:1051B00080838B819C8101979C838B83EB81FC8115
:1051C00086E180838B819C8101979C838B83EB811B
:1051D000FC8187E180838B819C8101979C838B83F9
:1051E000EB81FC8188E180838B819C8101979C838A
:1051F0008B83EB81FC8189E180838B819C8101978A
:105200009C838B83EB81FC8180E280838B819C81FA
:1052100001979C838B83EB81FC8181E280838B816E
:105220009C8101979C838B83EB81FC8182E280834C
:105230008B819C8101979C838B83EB81FC8183E232
:1052400080838B819C8101979C838B838F81988540
:105250009A8389838981EB81FC8180838B819C8106
:1052600001979C838B8389819A81892F99279A83BF
:1052700089838981EB81FC8180838B819C8101976B
:105280009C838B83EB81FC8186E280838B819C8174
:1052900001979C838B83EB81FC8187E280838B81E8
:1052A0009C8101979C838B83EB81FC8188E28083C6
:1052B0008B819C8101979C838B83EB81FC8189E2AC
:1052C00080838B819C8101979C838B83EB81FC8104
:1052D00080E380838B819C8101979C838B83EB810E
:1052E000FC8181E380838B819C8101979C838B83EC
:1052F0008B819C8128960FB6F894DEBF0FBECDBF80
:10530000CF91DF910895DF93CF93CDB7DEB70E94A1
:10531000752AA0919405B0919505CD91CDBFDD91F1
:10532000DEBFFF91EF91DF91CF91BF91AF919F9140
:105330008F917F916F915F914F913F912F911F912D
:105340000F91FF90EF90DF90CF90BF90AF909F9024
:105350008F907F906F905F904F903F902F901F9015
:105360000F900FBE0F90089581E0CF91DF910895C7
:10537000DF93CF93CDB7DEB7CF91DF9108950F9232
:105380000FB6F8940F921F9211242F923F924F92D2
:105390005F926F927F928F929F92AF92BF92CF92C5
:1053A000DF92EF92FF920F931F932F933F934F93B0
:1053B0005F936F937F938F939F93AF93BF93CF939D
:1053C000DF93EF93FF93A0919405B09195050DB6EF
:1053D0000D920EB60D920E94E736A0919405B09101
:1053E0009505CD91CDBFDD91DEBFFF91EF91DF91AE
:1053F000CF91BF91AF919F918F917F916F915F916D
:105400004F913F912F911F910F91FF90EF90DF905F
:10541000CF90BF90AF909F908F907F906F905F9054
:105420004F903F902F901F900F900FBE0F900895B8
:105430000F920FB6F8940F921F9211242F923F9261
:105440004F925F926F927F928F929F92AF92BF9294
:10545000CF92DF92EF92FF920F931F932F933F9380
:105460004F935F936F937F938F939F93AF93BF936C
:10547000CF93DF93EF93FF93A0919405B09195059F
:105480000DB60D920EB60D920E940236882311F0D1
:105490000E94E736A0919405B0919505CD91CDBFBE
:1054A000DD91DEBFFF91EF91DF91CF91BF91AF9181
:1054B0009F918F917F916F915F914F913F912F912C
:1054C0001F910F91FF90EF90DF90CF90BF90AF9022
:1054D0009F908F907F906F905F904F903F902F9014
:1054E0001F900F900FBE0F900895DF93CF9300D0C1
:1054F00000D000D0CDB7DEB780E49FE1A0E0B0E0FF
:105500008B839C83AD83BE838B819C81AD81BE8167
:10551000689415F8B695A795979587951694D1F741
:105520008B839C83AD83BE838B819C81AD81BE8147
:105530000197A109B1098B839C83AD83BE838B81C5
:1055400089838B819C81AD81BE81892F9A2FAB2F5E
:10555000BB278B839C83AD83BE838B818A83EBE4E3
:10556000F0E08A818083EAE4F0E0898180838BE047
:105570008983EEE4F0E089818083E9E5F0E08081D1
:105580008983898180618983E9E5F0E0898180836D
:1055900026960FB6F894DEBF0FBECDBFCF91DF9138
:1055A00008950E94182A1895DF93CF9300D000D059
:1055B0000F92CDB7DEB79C838B836D838B819C81EB
:1055C0009A8389830FB6F8940F92E981FA8140811A
:1055D0005181E981FA81838D282F30E0E981FA81B8
:1055E000848D882F90E0BC01269FC001279F900DDD
:1055F000369F900D1124840F951FE981FA819583C0
:105600008483E981FA81128EE981FA818081918116
:10561000E981FA8193838283E981FA814081518112
:10562000E981FA81838D882F90E09C0121503040E0
:10563000E981FA81848D882F90E0BC01269FC0010A
:10564000279F900D369F900D1124840F951FE9819F
:10565000FA8197838683E981FA818FEF858FE981CB
:10566000FA818FEF868F8D81882379F4E981FA8121
:1056700080858823A1F089819A8108960E94A637A7
:10568000882369F00E94BF290AC089819A810896FF
:105690000E943A2689819A8141960E943A260F906B
:1056A0000FBE81E00F900F900F900F900F90CF9151
:1056B000DF9108950F931F93DF93CF93CDB7DEB79C
:1056C00029970FB6F894DEBF0FBECDBF8F836887D2
:1056D00049878885882319F41C821B8210C08F811A
:1056E000282F30E08885882F90E0AC01249FC001EE
:1056F000259F900D349F900D11249C838B838B816B
:105700009C814F960E94BE259E838D838D819E81B4
:105710000097A1F08D819E819A83898389819A81E6
:105720004F969A83898329813A81ED81FE818F8109
:105730006885A90129858F010E94AB2B8D819E81EF
:1057400029960FB6F894DEBF0FBECDBFCF91DF9183
:105750001F910F9108950F931F93DF93CF93CDB7B0
:10576000DEB727970FB6F894DEBF0FBECDBF898393
:105770006A835C834B832D831F830E838A818823F6
:1057800039F48E819F81EE81FF819183808306C0F1
:105790008B819C81EE81FF8191838083EE81FF81EB
:1057A0008981838FEE81FF818A81848F8E819F81A1
:1057B00061E00E94D42A27960FB6F894DEBF0FBE90
:1057C000CDBFCF91DF911F910F910895DF93CF93BC
:1057D00000D000D0CDB7DEB78B836C838B8160E0C7
:1057E00042E00E945A2B9A83898389819A8100978B
:1057F00021F0E981FA818C81828F89819A810F90D1
:105800000F900F900F90CF91DF910895DF93CF937A
:10581000CDB7DEB72F970FB6F894DEBF0FBECDBF62
:10582000998788877B876A875D874C872E871C824C
:10583000888599859A8389830FB6F8940F92E981B8
:10584000FA81928DE981FA81838D981718F08E85FF
:10585000823011F589819A812A853B85B9014E856F
:105860000E9458308B83E981FA818189882351F025
:1058700089819A8141960E94A637882341F00E942F
:10588000BF2905C08B81882311F00E94BF290F908A
:105890000FBE81E08F875CC08C859D85009721F4C9
:1058A0000F900FBE1F8654C08C81882331F4CE0127
:1058B00005960E948C3881E08C830F900FBE0E9469
:1058C00006350FB6F8940F92E981FA81858D8F3FE6
:1058D00019F4E981FA81158EE981FA81868D8F3F6D
:1058E00019F4E981FA81168E0F900FBECE0105964C
:1058F0009E01245F3F4FB9010E94A538882309F516
:1059000089819A810E94D4318823A1F089819A816A
:1059100008962C853D85B9010E94543789819A816A
:105920000E9445310E941235882309F085CF0E94DC
:10593000BF2982CF89819A810E9445310E94123508
:105940007BCF89819A810E9445310E9412351F8642
:105950008F852F960FB6F894DEBF0FBECDBFCF91C7
:10596000DF910895DF93CF93CDB7DEB72C970FB6B5
:10597000F894DEBF0FBECDBF9F838E837987688783
:105980005B874A872C878E819F819B838A831C82B9
:10599000EA81FB81928DEA81FB81838D981718F053
:1059A0008C85823061F5EA81FB81868D89838A81CD
:1059B0009B8128853985B9014C850E9458308981A1
:1059C0008F3FA9F4EA81FB8181898823A9F08A812C
:1059D0009B8141960E94A637882371F08A859B851A
:1059E000009751F0EA85FB8581E0808305C08981BD
:1059F0008F5FEA81FB81868F81E08D8301C01D82EC
:105A00008D812C960FB6F894DEBF0FBECDBFCF911F
:105A1000DF910895DF93CF93CDB7DEB72A970FB606
:105A2000F894DEBF0FBECDBF98878F837A876987D2
:105A30008F8198859C838B831D82EB81FC81828D75
:105A40008A83EB81FC81938D8A81891748F5EB81EC
:105A5000FC81868D89838A818F5FEB81FC81828FB7
:105A600089818F3FA9F4EB81FC8181898823A9F08A
:105A70008B819C8141960E94A637882371F089858D
:105A80009A85009751F0E985FA8581E0808305C009
:105A900089818F5FEB81FC81868F81E08E8301C0DD
:105AA0001E828E812A960FB6F894DEBF0FBECDBF40
:105AB000CF91DF910895DF93CF93CDB7DEB72E97C7
:105AC0000FB6F894DEBF0FBECDBF998788877B875E
:105AD0006A875D874C871C82888599859B838A832A
