:100000000C942A000C9447000C9447000C94470071
:100010000C9447000C9447000C9447000C946D0A14
:100020000C9447000C9447000C9447000C94470034
:100030000C9447000C9447000C9447000C94470024
:100040000C9447000C9447000C9447000C94470014
:100050000C94470011241FBECFE5D8E0DEBFCDBF12
:1000600010E0A0E6B0E0EAEFFBE202C005900D92DE
:10007000A038B107D9F714E0A0E8B0E001C01D92A4
:10008000A633B107E1F70E9464070C94FB150C94AA
:100090000000DF93CF9300D0CDB7DEB789836A83AA
:1000A0008981882F90E0880F991FFC01E359FF4F49
:1000B0000190F081E02D8A8180830F900F90CF9185
:1000C000DF910895DF93CF9300D00F92CDB7DEB7C5
:1000D00089836A834B838B81813029F58981882FBD
:1000E00090E0880F991FFC01E359FF4FA081B18177
:1000F0008981882F90E0880F991FFC01E359FF4FF9
:100100000190F081E02D8081482F8A81282F30E0F6
:1001100081E090E0022E02C0880F991F0A94E2F756
:10012000842B8C9325C08981882F90E0880F991F9C
:10013000FC01E359FF4FA081B1818981882F90E0B4
:10014000880F991FFC01E359FF4F0190F081E02DCA
:100150008081482F8A81282F30E081E090E0022EB4
:1001600002C0880F991F0A94E2F7809584238C932C
:100170000F900F900F90CF91DF910895DF93CF9361
:100180000F92CDB7DEB789838981882F90E0880FE1
:10019000991FFC01E359FF4F0190F081E02D10827F
:1001A0008981882F90E0880F991FFC01EB58FF4F41
:1001B0000190F081E02D8FEF80830F90CF91DF9140
:1001C0000895DF93CF9300D0CDB7DEB789836A83DC
:1001D0008981882F90E0880F991FFC01E359FF4F18
:1001E000A081B1818981882F90E0880F991FFC013F
:1001F000E359FF4F0190F081E02D8081482F8A81E3
:10020000282F30E081E090E002C0880F991F2A95E6
:10021000E2F7809584238C938981882F90E0880F62
:10022000991FFC01EB58FF4FA081B1818981882F74
:1002300090E0880F991FFC01EB58FF4F0190F0816F
:10024000E02D8081482F8A81282F30E081E090E0E6
:10025000022E02C0880F991F0A94E2F7842B8C9318
:100260000F900F90CF91DF910895DF93CF930F926E
:10027000CDB7DEB789838981882F90E0880F991FD9
:10028000FC01EB58FF4F0190F081E02D8FEF808350
:100290000F90CF91DF910895DF93CF930F92CDB759
:1002A000DEB789838981882F90E0880F991FFC0130
:1002B000EB58FF4F0190F081E02D10820F90CF910D
:1002C000DF910895DF93CF9300D0CDB7DEB7898358
:1002D0006A838981882F90E0880F991FFC01EB5871
:1002E000FF4F0190F081E02D8A8180830F900F9065
:1002F000CF91DF910895DF93CF930F92CDB7DEB703
:1003000089838981882F90E0880F991FFC01EB5821
:10031000FF4FA081B1818981882F90E0880F991FBC
:10032000FC01EB58FF4F0190F081E02D808180951A
:100330008C930F90CF91DF910895DF93CF9300D0EE
:10034000CDB7DEB789836A838981882F90E0880FD3
:10035000991FFC01EB58FF4FA081B1818981882F43
:1003600090E0880F991FFC01EB58FF4F0190F0813E
:10037000E02D8081482F8A81282F30E081E090E0B5
:10038000022E02C0880F991F0A94E2F7842B8C93E7
:100390000F900F90CF91DF910895DF93CF9300D00E
:1003A000CDB7DEB789836A838981882F90E0880F73
:1003B000991FFC01EB58FF4FA081B1818981882FE3
:1003C00090E0880F991FFC01EB58FF4F0190F081DE
:1003D000E02D8081482F8A81282F30E081E090E055
:1003E000022E02C0880F991F0A94E2F78095842399
:1003F0008C930F900F90CF91DF910895DF93CF935F
:1004000000D00F92CDB7DEB789836A834B838B818F
:10041000813029F58981882F90E0880F991FFC0190
:10042000EB58FF4FA081B1818981882F90E0880F20
:10043000991FFC01EB58FF4F0190F081E02D808166
:10044000482F8A81282F30E081E090E0022E02C000
:10045000880F991F0A94E2F7842B8C9325C0898119
:10046000882F90E0880F991FFC01EB58FF4FA08167
:10047000B1818981882F90E0880F991FFC01EB588A
:10048000FF4F0190F081E02D8081482F8A81282F35
:1004900030E081E090E0022E02C0880F991F0A949C
:1004A000E2F7809584238C930F900F900F90CF915B
:1004B000DF910895DF93CF9300D0CDB7DEB7898366
:1004C0006A838981882F90E0880F991FFC01EB587F
:1004D000FF4FA081B1818981882F90E0880F991FFB
:1004E000FC01EB58FF4F0190F081E02D8081482FF7
:1004F0008A81282F30E081E090E0022E02C0880F30
:10050000991F0A94E2F784278C930F900F90CF9154
:10051000DF910895DF93CF930F92CDB7DEB7898334
:100520008981882F90E0880F991FFC01EB59FF4FBC
:100530000190F081E02D80810F90CF91DF9108959F
:10054000DF93CF9300D0CDB7DEB789836A838981EB
:10055000882F90E0880F991FFC01EB59FF4F019005
:10056000F081E02D8081282F30E08A81882F90E073
:10057000A90102C0559547958A95E2F7CA01817095
:100580000F900F90CF91DF910895DF93CF93CDB768
:10059000DEB727970FB6F894DEBF0FBECDBF9D83A1
:1005A0008C836E834F838AE190E00E949D059A833D
:1005B000898389819A81009709F46FC080918000B6
:1005C00090918100009741F489819A8190938100F4
:1005D000809380000E942C058E81823010F081E093
:1005E0008E83E981FA81118E108EE981FA818E81E4
:1005F000868BE981FA818F81878BE981FA818C81F1
:100600009D819183808389819A8102960E9433061D
:1006100089819A810C960E943306E981FA81898149
:100620009A8191878087E981FA8189819A81938B68
:10063000828B8E81282F30E084E090E0821B930B28
:10064000E981FA8195878487E981FA819689809189
:100650008200891728F4E981FA81868980938200D3
:10066000E981FA818689282F30E0C901880F991F16
:10067000880F991F880F991F820F931FAC0147574E
:100680005F4F89819A819C012E5F3F4FCA01B9015A
:100690000E94430681E08B8302C08FEF8B838B81A6
:1006A00027960FB6F894DEBF0FBECDBFCF91DF9176
:1006B0000895DF93CF9300D000D000D0CDB7DEB740
:1006C0009C838B837E836D83209183003091840093
:1006D0008B819C81820F931F9A83898380918000F4
:1006E0009091810002960E94FB06E0918000F091BB
:1006F000810089819A819383828320918300309144
:10070000840089819A818217930770F48091AF00E9
:100710009091B00020918000309181002E5F3F4F7A
:10072000B9010E948F060DC08091AD009091AE007E
:1007300020918000309181002E5F3F4FB9010E94CF
:100740008F068D819E81009761F08091800090914D
:1007500081009C01245F3F4F8D819E81B9010E94E1
:100760008F0626960FB6F894DEBF0FBECDBFCF9191
:10077000DF910895DF93CF9300D0CDB7DEB73AC0B5
:10078000F894E091B600F091B700868197819A8342
:10079000898389819A810C960E94FB0678948981CD
:1007A0009A8102960E94FB06E981FA8196898091DE
:1007B0008200891728F4E981FA8186898093820072
:1007C000E981FA818689282F30E0C901880F991FB5
:1007D000880F991F880F991F820F931FAC014757ED
:1007E0005F4F89819A819C012E5F3F4FCA01B901F9
:1007F0000E9443068091B100882309F0C1CF0F9079
:100800000F90CF91DF910895DF93CF9300D000D068
:10081000CDB7DEB70E94C3112091850030918600CC
:10082000821B930B909388008093870085C08091F2
:1008300083009091840001969093840080938300BC
:100840008091870090918800019790938800809311
:1008500087008091830090918400009709F064C024
:100860008091AD009091AE009A8389838091AF0012
:100870009091B0009093AE008093AD0089819A81F1
:100880009093B0008093AF004FC0E091AD00F09125
:10089000AE000580F681E02D868197819C838B8355
:1008A000EB81FC81228133818091830090918400CF
:1008B0008217930708F440C0F8948B819C810296BC
:1008C0000E94FB06EB81FC8184899589009729F0C1
:1008D0008B819C810C960E94FB067894EB81FC81B5
:1008E000968980918200891728F4EB81FC818689A2
:1008F00080938200EB81FC818689282F30E0C9013A
:10090000880F991F880F991F880F991F820F931FB7
:10091000AC0147575F4F8B819C819C012E5F3F4FFD
:10092000CA01B9010E944306E091AD00F091AE000A
:100930008081882309F0A9CF809187009091880059
:10094000009709F074CF8091830090918400909378
:100950008600809385000F900F900F900F90CF919D
:10096000DF910895DF93CF9300D0CDB7DEB70E941B
:10097000BA030E9404040AC080918200882309F40B
:1009800066C08091820081508093820080918200B5
:10099000282F30E0C901880F991F880F991F880FF1
:1009A000991F820F931FFC01E757FF4F8081882317
:1009B00019F380918200282F30E0C901880F991F18
:1009C000880F991F880F991F820F931F87579F4F7A
:1009D0009A838983E981FA810180F281E02D828105
:1009E0009381E981FA8192838183E981FA8121816E
:1009F000328189819A8103962817390759F4E98150
:100A0000FA810180F281E02D82819381E981FA816E
:100A100092838183E981FA810180F281E02D8681D0
:100A200097819093810080938000E0918000F09105
:100A30008100408151818091800090918100E091FE
:100A40008000F09181002789622FFA0109950F90AB
:100A50000F90CF91DF910895DF93CF930F92CDB791
:100A6000DEB7198213C08981282F30E0C901880FB1
:100A7000991F880F991F880F991F820F931F8757FF
:100A80009F4F0E94090689818F5F89838981823007
:100A900050F38BE990E00E94090684EA90E00E94FE
:100AA000090681EB90E00E9409068BE990E09093A3
:100AB000AE008093AD0084EA90E09093B000809304
:100AC000AF000F90CF91DF910895DF93CF9300D0C7
:100AD00000D00F92CDB7DEB79D838C83EC81FD8172
:100AE0000580F681E02D868197819B838A838A81A8
:100AF0009B810C960E94FB068A819B819C01245F4E
:100B00003F4F81EB90E0B9010E944306EA81FB81EF
:100B10009689E0918000F09181008689981718F0FD
:100B200081E0898301C0198289810F900F900F9015
:100B30000F900F90CF91DF910895DF93CF9300D066
:100B400000D0CDB7DEB79C838B831A8219820E94B6
:100B50002D118091BA009091BB002B813C81820FB6
:100B6000931F23E08032920718F52091BA0030914C
:100B7000BB008B819C81280F391F8091BA00909116
:100B8000BB0082179307A0F48091BA009091BB003C
:100B900084549F4F9A8389832091BA003091BB007F
:100BA0008B819C81820F931F9093BB008093BA002E
:100BB0000E94391189819A810F900F900F900F90A8
:100BC000CF91DF910895DF93CF9300D0CDB7DEB7FB
:100BD0009A8389830F900F90CF91DF910895DF93CF
:100BE000CF93CDB7DEB71092BB001092BA00CF9171
:100BF000DF910895DF93CF93CDB7DEB72091BA0090
:100C00003091BB0080E293E0821B930BCF91DF9188
:100C10000895DF93CF9300D0CDB7DEB79A83898351
:100C200089819A810396E981FA8192838183E9819E
:100C3000FA818FEF9FEF9483838389819A81039652
:100C4000E981FA819683858389819A810396E98176
:100C5000FA8190878783E981FA8110820F900F9043
:100C6000CF91DF910895DF93CF9300D0CDB7DEB75A
:100C70009A838983E981FA81118610860F900F90FB
:100C8000CF91DF910895DF93CF9300D000D000D0B3
:100C9000CDB7DEB79C838B837E836D83EB81FC8134
:100CA000818192819A838983E981FA81828193810A
:100CB000ED81FE8193838283EB81FC81818192812E
:100CC000ED81FE8195838483E981FA810280F3813D
:100CD000E02D8D819E81958384838D819E81E98124
:100CE000FA81938382838D819E81EB81FC81928343
:100CF0008183ED81FE818B819C8191878087EB814F
:100D0000FC8180818F5FEB81FC81808326960FB60A
:100D1000F894DEBF0FBECDBFCF91DF910895DF9372
:100D2000CF93CDB7DEB728970FB6F894DEBF0FBECE
:100D3000CDBF9E838D8378876F83EF81F885808117
:100D400091819A83898389819A812FEF8F3F9207BE
:100D500039F4ED81FE81878190859C838B8318C057
:100D60008D819E8103969C838B8306C0EB81FC81E1
:100D7000828193819C838B83EB81FC810280F38150
:100D8000E02D2081318189819A818217930770F744
:100D9000EB81FC8182819381EF81F885938382834B
:100DA000EF81F8850280F381E02D8F81988595830E
:100DB0008483EF81F8858B819C81958384838F81E7
:100DC0009885EB81FC8193838283EF81F8858D8107
:100DD0009E8191878087ED81FE8180818F5FED818B
:100DE000FE81808328960FB6F894DEBF0FBECDBF7C
:100DF000CF91DF910895DF93CF9300D000D0CDB78E
:100E0000DEB79C838B83EB81FC81A281B381EB8174
:100E1000FC818481958115969C938E931497EB8128
:100E2000FC81A481B581EB81FC8182819381139641
:100E30009C938E931297EB81FC81808591859A8398
:100E40008983E981FA81218132818B819C812817F4
:100E5000390741F4EB81FC8184819581E981FA8134
:100E600092838183EB81FC8111861086E981FA816E
:100E700080818150E981FA8180830F900F900F90DB
:100E80000F90CF91DF910895DF93CF9300D0CDB72E
:100E9000DEB79A83898380E060E00E945A0284EF83
:100EA00091E00E94B510F7CFDF93CF9300D0CDB77C
:100EB000DEB79A83898380E061E00E945A0288EE5F
:100EC00093E00E94B510F7CFAF92BF92CF92DF921E
:100ED000EF92FF920F93DF93CF93CDB7DEB780E011
:100EE00060E041E00E94620080E061E041E00E9439
:100EF000620084E497E060E070E044E650E020E0C7
:100F000030E003E0EE24FF24CC24DD24AA24BB241B
:100F10000E94F10E84E597E060E070E044E650E066
:100F200020E030E001E0EE24FF24CC24DD24AA24DC
:100F3000BB240E94F10E0E94EA10FFCFDF93CF93F3
:100F4000CDB7DEB728970FB6F894DEBF0FBECDBF82
:100F50009C838B837E836D8358874F83EB81FC81D9
:100F600081E180838B819C8101979C838B83EB81C2
:100F7000FC8182E280838B819C8101979C838B839F
:100F8000EB81FC8183E380838B819C8101979C832F
:100F90008B838D819E819A8389838981EB81FC81FA
:100FA00080838B819C8101979C838B8389819A812B
:100FB000892F99279A8389838981EB81FC8180839A
:100FC0008B819C8101979C838B83EB81FC811082B8
:100FD0008B819C8101979C838B83EB81FC8180E8D2
:100FE00080838B819C8101979C838B83EB81FC8127
:100FF00010828B819C8101979C838B83EB81FC8188
:1010000082E080838B819C8101979C838B83EB8121
:10101000FC8183E080838B819C8101979C838B83FF
:10102000EB81FC8184E080838B819C8101979C8390
:101030008B83EB81FC8185E080838B819C81019790
:101040009C838B83EB81FC8186E080838B819C81F8
:1010500001979C838B83EB81FC8187E080838B816C
:101060009C8101979C838B83EB81FC8188E080834A
:101070008B819C8101979C838B83EB81FC8189E030
:1010800080838B819C8101979C838B83EB81FC8186
:1010900080E180838B819C8101979C838B83EB8192
:1010A000FC8181E180838B819C8101979C838B8370
:1010B000EB81FC8182E180838B819C8101979C8301
:1010C0008B83EB81FC8183E180838B819C81019701
:1010D0009C838B83EB81FC8184E180838B819C8169
:1010E00001979C838B83EB81FC8185E180838B81DD
:1010F0009C8101979C838B83EB81FC8186E18083BB
:101100008B819C8101979C838B83EB81FC8187E1A0
:1011100080838B819C8101979C838B83EB81FC81F5
:1011200088E180838B819C8101979C838B83EB81F9
:10113000FC8189E180838B819C8101979C838B83D7
:10114000EB81FC8180E280838B819C8101979C8371
:101150008B83EB81FC8181E280838B819C81019771
:101160009C838B83EB81FC8182E280838B819C81D9
:1011700001979C838B83EB81FC8183E280838B814D
:101180009C8101979C838B838F8198859A83898327
:101190008981EB81FC8180838B819C8101979C8379
:1011A0008B8389819A81892F99279A838983898161
:1011B000EB81FC8180838B819C8101979C838B8355
:1011C000EB81FC8186E280838B819C8101979C83EB
:1011D0008B83EB81FC8187E280838B819C810197EB
:1011E0009C838B83EB81FC8188E280838B819C8153
:1011F00001979C838B83EB81FC8189E280838B81C7
:101200009C8101979C838B83EB81FC8180E38083AD
:101210008B819C8101979C838B83EB81FC8181E393
:1012200080838B819C8101979C838B838B819C81A4
:1012300028960FB6F894DEBF0FBECDBFCF91DF91D9
:101240000895DF93CF93CDB7DEB70E94110AA09126
:10125000DC03B091DD03CD91CDBFDD91DEBFFF9109
:10126000EF91DF91CF91BF91AF919F918F917F913E
:101270006F915F914F913F912F911F910F91FF902F
:10128000EF90DF90CF90BF90AF909F908F907F9026
:101290006F905F904F903F902F901F900F900FBED8
:1012A0000F90089581E0CF91DF910895DF93CF9360
:1012B000CDB7DEB7CF91DF9108950F920FB6F894B6
:1012C0000F921F9211242F923F924F925F926F9232
:1012D0007F928F929F92AF92BF92CF92DF92EF92C6
:1012E000FF920F931F932F933F934F935F936F93AF
:1012F0007F938F939F93AF93BF93CF93DF93EF939E
:10130000FF93A091DC03B091DD030DB60D920EB6F4
:101310000D920E94CD12A091DC03B091DD03CD911E
:10132000CDBFDD91DEBFFF91EF91DF91CF91BF91F6
:10133000AF919F918F917F916F915F914F913F916D
:101340002F911F910F91FF90EF90DF90CF90BF9062
:10135000AF909F908F907F906F905F904F903F9055
:101360002F901F900F900FBE0F9008950F920FB601
:10137000F8940F921F9211242F923F924F925F92F6
:101380006F927F928F929F92AF92BF92CF92DF9295
:10139000EF92FF920F931F932F933F934F935F937F
:1013A0006F937F938F939F93AF93BF93CF93DF936D
:1013B000EF93FF93A091DC03B091DD030DB60D9286
:1013C0000EB60D920E94F8110E94CD12A091DC037E
:1013D000B091DD03CD91CDBFDD91DEBFFF91EF91E7
:1013E000DF91CF91BF91AF919F918F917F916F913D
:1013F0005F914F913F912F911F910F91FF90EF902F
:10140000DF90CF90BF90AF909F908F907F906F9024
:101410005F904F903F902F901F900F900FBE0F90B6
:101420000895DF93CF9300D000D000D0CDB7DEB7C2
:1014300080E49FE1A0E0B0E08B839C83AD83BE831A
:101440008B819C81AD81BE81689415F8B695A79576
:10145000979587951694D1F78B839C83AD83BE8334
:101460008B819C81AD81BE810197A109B1098B83DC
:101470009C83AD83BE838B8189838B819C81AD816D
:10148000BE81892F9A2FAB2FBB278B839C83AD8383
:10149000BE838B818A83EBE4F0E08A818083EAE477
:1014A000F0E0898180838BE08983EEE4F0E089813C
:1014B0008083E9E5F0E08081898389818061898387
:1014C000E9E5F0E08981808326960FB6F894DEBFC7
:1014D0000FBECDBFCF91DF9108950E94B609189538
:1014E000DF93CF93CDB7DEB728970FB6F894DEBF62
:1014F0000FBECDBF8F8368871A8219828F818823A0
:1015000009F48CC08FE190E00E949D059E838D833D
:101510008D819E81009709F481C08F81282F30E052
:101520008885882F90E0AC01249FC001259F900DF5
:10153000349F900D112401969C838B838B819C8119
:101540000E949D05ED81FE8191838083ED81FE8166
:1015500080819181009709F45DC0ED81FE81408119
:1015600051818F81282F30E08885882F90E0BC0141
:10157000269FC001279F900D369F900D1124840F48
:10158000951FED81FE8193838283ED81FE81128E12
:10159000ED81FE8180819181ED81FE81958384833F
:1015A000ED81FE81408151818F81882F90E09C01E7
:1015B000215030408885882F90E0BC01269FC001D3
:1015C000279F900D369F900D1124840F951FED815C
:1015D000FE8197838683ED81FE818F81838FED81EC
:1015E000FE818885848FED81FE818FEF858FED816F
:1015F000FE818FEF868F8D819E8108960E9409065D
:101600008D819E8141960E9409068D819E819A83DB
:10161000898304C08D819E810E94E30589819A811E
:1016200028960FB6F894DEBF0FBECDBFCF91DF91E5
:101630000895DF93CF93CDB7DEB72C970FB6F8940C
:10164000DEBF0FBECDBF9E838D8378876F835A87A1
:1016500049872B8719820FB6F8940F92ED81FE818E
:10166000928DED81FE81838D9817D8F48D819E81B6
:101670002F813885B9014B850E94540DED81FE8183
:101680008189882349F08D819E8141960E9469134A
:10169000813011F40E945D090F900FBE81E08C87AC
:1016A0005CC089859A85009721F40F900FBE1C8637
:1016B00054C08981882331F4CE0102960E94D1134F
:1016C00081E089830F900FBE0E942D110FB6F89410
:1016D0000F92ED81FE81858D8F3F19F4ED81FE81A2
:1016E000158EED81FE81868D8F3F19F4ED81FE818F
:1016F000168E0F900FBECE0102969E01275F3F4FC0
:10170000B9010E94EA13882309F58D819E810E9408
:10171000B80E8823A1F08D819E81089629853A858F
:10172000B9010E9433138D819E810E94310E0E9467
:101730003911882309F08FCF0E945D098CCF8D81EC
:101740009E810E94310E0E94391185CF8D819E812C
:101750000E94310E0E9439111C868C852C960FB682
:10176000F894DEBF0FBECDBFCF91DF910895DF9318
:10177000CF93CDB7DEB729970FB6F894DEBF0FBE73
:10178000CDBF9C838B837E836D8358874F8329874E
:101790001982EB81FC81928DEB81FC81838D9817FE
:1017A00040F58B819C812D813E81B90149850E9444
:1017B000540DEB81FC81868D8F3F89F4EB81FC8198
:1017C0008189882399F08B819C8141960E946913BD
:1017D000882361F0EF81F88581E0808307C0EB8189
:1017E000FC81868D8F5FEB81FC81868F81E08A830F
:1017F00001C01A828A8129960FB6F894DEBF0FBE07
:10180000CDBFCF91DF910895DF93CF93CDB7DEB7F2
:101810002E970FB6F894DEBF0FBECDBF98878F838B
:101820007A8769875C874B872D871B820FB6F89470
:101830000F92EF81F885828D882309F43FC0EF81F4
:10184000F885868197819A8389838F8198852985F8
:101850003A85B9010E94E90D8D858823B1F4EF81A5
:10186000F885828D8150EF81F885828FEF81F88530
:1018700080858823F1F08F81988508960E946913EE
:101880008130B9F40E945D0914C0EF81F885898127
:101890009A8197838683EF81F8858189882349F02F
:1018A0008F81988541960E946913882311F00E94C8
:1018B0005D090F900FBE81E08E875CC08B859C8593
:1018C000009721F40F900FBE1E8654C08B81882391
:1018D00031F4CE0104960E94D11381E08B830F90E6
:1018E0000FBE0E942D110FB6F8940F92EF81F8856C
:1018F000858D8F3F19F4EF81F885158EEF81F8857E
:10190000868D8F3F19F4EF81F885168E0F900FBEEC
:10191000CE0104969E01255F3F4FB9010E94EA1354
:10192000882309F58F8198850E94850E8823A1F070
:101930008F81988541962B853C85B9010E94331390
:101940008F8198850E94310E0E943911882309F0F9
:101950006DCF0E945D096ACF8F8198850E94310EFC
:101960000E94391163CF8F8198850E94310E0E94A9
:1019700039111E868E852E960FB6F894DEBF0FBEE7
:10198000CDBFCF91DF910895DF93CF93CDB7DEB771
:1019900028970FB6F894DEBF0FBECDBF9C838B8314
:1019A0007E836D8358874F831982EB81FC81828D02
:1019B000882371F18B819C812D813E81B9010E9428
:1019C000E90DEB81FC81828D8150EB81FC81828F5E
:1019D000EB81FC81858D8F3F89F4EB81FC818085D3
:1019E000882399F08B819C8108960E946913882333
:1019F00061F0EF81F88581E0808307C0EB81FC8195
:101A0000858D8F5FEB81FC81858F81E08A8301C0AA
:101A10001A828A8128960FB6F894DEBF0FBECDBF1A
:101A2000CF91DF910895DF93CF9300D00F92CDB780
:101A3000DEB79B838A830FB6F8940F92EA81FB810D
:101A4000828D89830F900FBE89810F900F900F9028
:101A5000CF91DF910895DF93CF9300D00F92CDB750
:101A6000DEB79B838A83EA81FB81828D89838981AA
:101A70000F900F900F90CF91DF910895DF93CF9348
:101A800000D0CDB7DEB79A838983E981FA8180815E
:101A900091810E94E30589819A810E94E3050F905C
:101AA0000F90CF91DF910895DF93CF9300D000D0B6
:101AB0000F92CDB7DEB79A8389837C836B834D8386
:101AC000E981FA81848D882309F474C08D8188238B
:101AD00099F5E981FA8164817581E981FA81848DC2
:101AE000482F50E02B813C81CB01B9010E94DC15CD
:101AF000E981FA8124813581E981FA81848D882FF9
:101B000090E0820F931FE981FA8195838483E981B4
:101B1000FA8124813581E981FA81828193812817B4
:101B2000390708F447C0E981FA8180819181E98110
:101B3000FA81958384833EC0E981FA816681778149
:101B4000E981FA81848D482F50E02B813C81CB01C3
:101B5000B9010E94DC15E981FA8126813781E9818A
:101B6000FA81848D882F90E0909581959F4F820F08
:101B7000931FE981FA8197838683E981FA8126811F
:101B80003781E981FA81808191812817390790F4A2
:101B9000E981FA8122813381E981FA81848D882F5C
:101BA00090E0909581959F4F820F931FE981FA8174
:101BB00097838683E981FA81828D8F5FE981FA813B
:101BC000828F0F900F900F900F900F90CF91DF9119
:101BD0000895DF93CF9300D000D0CDB7DEB79A83BE
:101BE00089837C836B83E981FA818081918100976D
:101BF00089F1E981FA8126813781E981FA81848D31
:101C0000882F90E0820F931FE981FA819783868362
:101C1000E981FA8126813781E981FA818281938184
:101C20002817390740F0E981FA8180819181E981A3
:101C3000FA8197838683E981FA8146815781E98118
:101C4000FA81848D282F30E08B819C81BA01A90113
:101C50000E94DC150F900F900F900F90CF91DF91A5
:101C60000895DF93CF9300D0CDB7DEB79A838983F1
:101C70000FB6F8940F9215C0E981FA818189882303
:101C8000A9F089819A8141960E946913882311F0F5
:101C90000E944714E981FA81868D8150E981FA8199
:101CA000868FE981FA81868D181634F3E981FA81ED
:101CB0008FEF868F0F900FBE0FB6F8940F9215C05E
:101CC000E981FA8180858823A9F089819A81089623
:101CD0000E946913882311F00E944714E981FA8158
:101CE000858D8150E981FA81858FE981FA81858D21
:101CF000181634F3E981FA818FEF858F0F900FBEAC
:101D00000F900F90CF91DF910895DF93CF9300D084
:101D10000F92CDB7DEB79B838A830FB6F8940F92EC
:101D2000EA81FB81828D1982882311F481E0898305
:101D30000F900FBE89810F900F900F90CF91DF9180
:101D40000895DF93CF9300D00F92CDB7DEB79B837A
:101D50008A83EA81FB81828D1982882311F481E0D4
:101D6000898389810F900F900F90CF91DF91089513
:101D7000DF93CF9300D00F92CDB7DEB79B838A83DA
:101D80000FB6F8940F92EA81FB81928DEA81FB8174
:101D9000838D1982981711F481E089830F900FBE0B
:101DA00089810F900F900F90CF91DF910895DF936D
:101DB000CF9300D00F92CDB7DEB79B838A83EA81A1
:101DC000FB81928DEA81FB81838D1982981711F432
:101DD00081E0898389810F900F900F90CF91DF91DF
:101DE0000895AF92BF92CF92DF92EF92FF920F933E
:101DF0001F93DF93CF93CDB7DEB764970FB6F894F8
:101E0000DEBF0FBECDBF9F838E83798768875B87D8
:101E10004A873D872C870E87F88AEF86DA8AC98A37
:101E2000BC8AAB8A8A859B8529893A89B9010E9437
:101E300076159C838B838B819C81009709F499C0D4
:101E4000EB81FC812789308D8A859B850197820FE4
:101E5000931F9A8389838B819C8128853985EB899F
:101E6000FC89AA85BB85B9014E859F018D010E9421
:101E70005B1489819A812E813F814C855D85B901F2
:101E80000E949E07EB81FC81918380838F859889D6
:101E9000009731F0EF85F8898B819C819183808355
:101EA0000FB6F8940F928091DF038F5F8093DF036A
:101EB0008091DC039091DD03009769F48B819C8114
:101EC0009093DD038093DC038091DF038130A9F4DC
:101ED0000E94B21412C08091E403882371F4E0914F
:101EE000DC03F091DD0396898E85891730F08B81B4
:101EF0009C819093DD038093DC03EB81FC819689C8
:101F00008091E203891728F4EB81FC818689809314
:101F1000E2038091E9038F5F8093E903EB81FC8109
:101F200096898091E303891728F4EB81FC818689E7
:101F30008093E303EB81FC818689282F30E0C9017F
:101F4000880F991F880F991F880F991F820F931F61
:101F5000AC0146515C4F8B819C819C012E5F3F4FB1
:101F6000CA01B9010E94430681E08D830F900FBE24
:101F700002C08FEF8D838D81813071F48091E403F5
:101F8000882351F0E091DC03F091DD0396898E8582
:101F9000981710F40E945D098D8164960FB6F8942D
:101FA000DEBF0FBECDBFCF91DF911F910F91FF908C
:101FB000EF90DF90CF90BF90AF900895DF93CF93D5
:101FC00000D000D000D0CDB7DEB79C838B830FB696
:101FD000F8940F922091DC033091DD038B819C817A
:101FE0008217930711F41C821B828B819C810097BE
:101FF00039F48091DC039091DD039E838D8304C0CE
:102000008B819C819E838D838D819E819A83898320
:1020100089819A8102960E94FB06E981FA8184896E
:102020009589009729F089819A810C960E94FB0678
:1020300089819A819C012E5F3F4F8DE294E0B90126
:102040000E9443068091DE038F5F8093DE038091C0
:10205000E9038F5F8093E9030F900FBE8091E40343
:10206000882331F08B819C81009711F40E945D09D7
:1020700026960FB6F894DEBF0FBECDBFCF91DF918D
:102080000895DF93CF93CDB7DEB728970FB6F894B6
:10209000DEBF0FBECDBF9E838D8378876F8319828D
:1020A0000E942D11ED81FE81208131818F819885E3
:1020B000820F931F9C838B83ED81FE812081318170
:1020C0008091E0039091E10382179307A8F4ED81DA
:1020D000FE81208131818B819C818217930700F5DD
:1020E0002091E0033091E1038B819C81281739070F
:1020F000B8F481E0898314C0ED81FE8120813181B3
:102100008B819C818217930748F02091E0033091E6
:10211000E1038B819C812817390710F481E08983C2
:10212000ED81FE818B819C819183808389818823CD
:1021300059F08091DC039091DD0302960E94FB062A
:102140008B819C810E942D150E9439118A838A817E
:10215000882311F40E945D0928960FB6F894DEBF1B
:102160000FBECDBFCF91DF910895DF93CF9300D005
:1021700000D00F92CDB7DEB79D838C8319828C81FE
:102180009D810097D1F00E942D112091E0033091A4
:10219000E1038C819D81820F931F9B838A838091B1
:1021A000DC039091DD0302960E94FB068A819B81ED
:1021B0000E942D150E94391189838981882311F489
:1021C0000E945D090F900F900F900F900F90CF918C
:1021D000DF910895AF92BF92CF92DF92EF92FF927C
:1021E0000F93DF93CF930F92CDB7DEB720E630E0A9
:1021F00081E594E1B9014AEF50E020E030E000E0F1
:10220000EE24FF24CC24DD24AA24BB240E94F10E5A
:1022100089838981813051F4F89481E08093E403CB
:102220001092E1031092E0030E9421090F90CF91D8
:10223000DF910F91FF90EF90DF90CF90BF90AF9024
:102240000895DF93CF93CDB7DEB7F8941092E403EF
:102250000E945609CF91DF910895DF93CF93CDB7B8
:10226000DEB78091E5038F5F8093E503CF91DF9127
:102270000895DF93CF9300D000D0CDB7DEB71A8298
:102280000FB6F8940F928091E50381508093E50397
:102290008091E503882309F06CC08091DF038823D7
:1022A00009F467C0198241C0E0912904F0912A0421
:1022B000868197819C838B838B819C810C960E9465
:1022C000FB068B819C8102960E94FB06EB81FC81C0
:1022D00096898091E303891728F4EB81FC81868934
:1022E0008093E303EB81FC818689282F30E0C901CC
:1022F000880F991F880F991F880F991F820F931FAE
:1023000086519C4F2B813C812E5F3F4FB9010E942B
:102310004306EB81FC819689E091DC03F091DD03BB
:102320008689981710F081E089838091240488239E
:1023300009F0BACF8091E603882371F007C00E94AC
:10234000F8118091E60381508093E6038091E603C3
:102350008823A9F781E089838981813021F08091E8
:10236000E703813031F481E08A831092E7030E9411
:102370005D090F900FBE8A810F900F900F900F9004
:10238000CF91DF910895DF93CF9300D0CDB7DEB723
:102390000FB6F8940F928091E0039091E1039A8335
:1023A00089830F900FBE89819A810F900F90CF91F2
:1023B000DF910895DF93CF9300D00F92CDB7DEB7B2
:1023C00019828091E0039091E1039B838A838A8143
:1023D0009B810F900F900F90CF91DF910895DF9325
:1023E000CF93CDB7DEB78091DF03CF91DF91089512
:1023F000DF93CF9300D000D000D0CDB7DEB780916F
:10240000E503882309F0BBC08091E0039091E103CC
:1024100001969093E1038093E0038091E003909113
:10242000E1030097D1F580912004909121049C83D1
:102430008B838091220490912304909321048093B4
:1024400020048B819C8190932304809322048091AB
:10245000E8038F5F8093E803E0912004F09121046A
:102460008081882339F48FEF9FEF90937E008093D3
:102470007D0013C0E0912004F09121040580F681D5
:10248000E02D868197819E838D83ED81FE818281FF
:10249000938190937E0080937D002091E0033091A2
:1024A000E10380917D0090917E002817390708F4A0
:1024B0006BC0E0912004F09121048081882339F4DD
:1024C0008FEF9FEF90937E0080937D005DC0E09141
:1024D0002004F09121040580F681E02D868197810A
:1024E0009E838D83ED81FE81828193819A8389838E
:1024F0002091E0033091E10389819A8128173907FF
:1025000038F489819A8190937E0080937D003CC04D
:102510008D819E8102960E94FB06ED81FE81848959
:102520009589009729F08D819E810C960E94FB066B
:10253000ED81FE8196898091E303891728F4ED816E
:10254000FE8186898093E303ED81FE818689282FB1
:1025500030E0C901880F991F880F991F880F991FB4
:10256000820F931FAC0146515C4F8D819E819C016F
:102570002E5F3F4FCA01B9010E9443069ACF809156
:10258000E6038F5F8093E60326960FB6F894DEBFCE
:102590000FBECDBFCF91DF910895DF93CF9300D0D1
:1025A000CDB7DEB78091E503882349F081E08093C1
:1025B000E70354C08091E30381508093E30380914B
:1025C000E303282F30E0C901880F991F880F991F56
:1025D000880F991F820F931FFC01E651FC4F8081E9
:1025E000882341F38091E303282F30E0C901880F4D
:1025F000991F880F991F880F991F820F931F86516B
:102600009C4F9A838983E981FA810180F281E02DD0
:1026100082819381E981FA8192838183E981FA81C0
:102620002181328189819A8103962817390759F4CB
:10263000E981FA810180F281E02D82819381E98133
:10264000FA8192838183E981FA810180F281E02D10
:10265000868197819093DD038093DC030F900F9028
:10266000CF91DF910895DF93CF9300D000D000D0B9
:10267000CDB7DEB79C838B837E836D834B815C817A
:102680008091DC039091DD039C01245F3F4FCA01E0
:10269000B9010E948F068091DC039091DD030296C0
:1026A0000E94FB062091E0033091E1038D819E8121
:1026B000820F931F9A83898389819A810E942D15A5
:1026C00026960FB6F894DEBF0FBECDBFCF91DF9137
:1026D0000895DF93CF9300D000D00F92CDB7DEB72F
:1026E0009D838C83EC81FD810580F681E02D8681C0
:1026F00097819B838A838A819B810C960E94FB062B
:102700008091E503882361F58A819B8102960E946E
:10271000FB06EA81FB8196898091E303891728F4FF
:10272000EA81FB8186898093E303EA81FB818689C4
:10273000282F30E0C901880F991F880F991F880F33
:10274000991F820F931FAC0146515C4F8A819B8178
:102750009C012E5F3F4FCA01B9010E9443060AC087
:102760008A819B819C01245F3F4F84E294E0B90100
:102770000E944306EA81FB819689E091DC03F09197
:10278000DD038689981718F081E0898301C01982DA
:1027900089810F900F900F900F900F90CF91DF9144
:1027A0000895DF93CF9300D0CDB7DEB79A838983A6
:1027B0008091E803E981FA8180838091E003909120
:1027C000E103E981FA81928381830F900F90CF9189
:1027D000DF910895DF93CF9300D000D00F92CDB753
:1027E000DEB79B838A837D836C830FB6F8940F9248
:1027F000EA81FB8190818091E803981771F0EA816A
:10280000FB81218132818091E0039091E103821765
:10281000930718F081E089832FC02091E003309165
:10282000E103EA81FB8181819281281B390BEC81D4
:10283000FD818081918128173907E0F4EC81FD81C9
:1028400040815181EA81FB81218132818091E003C5
:102850009091E103B901681B790BCB01840F951F9F
:10286000EC81FD81918380838A819B810E94D113B9
:10287000198202C081E089830F900FBE89810F9079
:102880000F900F900F900F90CF91DF910895DF93ED
:10289000CF93CDB7DEB781E08093E703CF91DF918F
:1028A0000895DF93CF9300D0CDB7DEB79A838983A5
:1028B0000E94EF14FDCF0F931F93DF93CF93CDB7FB
:1028C000DEB729970FB6F894DEBF0FBECDBF9A834F
:1028D00089837C836B834D833F832E83198708878D
:1028E00089819A8149962B813C81B90148E050E069
:1028F0000E94EC15E981FA8110A28D81843010F0DC
:1029000083E08D83E981FA818D81868B89819A812B
:1029100002960E94330689819A810C960E943306A2
:10292000E981FA8189819A81918780878D81282F19
:1029300030E084E090E0821B930BE981FA81958777
:102940008487E981FA8189819A81938B828B299688
:102950000FB6F894DEBF0FBECDBFCF91DF911F91B0
:102960000F910895DF93CF930F92CDB7DEB7198201
:1029700013C08981282F30E0C901880F991F880F63
:10298000991F880F991F820F931F86519C4F0E9499
:10299000090689818F5F89838981843050F38EE0B5
:1029A00094E00E94090687E194E00E94090684E20F
:1029B00094E00E9409068DE294E00E9409068EE0F0
:1029C00094E0909321048093200487E194E0909315
:1029D0002304809322040F90CF91DF910895DF9319
:1029E000CF9300D00F92CDB7DEB78091DE0388235E
:1029F00071F10E942D1180912D041B82882311F406
:102A000081E08B830E9439118B81882301F50FB6F9
:102A1000F8940F92E0913204F0913304868197810B
:102A20009A83898389819A8102960E94FB0680910C
:102A3000DF0381508093DF038091DE038150809318
:102A4000DE030F900FBE89819A810E94C6150F90F8
:102A50000F900F90CF91DF910895DF93CF9300D027
:102A6000CDB7DEB79A838983E091DC03F091DD0373
:102A700089819A81938382832091E0033091E103DD
:102A800089819A818217930770F480912204909132
:102A900023042091DC033091DD032E5F3F4FB90109
:102AA0000E948F061EC04091200450912104809105
:102AB000DC039091DD039C012E5F3F4FCA01B901F9
:102AC0000E948F0620917D0030917E0089819A813D
:102AD0008217930730F489819A8190937E008093C6
:102AE0007D000F900F90CF91DF910895DF93CF93EA
:102AF000CDB7DEB728970FB6F894DEBF0FBECDBFB7
:102B00009C838B837E836D8381E290E00E949D0590
:102B10009A83898389819A81009769F18D819E8149
:102B2000009739F48B819C810E949D0598878F8343
:102B300004C08D819E8198878F83E981FA818F817E
:102B40009885908F878BE981FA818789908D00978E
:102B500039F489819A810E94E3051A8219820BC097
:102B6000E981FA818789908D2B813C8165EA70E04B
:102B7000A9010E94E51589819A8128960FB6F894DB
:102B8000DEBF0FBECDBFCF91DF910895DF93CF930E
:102B900000D0CDB7DEB79A838983E981FA8187892E
:102BA000908D0E94E30589819A810E94E3050F9030
:102BB0000F90CF91DF910895FB01DC0102C00190DD
:102BC0000D9241505040D8F70895DC0101C06D933B
:102BD00041505040E0F70895FB01DC014150504066
:102BE00048F001900D920020C9F701C01D9241509C
:0A2BF0005040E0F70895F894FFCF7D
:102BFA0049444C450039003600330030003A00376A
:102C0A0000340031003B00380035003200FFFF007D
:00000001FF
