:100000000C942A000C94C5020C94F8020C942B0357
:100010000C9447000C9447000C9447000C94470044
:100020000C9447000C9447000C9447000C94470034
:100030000C9447000C9447000C9447000C94470024
:100040000C9447000C9447000C9447000C94470014
:100050000C94470011241FBECFE5D8E0DEBFCDBF12
:1000600010E0A0E6B0E0E8ECF9E002C005900D92E7
:10007000A837B107D9F710E0A8E7B0E001C01D929A
:10008000AE37B107E1F70E94C3040C94E2040C946C
:100090000000DF93CF9300D0CDB7DEB789836A83AA
:1000A0008981882F90E0880F991FFC01E859FF4F44
:1000B0000190F081E02D8A8180830F900F90CF9185
:1000C000DF910895DF93CF9300D00F92CDB7DEB7C5
:1000D00089836A834B838B81813029F58981882FBD
:1000E00090E0880F991FFC01E859FF4FA081B18172
:1000F0008981882F90E0880F991FFC01E859FF4FF4
:100100000190F081E02D8081482F8A81282F30E0F6
:1001100081E090E0022E02C0880F991F0A94E2F756
:10012000842B8C9325C08981882F90E0880F991F9C
:10013000FC01E859FF4FA081B1818981882F90E0AF
:10014000880F991FFC01E859FF4F0190F081E02DC5
:100150008081482F8A81282F30E081E090E0022EB4
:1001600002C0880F991F0A94E2F7809584238C932C
:100170000F900F900F90CF91DF910895DF93CF9361
:100180000F92CDB7DEB789838981882F90E0880FE1
:10019000991FFC01E859FF4F0190F081E02D10827A
:1001A0008981882F90E0880F991FFC01E059FF4F4B
:1001B0000190F081E02D8FEF80830F90CF91DF9140
:1001C0000895DF93CF9300D0CDB7DEB789836A83DC
:1001D0008981882F90E0880F991FFC01E859FF4F13
:1001E000A081B1818981882F90E0880F991FFC013F
:1001F000E859FF4F0190F081E02D8081482F8A81DE
:10020000282F30E081E090E002C0880F991F2A95E6
:10021000E2F7809584238C938981882F90E0880F62
:10022000991FFC01E059FF4FA081B1818981882F7E
:1002300090E0880F991FFC01E059FF4F0190F08179
:10024000E02D8081482F8A81282F30E081E090E0E6
:10025000022E02C0880F991F0A94E2F7842B8C9318
:100260000F900F90CF91DF910895DF93CF930F926E
:10027000CDB7DEB789838981882F90E0880F991FD9
:10028000FC01E059FF4F0190F081E02D8FEF80835A
:100290000F90CF91DF910895DF93CF930F92CDB759
:1002A000DEB789838981882F90E0880F991FFC0130
:1002B000E059FF4F0190F081E02D10820F90CF9117
:1002C000DF910895DF93CF9300D0CDB7DEB7898358
:1002D0006A838981882F90E0880F991FFC01E0597B
:1002E000FF4F0190F081E02D8A8180830F900F9065
:1002F000CF91DF910895DF93CF930F92CDB7DEB703
:1003000089838981882F90E0880F991FFC01E0592B
:10031000FF4FA081B1818981882F90E0880F991FBC
:10032000FC01E059FF4F0190F081E02D8081809524
:100330008C930F90CF91DF910895DF93CF9300D0EE
:10034000CDB7DEB789836A838981882F90E0880FD3
:10035000991FFC01E059FF4FA081B1818981882F4D
:1003600090E0880F991FFC01E059FF4F0190F08148
:10037000E02D8081482F8A81282F30E081E090E0B5
:10038000022E02C0880F991F0A94E2F7842B8C93E7
:100390000F900F90CF91DF910895DF93CF9300D00E
:1003A000CDB7DEB789836A838981882F90E0880F73
:1003B000991FFC01E059FF4FA081B1818981882FED
:1003C00090E0880F991FFC01E059FF4F0190F081E8
:1003D000E02D8081482F8A81282F30E081E090E055
:1003E000022E02C0880F991F0A94E2F78095842399
:1003F0008C930F900F90CF91DF910895DF93CF935F
:1004000000D00F92CDB7DEB789836A834B838B818F
:10041000813029F58981882F90E0880F991FFC0190
:10042000E059FF4FA081B1818981882F90E0880F2A
:10043000991FFC01E059FF4F0190F081E02D808170
:10044000482F8A81282F30E081E090E0022E02C000
:10045000880F991F0A94E2F7842B8C9325C0898119
:10046000882F90E0880F991FFC01E059FF4FA08171
:10047000B1818981882F90E0880F991FFC01E05994
:10048000FF4F0190F081E02D8081482F8A81282F35
:1004900030E081E090E0022E02C0880F991F0A949C
:1004A000E2F7809584238C930F900F900F90CF915B
:1004B000DF910895DF93CF9300D0CDB7DEB7898366
:1004C0006A838981882F90E0880F991FFC01E05989
:1004D000FF4FA081B1818981882F90E0880F991FFB
:1004E000FC01E059FF4F0190F081E02D8081482F01
:1004F0008A81282F30E081E090E0022E02C0880F30
:10050000991F0A94E2F784278C930F900F90CF9154
:10051000DF910895DF93CF930F92CDB7DEB7898334
:100520008981882F90E0880F991FFC01E05AFF4FC6
:100530000190F081E02D80810F90CF91DF9108959F
:10054000DF93CF9300D0CDB7DEB789836A838981EB
:10055000882F90E0880F991FFC01E05AFF4F01900F
:10056000F081E02D8081282F30E08A81882F90E073
:10057000A90102C0559547958A95E2F7CA01817095
:100580000F900F90CF91DF9108951F920F920FB6A9
:100590000F9211242F933F934F935F936F937F9309
:1005A0008F939F93AF93BF93EF93FF93DF93CF937B
:1005B000CDB7DEB780917A0090917B00009729F04B
:1005C000E0917A00F0917B000995CF91DF91FF9146
:1005D000EF91BF91AF919F918F917F916F915F91BB
:1005E0004F913F912F910F900FBE0F901F90189534
:1005F0001F920F920FB60F9211242F933F934F9398
:100600005F936F937F938F939F93AF93BF93EF937A
:10061000FF93DF93CF93CDB7DEB780917C009091AD
:100620007D00009729F0E0917C00F0917D00099514
:10063000CF91DF91FF91EF91BF91AF919F918F91FA
:100640007F916F915F914F913F912F910F900FBECE
:100650000F901F9018951F920F920FB60F921124B2
:100660002F933F934F935F936F937F938F939F93BA
:10067000AF93BF93EF93FF93DF93CF93CDB7DEB7E5
:100680008091780090917900009729F0E0917800AE
:10069000F09179000995CF91DF91FF91EF91BF9192
:1006A000AF919F918F917F916F915F914F913F910A
:1006B0002F910F900FBE0F901F901895DF93CF933F
:1006C00000D00F92CDB7DEB789837B836A8389819F
:1006D000882F90E00597880F991FFC01E858FF4F7D
:1006E0008A819B81918380830F900F900F90CF918F
:1006F000DF910895DF93CF9300D00F92CDB7DEB78F
:1007000089838981282F30E03B832A838A819B81DA
:10071000009769F02A813B812130310579F4AFE5FA
:10072000B0E0EFE5F0E0808180688C9307C0AFE532
:10073000B0E0EFE5F0E080818F778C930F900F9021
:100740000F90CF91DF910895DF93CF9300D0CDB775
:10075000DEB789836A838A818130A1F4ABE5B0E09A
:10076000EBE5F0E08081482F8981282F30E081E09F
:1007700090E0022E02C0880F991F0A94E2F7842BA2
:100780008C9314C0ABE5B0E0EBE5F0E08081482F3E
:100790008981282F30E081E090E0022E02C0880F8E
:1007A000991F0A94E2F7809584238C930F900F9001
:1007B000CF91DF910895DF93CF9300D000D0CDB7D4
:1007C000DEB789836A838981282F30E03C832B83BD
:1007D0008B819C818630910561F02B813C81273093
:1007E0003105A9F18B819C818530910509F45DC0AB
:1007F00074C08A818695882F90E0817090708823DC
:1008000041F0A5E5B0E0E5E5F0E0808182608C9301
:1008100007C0A5E5B0E0E5E5F0E080818D7F8C9331
:100820008A81882F90E081709070882341F0A5E53F
:10083000B0E0E5E5F0E0808181608C934EC0A5E5F5
:10084000B0E0E5E5F0E080818E7F8C9346C08A8140
:100850008695882F90E081709070882341F0A5E5FF
:10086000B0E0E5E5F0E0808188608C9307C0A5E505
:10087000B0E0E5E5F0E08081877F8C938A81882F66
:1008800090E081709070882341F0A5E5B0E0E5E547
:10089000F0E0808184608C9320C0A5E5B0E0E5E5C0
:1008A000F0E080818B7F8C9318C08A81882319F0B7
:1008B0008A81813091F48A81813041F4A4E5B0E0ED
:1008C000E4E5F0E0808180648C9307C0A4E5B0E0AB
:1008D000E4E5F0E080818F7B8C930F900F900F9078
:1008E0000F90CF91DF910895DF93CF9300D000D088
:1008F000CDB7DEB789838981282F30E03C832B83F5
:100900008B819C818630910559F02B813C81273069
:10091000310589F08B819C8185309105A9F01EC03D
:10092000EAE5F0E080818295869586958370982F20
:1009300091709A8315C0EAE5F0E08081282F221F8C
:100940002227221F2A830CC0EAE5F0E080818295ED
:1009500086958770382F31703A8302C083E68A8388
:100960008A810F900F900F900F90CF91DF91089593
:10097000DF93CF93CDB7DEB780E060E00E945A02EC
:10098000CF91DF910895DF93CF93CDB7DEB786E0A7
:1009900062E00E94DB0380E060E041E00E946200D0
:1009A00083E062E00E94E10028EB34E086E0B901D8
:1009B0000E945E0386E061E00E94A40381E00E9441
:0809C0007A03FFCFF894FFCF8A
:1009C80039003600330030003A0037003400310077
:0809D8003B003800350032003D
:00000001FF
