:100000000C942A000C9447000C9447000C94470071
:100010000C9494060C9461060C94FC040C942F052B
:100020000C9462050C9495050C94AF030C947C031E
:100030000C9447000C9447000C9447000C94470024
:100040000C9447000C9447000C9447000C94470014
:100050000C94470011241FBECFE5D8E0DEBFCDBF12
:1000600010E0A0E6B0E0E2E8FEE002C005900D92EC
:10007000A837B107D9F710E0A8E7B0E001C01D929A
:10008000AB38B107E1F70E9420070C943F070C94AE
:100090000000DF93CF9300D0CDB7DEB789836A83AA
:1000A0008981882F90E0880F991FFC01E859FF4F44
:1000B0000190F081E02D8A8180830F900F90CF9185
:1000C000DF910895DF93CF9300D00F92CDB7DEB7C5
:1000D00089836A834B838B81813029F58981882FBD
:1000E00090E0880F991FFC01E859FF4FA081B18172
:1000F0008981882F90E0880F991FFC01E859FF4FF4
:100100000190F081E02D8081482F8A81282F30E0F6
:1001100081E090E0022E02C0880F991F0A94E2F756
:10012000842B8C9325C08981882F90E0880F991F9C
:10013000FC01E859FF4FA081B1818981882F90E0AF
:10014000880F991FFC01E859FF4F0190F081E02DC5
:100150008081482F8A81282F30E081E090E0022EB4
:1001600002C0880F991F0A94E2F7809584238C932C
:100170000F900F900F90CF91DF910895DF93CF9361
:100180000F92CDB7DEB789838981882F90E0880FE1
:10019000991FFC01E859FF4F0190F081E02D10827A
:1001A0008981882F90E0880F991FFC01E059FF4F4B
:1001B0000190F081E02D8FEF80830F90CF91DF9140
:1001C0000895DF93CF9300D0CDB7DEB789836A83DC
:1001D0008981882F90E0880F991FFC01E859FF4F13
:1001E000A081B1818981882F90E0880F991FFC013F
:1001F000E859FF4F0190F081E02D8081482F8A81DE
:10020000282F30E081E090E002C0880F991F2A95E6
:10021000E2F7809584238C938981882F90E0880F62
:10022000991FFC01E059FF4FA081B1818981882F7E
:1002300090E0880F991FFC01E059FF4F0190F08179
:10024000E02D8081482F8A81282F30E081E090E0E6
:10025000022E02C0880F991F0A94E2F7842B8C9318
:100260000F900F90CF91DF910895DF93CF930F926E
:10027000CDB7DEB789838981882F90E0880F991FD9
:10028000FC01E059FF4F0190F081E02D8FEF80835A
:100290000F90CF91DF910895DF93CF930F92CDB759
:1002A000DEB789838981882F90E0880F991FFC0130
:1002B000E059FF4F0190F081E02D10820F90CF9117
:1002C000DF910895DF93CF9300D0CDB7DEB7898358
:1002D0006A838981882F90E0880F991FFC01E0597B
:1002E000FF4F0190F081E02D8A8180830F900F9065
:1002F000CF91DF910895DF93CF930F92CDB7DEB703
:1003000089838981882F90E0880F991FFC01E0592B
:10031000FF4FA081B1818981882F90E0880F991FBC
:10032000FC01E059FF4F0190F081E02D8081809524
:100330008C930F90CF91DF910895DF93CF9300D0EE
:10034000CDB7DEB789836A838981882F90E0880FD3
:10035000991FFC01E059FF4FA081B1818981882F4D
:1003600090E0880F991FFC01E059FF4F0190F08148
:10037000E02D8081482F8A81282F30E081E090E0B5
:10038000022E02C0880F991F0A94E2F7842B8C93E7
:100390000F900F90CF91DF910895DF93CF9300D00E
:1003A000CDB7DEB789836A838981882F90E0880F73
:1003B000991FFC01E059FF4FA081B1818981882FED
:1003C00090E0880F991FFC01E059FF4F0190F081E8
:1003D000E02D8081482F8A81282F30E081E090E055
:1003E000022E02C0880F991F0A94E2F78095842399
:1003F0008C930F900F90CF91DF910895DF93CF935F
:1004000000D00F92CDB7DEB789836A834B838B818F
:10041000813029F58981882F90E0880F991FFC0190
:10042000E059FF4FA081B1818981882F90E0880F2A
:10043000991FFC01E059FF4F0190F081E02D808170
:10044000482F8A81282F30E081E090E0022E02C000
:10045000880F991F0A94E2F7842B8C9325C0898119
:10046000882F90E0880F991FFC01E059FF4FA08171
:10047000B1818981882F90E0880F991FFC01E05994
:10048000FF4F0190F081E02D8081482F8A81282F35
:1004900030E081E090E0022E02C0880F991F0A949C
:1004A000E2F7809584238C930F900F900F90CF915B
:1004B000DF910895DF93CF9300D0CDB7DEB7898366
:1004C0006A838981882F90E0880F991FFC01E05989
:1004D000FF4FA081B1818981882F90E0880F991FFB
:1004E000FC01E059FF4F0190F081E02D8081482F01
:1004F0008A81282F30E081E090E0022E02C0880F30
:10050000991F0A94E2F784278C930F900F90CF9154
:10051000DF910895DF93CF930F92CDB7DEB7898334
:100520008981882F90E0880F991FFC01E05AFF4FC6
:100530000190F081E02D80810F90CF91DF9108959F
:10054000DF93CF9300D0CDB7DEB789836A838981EB
:10055000882F90E0880F991FFC01E05AFF4F01900F
:10056000F081E02D8081282F30E08A81882F90E073
:10057000A90102C0559547958A95E2F7CA01817095
:100580000F900F90CF91DF910895DF93CF9300D01C
:100590000F92CDB7DEB789837B836A8389818830E8
:1005A00060F48981882F90E0880F991FFC01E8583A
:1005B000FF4F8A819B81918380830F900F900F90D2
:1005C000CF91DF910895DF93CF93CDB7DEB7A3E549
:1005D000B0E0E3E5F0E0808182608C93A3E5B0E0D9
:1005E000E3E5F0E080818E7F8C93A3E5B0E0E3E566
:1005F000F0E080818B7F8C93CF91DF910895DF9322
:10060000CF93CDB7DEB7A3E5B0E0E3E5F0E08081BE
:100610008F7E8C93A3E5B0E0E3E5F0E080818F7DF1
:100620008C93CF91DF910895DF93CF93CDB7DEB751
:10063000A3E5B0E0E3E5F0E08081877F8C93A3E55C
:10064000B0E0E3E5F0E080818F7B8C93CF91DF9188
:100650000895DF93CF93CDB7DEB7A3E5B0E0E3E530
:10066000F0E080818B7F8C93A3E5B0E0E3E5F0E0E0
:1006700080818D7F8C93A3E5B0E0E3E5F0E080819D
:100680008E7F8C93CF91DF910895DF93CF930F925C
:10069000CDB7DEB78983E2E5F0E0898180830F90F2
:1006A000CF91DF910895DF93CF930F92CDB7DEB74F
:1006B0008983ECE5F0E0898180830F90CF91DF9111
:1006C0000895DF93CF93CDB7DEB70E9414030E9445
:1006D000FF020E94E302A9E5B0E0E9E5F0E08081D5
:1006E00081608C93AFE5B0E0EFE5F0E08081806859
:1006F0008C93CF91DF9108951F920F920FB60F92B6
:1007000011242F933F934F935F936F937F938F9316
:100710009F93AF93BF93EF93FF93DF93CF93CDB7A7
:10072000DEB78091780090917900009729F0E091F0
:100730007800F09179000995CF91DF91FF91EF91C9
:10074000BF91AF919F918F917F916F915F914F91E9
:100750003F912F910F900FBE0F901F9018951F92F1
:100760000F920FB60F9211242F933F934F935F93E5
:100770006F937F938F939F93AF93BF93EF93FF9369
:10078000DF93CF93CDB7DEB780917A0090917B0055
:10079000009729F0E0917A00F0917B000995CF91C4
:1007A000DF91FF91EF91BF91AF919F918F917F91D9
:1007B0006F915F914F913F912F910F900FBE0F90CE
:1007C0001F901895DF93CF93CDB7DEB7AFE4B0E0BD
:1007D000EFE4F0E080818E7F8C93AFE4B0E0EFE453
:1007E000F0E080818D7F8C93AFE4B0E0EFE4F0E047
:1007F0008081877F8C93AFE4B0E0EFE4F0E080810C
:100800008F7E8C93CF91DF910895DF93CF93CDB7F7
:10081000DEB7CF91DF910895DF93CF93CDB7DEB7E9
:10082000AEE4B0E0EEE4F0E0808182608C93AEE470
:10083000B0E0EEE4F0E080818E7F8C93AEE4B0E037
:10084000EEE4F0E080818B7F8C93CF91DF9108956F
:10085000DF93CF9300D0CDB7DEB79A838983ECE4E2
:10086000F0E089819A81918380830F900F90CF91DE
:10087000DF910895DF93CF9300D0CDB7DEB79A8391
:100880008983EAE4F0E089819A81918380830F90E3
:100890000F90CF91DF910895DF93CF9300D0CDB724
:1008A000DEB79A838983E8E4F0E089819A819183B5
:1008B00080830F900F90CF91DF910895DF93CF93B6
:1008C000CDB7DEB7AEE4B0E0EEE4F0E080818E7F3D
:1008D0008C93AEE4B0E0EEE4F0E080818D7F8C9309
:1008E000AEE4B0E0EEE4F0E080818B7F8C93CF91BA
:1008F000DF910895DF93CF93CDB7DEB70E94E20377
:100900000E9405040E940C04E6E4F0E011821082CB
:10091000A9E5B0E0E9E5F0E0808184608C93AFE583
:10092000B0E0EFE5F0E0808180688C93CF91DF91BB
:100930000895DF93CF9300D00F92CDB7DEB78983B0
:100940008981282F30E03B832A838A819B8100970D
:10095000A1F02A813B8121303105E9F4AEE4B0E019
:10096000EEE4F0E080818F7B8C93AEE4B0E0EEE4C7
:10097000F0E0808180688C930EC0AEE4B0E0EEE4DD
:10098000F0E0808180648C93AEE4B0E0EEE4F0E0CF
:10099000808180688C930F900F900F90CF91DF91A2
:1009A0000895DF93CF93CDB7DEB7A9E5B0E0E9E5D1
:1009B000F0E080818F7D8C93CF91DF910895DF935C
:1009C000CF93CDB7DEB7E6E4F0E080819181CF919F
:1009D000DF910895DF93CF9300D0CDB7DEB79A8330
:1009E0008983ECE4F0E089819A81918380830F9080
:1009F0000F90CF91DF9108951F920F920FB60F9233
:100A000011242F933F934F935F936F937F938F9313
:100A10009F93AF93BF93EF93FF93DF93CF93CDB7A4
:100A2000DEB78091820090918300009729F0E091D9
:100A30008200F09183000995CF91DF91FF91EF91B2
:100A4000BF91AF919F918F917F916F915F914F91E6
:100A50003F912F910F900FBE0F901F9018951F92EE
:100A60000F920FB60F9211242F933F934F935F93E2
:100A70006F937F938F939F93AF93BF93EF93FF9366
:100A8000DF93CF93CDB7DEB780917E0090917F004A
:100A9000009729F0E0917E00F0917F000995CF91B9
:100AA000DF91FF91EF91BF91AF919F918F917F91D6
:100AB0006F915F914F913F912F910F900FBE0F90CB
:100AC0001F9018951F920F920FB60F9211242F931B
:100AD0003F934F935F936F937F938F939F93AF93C6
:100AE000BF93EF93FF93DF93CF93CDB7DEB78091A2
:100AF000800090918100009729F0E0918000F091B2
:100B000081000995CF91DF91FF91EF91BF91AF9156
:100B10009F918F917F916F915F914F913F912F9115
:100B20000F900FBE0F901F9018951F920F920FB647
:100B30000F9211242F933F934F935F936F937F9363
:100B40008F939F93AF93BF93EF93FF93DF93CF93D5
:100B5000CDB7DEB780917C0090917D00009729F0A1
:100B6000E0917C00F0917D000995CF91DF91FF919C
:100B7000EF91BF91AF919F918F917F916F915F9115
:100B80004F913F912F910F900FBE0F901F9018958E
:100B9000DF93CF93CDB7DEB7A5E4B0E0E5E4F0E0B6
:100BA000808182608C93A5E4B0E0E5E4F0E0808190
:100BB0008E7F8C93A5E4B0E0E5E4F0E080818B7F4C
:100BC0008C93CF91DF910895DF93CF93CDB7DEB7AC
:100BD000A5E4B0E0E5E4F0E080818F7E8C93A5E4AD
:100BE000B0E0E5E4F0E080818F7D8C93CF91DF91E0
:100BF0000895DF93CF93CDB7DEB7A5E4B0E0E5E489
:100C0000F0E080818F7B8C93A5E4B0E0E5E4F0E038
:100C10008081877F8C93CF91DF910895DF93CF936D
:100C2000CDB7DEB7A5E4B0E0E5E4F0E080818E7FEB
:100C30008C93A5E4B0E0E5E4F0E080818D7F8C93B7
:100C4000A5E4B0E0E5E4F0E080818B7F8C93CF9168
:100C5000DF910895DF93CF930F92CDB7DEB78983ED
:100C6000E4E4F0E0898180830F90CF91DF910895D3
:100C7000DF93CF930F92CDB7DEB78983E3E4F0E043
:100C8000898180830F90CF91DF910895DF93CF9377
:100C9000CDB7DEB70E94F9050E94E4050E94C805A1
:100CA000A9E5B0E0E9E5F0E0808180648C93AFE5F0
:100CB000B0E0EFE5F0E0808180688C93CF91DF9128
:100CC00008951F920F920FB60F9211242F933F9306
:100CD0004F935F936F937F938F939F93AF93BF9344
:100CE000EF93FF93DF93CF93CDB7DEB7809184006E
:100CF00090918500009729F0E0918400F0918500A3
:100D00000995CF91DF91FF91EF91BF91AF919F91A5
:100D10008F917F916F915F914F913F912F910F90A4
:100D20000FBE0F901F9018951F920F920FB60F9243
:100D300011242F933F934F935F936F937F938F93E0
:100D40009F93AF93BF93EF93FF93DF93CF93CDB771
:100D5000DEB78091860090918700009729F0E0919E
:100D60008600F09187000995CF91DF91FF91EF9177
:100D7000BF91AF919F918F917F916F915F914F91B3
:100D80003F912F910F900FBE0F901F901895DF93FA
:100D9000CF930F92CDB7DEB78983A1E4B0E0E1E451
:100DA000F0E0808188608C93AFE5B0E0EFE5F0E0A3
:100DB000808180688C93A1E4B0E0E1E4F0E0808180
:100DC000887F8C93A1E4B0E0E1E4F0E08081982F8B
:100DD00089818770892B8C930F90CF91DF91089533
:100DE000DF93CF93CDB7DEB7E1E4F0E088E1808315
:100DF000E1E4F0E01082CF91DF910895DF93CF938B
:100E0000CDB7DEB78091890090918A0001969093CA
:100E10008A00809389008091890090918A002FE058
:100E20008334920751F410928A001092890080EC6A
:100E30000E94450381E080938800CF91DF9108955F
:100E4000DF93CF93CDB7DEB780E060E041E00E9452
:100E500062002EEF36E080E0B9010E94C5020E94D8
:100E6000610380EC0E944503809188008823E1F3B0
:100E700080E060E00E945A0210928800F5CFF8945A
:020E8000FFCFA2
:100E820039003600330030003A00370034003100B8
:080E92003B003800350032007E
:00000001FF
