:100000000C942A000C9447000C9447000C94470071
:100010000C9447000C9447000C9447000C94470044
:100020000C9447000C9447000C9447000C94470034
:100030000C9447000C9447000C9447000C94470024
:100040000C9430010C9447000C9447000C9447002A
:100050000C94470011241FBECFE5D8E0DEBFCDBF12
:1000600010E0A0E6B0E0E8EBF9E002C005900D92E8
:10007000A837B107D9F710E0A8E7B0E001C01D929A
:10008000AA37B107E1F70E9479040C94DA040C94C2
:100090000000DF93CF93CDB7DEB7A6E2B0E0E6E293
:1000A000F0E0808180648C93CF91DF910895DF939D
:1000B000CF93CDB7DEB7A7E2B0E0E7E2F0E0808112
:1000C0008F778C93A7E2B0E0E7E2F0E08081806474
:1000D0008C93CF91DF910895DF93CF93CDB7DEB7A7
:1000E000A0E5B0E0E0E5F0E080818F7D8C93A0E5B5
:1000F000B0E0E0E5F0E0808180648C93A0E5B0E0C2
:10010000E0E5F0E080818F778C93CF91DF910895C7
:10011000DF93CF93CDB7DEB7A6E2B0E0E6E2F0E042
:10012000808184608C93A6E2B0E0E6E2F0E080811A
:1001300082608C93A6E2B0E0E6E2F0E0808181602C
:100140008C93CF91DF910895DF93CF93CDB7DEB736
:10015000A6E2B0E0E6E2F0E0808180688C930E9445
:1001600088000E945700A7E2B0E0E7E2F0E080815B
:1001700080628C93A6E2B0E0E6E2F0E080818F7DC1
:100180008C93AFE5B0E0EFE5F0E0808180688C9380
:10019000A6E2B0E0E6E2F0E0808188608C93CF9147
:1001A000DF910895DF93CF9300D000D00F92CDB7A9
:1001B000DEB78D83A7E2B0E0E7E2F0E08081807EE9
:1001C0008C93A7E2B0E0E7E2F0E090818D81892B8B
:1001D0008C93E4E2F0E08081829586958695837029
:1001E000882F90E0A0E0B0E089839A83AB83BC8342
:1001F000E5E2F0E08081882F90E0880F991F880F5A
:10020000991F9C0140E050E089819A81AB81BC81BB
:10021000822B932BA42BB52B89839A83AB83BC832E
:1002200089819A81AB81BC81BC01CD010F900F9077
:100230000F900F900F90CF91DF910895DF93CF93A0
:1002400000D0CDB7DEB79A83898389819A81909354
:100250007900809378000F900F90CF91DF910895EF
:100260001F920F920FB60F9211242F933F934F932B
:100270005F936F937F938F939F93AF93BF93EF930E
:10028000FF93DF93CF9300D000D0CDB7DEB780913E
:100290007800909179000097A1F080E00E94D20050
:1002A000DC01CB0189839A83AB83BC83E091780026
:1002B000F091790089819A81AB81BC81BC01CD012B
:1002C00009950F900F900F900F90CF91DF91FF91B4
:1002D000EF91BF91AF919F918F917F916F915F91BE
:1002E0004F913F912F910F900FBE0F901F90189537
:1002F000DF93CF9300D0CDB7DEB789836A8389813E
:10030000882F90E0880F991FFC01E859FF4F01905A
:10031000F081E02D8A8180830F900F90CF91DF9143
:100320000895DF93CF9300D00F92CDB7DEB78983C6
:100330006A834B838B81813029F58981882F90E0F6
:10034000880F991FFC01E859FF4FA081B181898175
:10035000882F90E0880F991FFC01E859FF4F01900A
:10036000F081E02D8081482F8A81282F30E081E0C4
:1003700090E0022E02C0880F991F0A94E2F7842BA6
:100380008C9325C08981882F90E0880F991FFC01EC
:10039000E859FF4FA081B1818981882F90E0880FB3
:1003A000991FFC01E859FF4F0190F081E02D8081F9
:1003B000482F8A81282F30E081E090E0022E02C091
:1003C000880F991F0A94E2F7809584238C930F90ED
:1003D0000F900F90CF91DF910895DF93CF930F92FD
:1003E000CDB7DEB789838981882F90E0880F991F68
:1003F000FC01E859FF4F0190F081E02D10828981C6
:10040000882F90E0880F991FFC01E059FF4F019061
:10041000F081E02D8FEF80830F90CF91DF910895D1
:10042000DF93CF9300D0CDB7DEB789836A8389810C
:10043000882F90E0880F991FFC01E859FF4FA08199
:10044000B1818981882F90E0880F991FFC01E859BC
:10045000FF4F0190F081E02D8081482F8A81282F65
:1004600030E081E090E002C0880F991F2A95E2F702
:10047000809584238C938981882F90E0880F991F21
:10048000FC01E059FF4FA081B1818981882F90E064
:10049000880F991FFC01E059FF4F0190F081E02D7A
:1004A0008081482F8A81282F30E081E090E0022E61
:1004B00002C0880F991F0A94E2F7842B8C930F9047
:1004C0000F90CF91DF910895DF93CF930F92CDB727
:1004D000DEB789838981882F90E0880F991FFC01FE
:1004E000E059FF4F0190F081E02D8FEF80830F9056
:1004F000CF91DF910895DF93CF930F92CDB7DEB701
:1005000089838981882F90E0880F991FFC01E05929
:10051000FF4F0190F081E02D10820F90CF91DF917D
:100520000895DF93CF9300D0CDB7DEB789836A8378
:100530008981882F90E0880F991FFC01E059FF4FB7
:100540000190F081E02D8A8180830F900F90CF91F0
:10055000DF910895DF93CF930F92CDB7DEB78983F4
:100560008981882F90E0880F991FFC01E059FF4F87
:10057000A081B1818981882F90E0880F991FFC01AB
:10058000E059FF4F0190F081E02D808180958C93A0
:100590000F90CF91DF910895DF93CF9300D0CDB727
:1005A000DEB789836A838981882F90E0880F991F3D
:1005B000FC01E059FF4FA081B1818981882F90E033
:1005C000880F991FFC01E059FF4F0190F081E02D49
:1005D0008081482F8A81282F30E081E090E0022E30
:1005E00002C0880F991F0A94E2F7842B8C930F9016
:1005F0000F90CF91DF910895DF93CF9300D0CDB7C7
:10060000DEB789836A838981882F90E0880F991FDC
:10061000FC01E059FF4FA081B1818981882F90E0D2
:10062000880F991FFC01E059FF4F0190F081E02DE8
:100630008081482F8A81282F30E081E090E0022ECF
:1006400002C0880F991F0A94E2F7809584238C9347
:100650000F900F90CF91DF910895DF93CF9300D04B
:100660000F92CDB7DEB789836A834B838B8181304C
:1006700029F58981882F90E0880F991FFC01E059A6
:10068000FF4FA081B1818981882F90E0880F991F49
:10069000FC01E059FF4F0190F081E02D8081482F4F
:1006A0008A81282F30E081E090E0022E02C0880F7E
:1006B000991F0A94E2F7842B8C9325C08981882F97
:1006C00090E0880F991FFC01E059FF4FA081B18194
:1006D0008981882F90E0880F991FFC01E059FF4F16
:1006E0000190F081E02D8081482F8A81282F30E011
:1006F00081E090E0022E02C0880F991F0A94E2F771
:10070000809584238C930F900F900F90CF91DF9161
:100710000895DF93CF9300D0CDB7DEB789836A8386
:100720008981882F90E0880F991FFC01E059FF4FC5
:10073000A081B1818981882F90E0880F991FFC01E9
:10074000E059FF4F0190F081E02D8081482F8A8190
:10075000282F30E081E090E0022E02C0880F991F20
:100760000A94E2F784278C930F900F90CF91DF913A
:100770000895DF93CF930F92CDB7DEB78983898138
:10078000882F90E0880F991FFC01E05AFF4F0190DD
:10079000F081E02D80810F90CF91DF910895DF935C
:1007A000CF9300D0CDB7DEB789836A838981882F44
:1007B00090E0880F991FFC01E05AFF4F0190F081F3
:1007C000E02D8081282F30E08A81882F90E0A901D8
:1007D00002C0559547958A95E2F7CA0181700F903E
:1007E0000F90CF91DF910895DF93CF93CDB7DEB710
:1007F0002C970FB6F894DEBF0FBECDBF69877A87FE
:100800008B879C8789859A85AB85BC8528E833E1F1
:1008100040E050E0BC01CD010E949904DC01CB0115
:10082000072E7AE0B695A795979587957A95D1F793
:10083000702D8D839E83AF83B8878D819E81AF811C
:10084000B8852AE030E040E050E0BC01CD010E94D4
:10085000B804DA01C90189839A83AB83BC83898197
:100860009A81AB81BC818A319105A105B10568F4FB
:1008700082E060E00E94CC0282E061E00E94FC0223
:1008800082E062E00E94FC022BC089819A81AB81E8
:10089000BC818A319105A105B105B0F089819A81A9
:1008A000AB81BC8189329105A105B10568F482E074
:1008B00061E00E94CC0282E060E00E94FC0282E0E3
:1008C00062E00E94FC020CC082E062E00E94CC0266
:1008D00082E061E00E94FC0282E060E00E94FC0293
:1008E0002C960FB6F894DEBF0FBECDBFCF91DF912F
:1008F0000895DF93CF930F92CDB7DEB7198208C06A
:1009000082E0698141E00E94910189818F5F898342
:1009100089818330A8F380E060E040E00E9491018B
:100920000E94A40084EF93E00E941E010E944900EF
:10093000FDCF629FD001739FF001829FE00DF11DFA
:10094000649FE00DF11D929FF00D839FF00D749F49
:10095000F00D659FF00D9927729FB00DE11DF91FF5
:10096000639FB00DE11DF91FBD01CF011124089552
:10097000A1E21A2EAA1BBB1BFD010DC0AA1FBB1FA3
:10098000EE1FFF1FA217B307E407F50720F0A21B15
:10099000B30BE40BF50B661F771F881F991F1A9482
:1009A00069F760957095809590959B01AC01BD01AC
:0809B000CF010895F894FFCF78
:1009B80039003600330030003A0037003400310087
:0809C8003B003800350032004D
:00000001FF
