:100000000C942A000C9447000C9447000C94470071
:100010000C9447000C9447000C9447000C94470044
:100020000C9447000C9447000C9447000C94470034
:100030000C9447000C94CA030C94FD030C944700E5
:100040000C9447000C9447000C9447000C94470014
:100050000C94470011241FBECFE5D8E0DEBFCDBF12
:1000600010E0A0E6B0E0E6E1F9E002C005900D92F4
:10007000A239B107D9F710E0A2E9B0E001C01D92A2
:10008000A839B107E1F70E9442040C9489040C944A
:100090000000DF93CF9300D0CDB7DEB789836A83AA
:1000A0008981882F90E0880F991FFC01EE57FF4F40
:1000B0000190F081E02D8A8180830F900F90CF9185
:1000C000DF910895DF93CF9300D00F92CDB7DEB7C5
:1000D00089836A834B838B81813029F58981882FBD
:1000E00090E0880F991FFC01EE57FF4FA081B1816E
:1000F0008981882F90E0880F991FFC01EE57FF4FF0
:100100000190F081E02D8081482F8A81282F30E0F6
:1001100081E090E0022E02C0880F991F0A94E2F756
:10012000842B8C9325C08981882F90E0880F991F9C
:10013000FC01EE57FF4FA081B1818981882F90E0AB
:10014000880F991FFC01EE57FF4F0190F081E02DC1
:100150008081482F8A81282F30E081E090E0022EB4
:1001600002C0880F991F0A94E2F7809584238C932C
:100170000F900F900F90CF91DF910895DF93CF9361
:100180000F92CDB7DEB789838981882F90E0880FE1
:10019000991FFC01EE57FF4F0190F081E02D108276
:1001A0008981882F90E0880F991FFC01E657FF4F47
:1001B0000190F081E02D8FEF80830F90CF91DF9140
:1001C0000895DF93CF9300D0CDB7DEB789836A83DC
:1001D0008981882F90E0880F991FFC01EE57FF4F0F
:1001E000A081B1818981882F90E0880F991FFC013F
:1001F000EE57FF4F0190F081E02D8081482F8A81DA
:10020000282F30E081E090E002C0880F991F2A95E6
:10021000E2F7809584238C938981882F90E0880F62
:10022000991FFC01E657FF4FA081B1818981882F7A
:1002300090E0880F991FFC01E657FF4F0190F08175
:10024000E02D8081482F8A81282F30E081E090E0E6
:10025000022E02C0880F991F0A94E2F7842B8C9318
:100260000F900F90CF91DF910895DF93CF930F926E
:10027000CDB7DEB789838981882F90E0880F991FD9
:10028000FC01E657FF4F0190F081E02D8FEF808356
:100290000F90CF91DF910895DF93CF930F92CDB759
:1002A000DEB789838981882F90E0880F991FFC0130
:1002B000E657FF4F0190F081E02D10820F90CF9113
:1002C000DF910895DF93CF9300D0CDB7DEB7898358
:1002D0006A838981882F90E0880F991FFC01E65777
:1002E000FF4F0190F081E02D8A8180830F900F9065
:1002F000CF91DF910895DF93CF930F92CDB7DEB703
:1003000089838981882F90E0880F991FFC01E65727
:10031000FF4FA081B1818981882F90E0880F991FBC
:10032000FC01E657FF4F0190F081E02D8081809520
:100330008C930F90CF91DF910895DF93CF9300D0EE
:10034000CDB7DEB789836A838981882F90E0880FD3
:10035000991FFC01E657FF4FA081B1818981882F49
:1003600090E0880F991FFC01E657FF4F0190F08144
:10037000E02D8081482F8A81282F30E081E090E0B5
:10038000022E02C0880F991F0A94E2F7842B8C93E7
:100390000F900F90CF91DF910895DF93CF9300D00E
:1003A000CDB7DEB789836A838981882F90E0880F73
:1003B000991FFC01E657FF4FA081B1818981882FE9
:1003C00090E0880F991FFC01E657FF4F0190F081E4
:1003D000E02D8081482F8A81282F30E081E090E055
:1003E000022E02C0880F991F0A94E2F78095842399
:1003F0008C930F900F90CF91DF910895DF93CF935F
:1004000000D00F92CDB7DEB789836A834B838B818F
:10041000813029F58981882F90E0880F991FFC0190
:10042000E657FF4FA081B1818981882F90E0880F26
:10043000991FFC01E657FF4F0190F081E02D80816C
:10044000482F8A81282F30E081E090E0022E02C000
:10045000880F991F0A94E2F7842B8C9325C0898119
:10046000882F90E0880F991FFC01E657FF4FA0816D
:10047000B1818981882F90E0880F991FFC01E65790
:10048000FF4F0190F081E02D8081482F8A81282F35
:1004900030E081E090E0022E02C0880F991F0A949C
:1004A000E2F7809584238C930F900F900F90CF915B
:1004B000DF910895DF93CF9300D0CDB7DEB7898366
:1004C0006A838981882F90E0880F991FFC01E65785
:1004D000FF4FA081B1818981882F90E0880F991FFB
:1004E000FC01E657FF4F0190F081E02D8081482FFD
:1004F0008A81282F30E081E090E0022E02C0880F30
:10050000991F0A94E2F784278C930F900F90CF9154
:10051000DF910895DF93CF930F92CDB7DEB7898334
:100520008981882F90E0880F991FFC01E658FF4FC2
:100530000190F081E02D80810F90CF91DF9108959F
:10054000DF93CF9300D0CDB7DEB789836A838981EB
:10055000882F90E0880F991FFC01E658FF4F01900B
:10056000F081E02D8081282F30E08A81882F90E073
:10057000A90102C0559547958A95E2F7CA01817095
:100580000F900F90CF91DF910895DF93CF9300D01C
:100590000F92CDB7DEB789837B836A8389818330ED
:1005A00060F48981882F90E0880F991FFC01EE5636
:1005B000FF4F8A819B81918380830F900F900F90D2
:1005C000CF91DF910895DF93CF93CDB7DEB7A0E44D
:1005D000B0E0E0E4F0E0808180688C93A0E4B0E0DB
:1005E000E0E4F0E0808182608C93A0E4B0E0E0E49D
:1005F000F0E0808184608C93AAE2B0E0EAE2F0E06F
:1006000080818B7F8C93CF91DF910895DF93CF937F
:10061000CDB7DEB7CF91DF910895DF93CF93CDB7FC
:10062000DEB7E9E2F0E083E38083A0E4B0E0E0E459
:10063000F0E0808180688C93A0E4B0E0E0E4F0E03A
:1006400080818F7B8C93A0E4B0E0E0E4F0E08081D7
:1006500080688C93A0E4B0E0E0E4F0E08081877FE4
:100660008C930E94E302AAE2B0E0EAE2F0E080812B
:1006700088608C93AAE2B0E0EAE2F0E080818061D9
:100680008C93CF91DF910895DF93CF930F92CDB7E5
:10069000DEB78983EBE2F0E08081829586958770F2
:1006A000882F90E0817090700097A1F3ECE2F0E069
:1006B000898180830F90CF91DF910895DF93CF934D
:1006C0000F92CDB7DEB7EBE2F0E080818823DCF754
:1006D000ECE2F0E08081898389810F90CF91DF91F6
:1006E0000895DF93CF9300D0CDB7DEB79A83898387
:1006F0000AC0E981FA8180810E94440389819A813C
:1007000001969A838983E981FA818081882389F718
:1007100080E00E9444030F900F90CF91DF910895E5
:100720000F931F93DF93CF9300D00F92CDB7DEB717
:100730009B838A8319828981282F30E08A819B815B
:100740008C01020F131F0E945E03F80180830FC00B
:100750008981282F30E08A819B818C01020F131F31
:100760000E945E03F801808389818F5F898389817C
:10077000282F30E08A819B81FC01E20FF31F8081EA
:10078000882331F70F900F900F90CF91DF911F9139
:100790000F9108951F920F920FB60F9211242F936D
:1007A0003F934F935F936F937F938F939F93AF93F9
:1007B000BF93EF93FF93DF93CF93CDB7DEB78091D5
:1007C000940090919500009729F0E0919400F091A9
:1007D00095000995CF91DF91FF91EF91BF91AF9176
:1007E0009F918F917F916F915F914F913F912F9149
:1007F0000F900FBE0F901F9018951F920F920FB67B
:100800000F9211242F933F934F935F936F937F9396
:100810008F939F93AF93BF93EF93FF93DF93CF9308
:10082000CDB7DEB78091960090919700009729F0A0
:10083000E0919600F09197000995CF91DF91FF919B
:10084000EF91BF91AF919F918F917F916F915F9148
:100850004F913F912F910F900FBE0F901F901895C1
:10086000DF93CF93CDB7DEB7809192009091930044
:10087000009729F0E0919200F09193000995CF91B3
:10088000DF910895DF93CF9300D000D0CDB7DEB7CE
:1008900080E060E041E00E94620080E061E041E0D1
:1008A0000E94620080E062E041E00E9462000E94DB
:1008B0000D0380E690E00E9471030E945E038A832C
:1008C0008A818823B1F38A8189831A828981282FBA
:1008D00030E03C832B838B819C818233910579F0BE
:1008E0002B813C812333310579F08B819C818133CD
:1008F0009105F9F680E060E00E945A02DACF80E0CC
:1009000061E00E945A02D5CF80E062E00E945A0264
:06091000D0CFF894FFCFE8
:10091600312D59656C6C6F77200A322D5265640A49
:1009260020332D477265656E0A00390036003300A4
:1009360030003A003700340031003B003800350003
:0209460032007D
:00000001FF
